:100000000C94FB080C941C090C941C090C941C09FE
:100010000C941C090C941C090C941C090C941C09CC
:100020000C941C090C941C090C941C090C941C09BC
:100030000C941C090C941C090C941C090C941C09AC
:100040000C941C090C94B6340C941C090C941C09D7
:100050000C941C090C941C090C94A8320C945E326C
:100060000C941C090C94163C0C941C090C941C094F
:100070000C941C090C941C090C941C090C941C096C
:100080000C941C090C941C090C941C090C941C095C
:100090000C941C090C941C090C941C090C941C094C
:1000A0000C941C090C941C090C941C090C941C093C
:1000B0000C941C090C941C090C941C090C941C092C
:1000C0000C941C090C941C090C941C090C94DA3B2C
:1000D0000C941C090C941C090C941C090C941C090C
:1000E0000C941C09084AD73B3BCE016E84BCBFFD73
:1000F000C12F3D6C74319ABD56833DDA3D00C77FF8
:1001000011BED9E4BB4C3E916BAAAABE0000008090
:100110003F05A84CCDB2D44EB93836A9020C50B91F
:10012000918688083CA6AAAA2ABE000000803F004B
:100130004E414E494E495459494E46CDCCCC3D0ACC
:10014000D7233C17B7D13877CC2B329595E6241FAF
:10015000B14F0A000020410000C84200401C462068
:10016000BCBE4CCA1B0E5AAEC59D7420440020492B
:10017000002020204D33303120500050494420735E
:10018000657474696E67733A00205A002059002024
:10019000204D323036205800486F6D65206F6666FE
:1001A00073657420286D6D293A00204500205A009F
:1001B00020580020420020540020204D32303520AD
:1001C0005300416476616E63656420766172696193
:1001D000626C65733A20533D4D696E2066656564B7
:1001E0007261746520286D6D2F73292C20543D4D4C
:1001F000696E2074726176656C20666565647261F3
:10020000746520286D6D2F73292C20423D6D696E19
:10021000696D756D207365676D656E742074696DA9
:100220006520286D73292C20583D6D6178696D75A6
:100230006D205859206A65726B20286D6D2F7329C7
:100240002C20205A3D6D6178696D756D205A206AA9
:1002500065726B20286D6D2F73292C2020453D6D14
:100260006178696D756D2045206A65726B20286D17
:100270006D2F73290020540020204D32303420533C
:1002800000416363656C65726174696F6E3A2053F7
:100290003D616363656C65726174696F6E2C205497
:1002A0003D7265747261637420616363656C65722D
:1002B0006174696F6E00204500205A0020590020AB
:1002C000204D3230312058004D6178696D756D20B8
:1002D000416363656C65726174696F6E20286D6D32
:1002E0002F7332293A00204500205A00205900205F
:1002F000204D3230332058004D6178696D756D2086
:1003000066656564726174657320286D6D2F73294D
:100310003A00204500205A0020590020204D393253
:1003200020580053746570732070657220756E6973
:10033000743A0048617264636F6465642044656662
:1003400061756C742053657474696E6773204C6FAB
:1003500061646564006563686F3A002020506C61D9
:100360006E6E657242756666657242797465733A3F
:1003700020002046726565204D656D6F72793A20C8
:10038000004E6F76203135203230323000436F6DB1
:1003900070696C65643A2000286E6F6E652C20646D
:1003A000656661756C7420636F6E666967290020ED
:1003B0007C20417574686F723A20004E6F76203150
:1003C0003520323032302031353A34373A3430004B
:1003D000204C61737420557064617465643A200028
:1003E000312E302E30004D61726C696E200020532A
:1003F0006F6674776172652052657365740020576B
:1004000061746368646F672052657365740020428D
:10041000726F776E206F757420526573657400205B
:1004200045787465726E616C205265736574005016
:100430006F776572557000737461727400526573E2
:10044000656E643A20006F6B005072696E7465725D
:100450002068616C7465642E206B696C6C2829209F
:1004600063616C6C65642100000010430000104360
:1004700000004843000000000000000000000000F1
:100480000000104300000000000000000000A04039
:100490000000A040000000000000104300001043D6
:1004A0000000484301FFFF5072696E74657220734B
:1004B000746F707065642064756520746F20657258
:1004C000726F72732E204669782074686520657299
:1004D000726F7220616E6420757365204D393939F1
:1004E00020746F20726573746172742E20285465B5
:1004F0006D706572617475726520697320726573C1
:1005000065742E2053657420697420616674657269
:100510002072657374617274696E67290024F4D463
:100520003050C38E20C2A24017828B7011127A9174
:100530000D816CD90AA861E108C75866076151436B
:10054000061E4B5D05C145A7041A411104093D98DB
:1005500003713931034036DB0265339102D43054E4
:1005600002802E1D02632CEE01752AC501B028A061
:1005700001102781018F2564012B244B01E02234D7
:1005800001AC211F018D200D01801FFC00841EED98
:1005900000971DDF00B81CD200E61BC600201BBC64
:1005A00000641AB200B219A8000A19A0006A1899CA
:1005B00000D117910040178B00B516840031167ECC
:1005C00000B31579003A157300C7146F0058146A08
:1005D00000EE1366008813630025135E00C7125BEC
:1005E000006C12570015125400C111510070114FC8
:1005F0000021114B00D61049008D104700461044D1
:100600000002104200C00F4000800F3E00420F3C2D
:1006100000060F3B00CB0E3800930E37005C0E3502
:1006200000270E3400F30D3200C10D3100900D3063
:1006300000600D2E00320D2D00050D2C00D90C2B65
:1006400000AE0C2900850C29005C0C2700350C2716
:10065000000E0C2600E80B2400C40B2400A00B2382
:10066000007D0B23005A0B2100390B2100180B20B1
:1006700000F80A1F00D90A1E00BB0A1E009D0A1DB1
:1006800000800A1D00630A1C00470A1B002C0A1B7D
:1006900000110A1A00F7091A00DD091900C4091926
:1006A00000AB091900920917007B091800630917AC
:1006B000004C09160036091600200916000A091513
:1006C00000F5081500E0081400CC081400B8081460
:1006D00000A4081400900813007D0812006B081392
:1006E00000580812004608120034081100230811AF
:1006F000001208110001081100F0071000E00710B7
:1007000000D0071000C0071000B0070F00A10710AD
:100710000091070E0083070F0074070F0065070E96
:100720000057070E0049070E003B070D002E070E6D
:100730000020070D0013070D0006070D00F9060C39
:1007400000ED060D00E0060C00D4060C00C8060CF7
:1007500000BC060C00B0060C00A4060B0099060CA9
:10076000008D060B0082060B0077060B006C060B53
:100770000061060A0057060B004C060A0042060AF2
:100780000038060A002E060A0024060A001A060A85
:10079000001006090007060A00FD050900F4050916
:1007A00000EB050900E2050900D9050900D005099B
:1007B00000C7050900BE050900B5050800AD05081C
:1007C00000A50509009C050800940508008C050893
:1007D00000840508007C050800740508006C050706
:1007E00000650508005D050700560508004E050771
:1007F00000470507004005080038050700310507D8
:10080000002A050700230507001C0506001605073A
:10081000000F0507000805060002050700FB040697
:1008200000F5040700EE040600E8040600E20407F1
:1008300000DB040600D5040600CF040600C9040648
:1008400000C3040600BD040600B7040600B1040599
:1008500000AC040600A6040600A00405009B0406E4
:100860000095040500900406008A0405008504052F
:1008700000800406007A0405007504050070040574
:10088000006B04050066040500610405005C0405B6
:100890000057040500520405004D040500480405F6
:1008A00000430405003E0404003A04050035040535
:1008B00000300404002C0405002704040023040570
:1008C000001E0404001A04040016040500110404A8
:1008D000000D0404000904050004040400000404DD
:1008E00000FC030400F8030400F4030400F0030414
:1008F00000EC030400E8030400E4030400E0030444
:1009000000DC030400D8030400D4030400D0030473
:1009100000CC030400C8030300C503030024F4044F
:10092000D9201BC40C5C0E9804C4095F02650771D2
:1009300001F405F900FB04B30048048700C1036912
:10094000005803550003034500BE023A00840231FB
:100950000053022A002902250004022000E4011CA1
:1009600000C8011900AF0117009801140084011399
:1009700000710110006101100051010E0043010DD2
:100980000036010B002B010B0020010B00150109A3
:10099000000C01090003010800FB000800F3000837
:1009A00000EB000700E4000600DE000600D80006A9
:1009B00000D2000600CC000500C7000500C20005FB
:1009C00000BD000400B9000400B5000400B100043B
:1009D00000AD000400A9000400A5000300A200036C
:1009E000009F0004009B0003009800030095000294
:1009F0000093000300900003008D0002008B0003B1
:100A000000880002008600020084000300810002CA
:100A1000007F0002007D0002007B000200790002DE
:100A200000770001007600020074000200720001ED
:100A300000710002006F0002006D0001006C0002F6
:100A4000006A000100690002006700010066000101
:100A50000065000100640002006200010061000105
:100A600000600001005F0002005D0001005C000109
:100A7000005B0001005A000100590001005800010C
:100A8000005700010056000100550001005400010C
:100A9000005300000053000100520001005100010A
:100AA00000500001004F0001004E0000004E000108
:100AB000004D0001004C0001004B0000004B000104
:100AC000004A000100490001004800000048000100
:100AD00000470001004600000046000100450000FC
:100AE00000450001004400010043000000430001F4
:100AF00000420000004200010041000000410001EE
:100B000000400001003F0000003F0001003E0000E7
:100B1000003E0001003D0000003D0001003C0000DF
:100B2000003C0000003C0001003B0000003B0001D5
:100B3000003A0000003A00010039000000390001CD
:100B400000380000003800000038000100370000C5
:100B500000370001003600000036000000360001BA
:100B600000350000003500000035000100340000B1
:100B700000340000003400010033000000330000A6
:100B8000003300010032000000320000003200019A
:100B90000031000000310000003100010030000091
:100BA0000030000000300001002F0000002F000086
:100BB000002F0000002F0001002E0000002E00007A
:100BC000002E0001002D0000002D0000002D00006F
:100BD000002D0001002C0000002C0000002C000063
:100BE000002C0001002B0000002B0000002B000057
:100BF000002B0001002A0000002A0000002A00004B
:100C0000002A00010029000000290000002900003E
:100C10000029000000290001002800000028000031
:100C20000028000000280000002800010027000024
:100C30000027000000270000002700000027000117
:100C4000002600000026000000260000002600000C
:100C500000260001002500000025000000250000FE
:100C600000250000002500000025000100240000F0
:100C700000240000002400000024000000240001E3
:100C800000230000002300000023000000230000D8
:100C900000230000002300000023000100220000C8
:100CA00000220000002200000022000000220000BC
:100CB00000220001002100000021000000210000AE
:100CC000002100000021000000210000002100019F
:100CD0000020000000200000002000000020000094
:100CE0000020000000200000002000000020000183
:100CF000001F0000001F0000001F0000001F000078
:100D0000001F0000001F0000001F0001001E000067
:100D1000001E0000001E0000001E0000003A2045DA
:100D2000787472756465722073776974636865643A
:100D3000206F66662E204D415854454D50207472E8
:100D4000696767657265642021003A20457874728E
:100D500075646572207377697463686564206F6673
:100D6000662E204D494E54454D5020747269676778
:100D7000657265642021004572726F723A0000004E
:100D80002100240027002A002D003000330001013B
:100D90000000040107010A010000220025002800CC
:100DA0002B002E0031003400020100000501080173
:100DB0000B010505050507050808080802020202DF
:100DC0000A0A0808040404040101010101010101E7
:100DD0000303030303030303040707070C0C0C0CB2
:100DE0000C0C0C0C0202020206060606060606069B
:100DF0000B0B0B0B0B0B0B0B010210202008081028
:100E0000204010204080020102010804020101027A
:100E10000408102040808040201008040201800453
:100E200002018040201008040201080402010102AE
:100E300004081020408001020408102040800000B7
:100E40000A0B02090C0D0E08070304010000000044
:100E50000000000000000000000000000000000092
:100E6000000000000000000000001211100000004F
:100E70000000000000000000000000000000000072
:100E8000000000005072696E7465722073746F7098
:100E90007065642064756520746F206572726F726E
:100EA000732E2046697820746865206572726F72AF
:100EB00020616E6420757365204D39393920746F57
:100EC00020726573746172742E202854656D70658C
:100ED0007261747572652069732072657365742E12
:100EE0002053657420697420616674657220726590
:100EF0007374617274696E6729006F6B004E6F20A6
:100F00004C696E65204E756D6265722077697468F4
:100F100020636865636B73756D2C204C617374205E
:100F20004C696E653A20004E6F20436865636B73B1
:100F3000756D2077697468206C696E65206E756DBB
:100F40006265722C204C617374204C696E653A2086
:100F500000636865636B73756D206D69736D617493
:100F600063682C204C617374204C696E653A2000D4
:100F70004C696E65204E756D626572206973206ED6
:100F80006F74204C617374204C696E65204E756DD2
:100F90006265722B312C204C617374204C696E6534
:100FA0003A20004572726F723A004D313130005074
:100FB0004944204175746F74756E652066696E6969
:100FC00073686564212050757420746865204B70C7
:100FD0002C204B6920616E64204B6420636F6E731C
:100FE00074616E747320696E746F20436F6E6669EE
:100FF0006775726174696F6E2E68005049442041B4
:1010000075746F74756E65206661696C6564212006
:1010100074696D656F75740020403A006F6B2054E1
:101020003A006F6B20423A00504944204175746F7A
:1010300074756E65206661696C6564212054656D08
:10104000706572617475726520746F6F206869676E
:101050006800204B643A2000204B693A2000204B66
:10106000703A200020436C6173696320504944202A
:10107000002054753A2000204B753A2000206D6105
:10108000783A2000206D696E3A200020643A2000F2
:1010900020626961733A20002200556E6B6E6F7793
:1010A0006E20636F6D6D616E643A2022007A5F6D11
:1010B000696E3A2000795F6D696E3A2000785F6D45
:1010C000696E3A20005A3A00593A0020436F756E13
:1010D0007420583A2000453A005A3A00593A0058CC
:1010E0003A004649524D574152455F4E414D453AAF
:1010F0004D61726C696E2056313B20537072696E7F
:101100007465722F6772626C206D617368757020F0
:10111000666F722067656E36204649524D574152C0
:10112000455F55524C3A687474703A2F2F77777731
:101130002E6D656E64656C2D70617274732E636FB5
:101140006D2050524F544F434F4C5F5645525349B8
:101150004F4E3A312E30204D414348494E455F5461
:101160005950453A4D656E64656C2045585452554A
:101170004445525F434F554E543A310A0020423A9B
:101180000020453A00543A0020573A0020453A00E2
:10119000543A002042403A0020403A00202F003AC2
:1011A00000205400202F0020423A00202F006F6BB7
:1011B00020543A006563686F3A002569206D696EB6
:1011C0002C20256920736563005A5F6D6F76655F1B
:1011D000636F6D7000205A3A0020593A0020583A47
:1011E00000656E6473746F7073206869743A2000D0
:1011F0006563686F3A0011241FBECFEFD1E2DEBFF6
:10120000CDBF00E00CBF13E0A0E0B2E0ECEAF0EDEF
:1012100000E00BBF02C007900D92A83EB107D9F7BE
:101220002DE0A8EEB3E001C01D92AF37B207E1F7A1
:101230000E94523C0C9454680C9400004F925F92B0
:101240006F927F928F929F92AF92BF92CF92DF92D6
:10125000EF92FF920F931F93CF93DF93A62FFC0182
:1012600060838C010B571F4F7801E957FF4F9C019A
:1012700027573F4FEC01C557DF4FAC0143575F4F36
:101280002A01BC0161577F4F5B01045F1F4F68015A
:101290000E5F1F4F485F5F4F685F7F4F4B01875660
:1012A0009F4FA13009F488C0A23009F4B2C060ECAD
:1012B00070E0D7016D937C9361EC70E07183608383
:1012C00064E070E0D9016D937C9363E070E0798312
:1012D000688367E070E0D2016D937C93A5E06A2E8D
:1012E000712CD5016D927C92B6ECAB2EB12CD6014F
:1012F000AD92BC92A5ECCA2ED12CD801CD92DC9235
:10130000B4ECCB2ED12CDA01CD92DC92D4016D93CA
:101310007C9361E070E0DC016D937C93D7018D914B
:101320009C9162E0DC016C93D8018D919C91DC0171
:101330001C92DA018D919C9140E1DC014C9360811B
:101340007181DB014C9181E090E08C01D9010C901E
:1013500002C0000F111F0A94E2F79801242BDB0151
:101360002C9340815181DA012C91BC01088002C08C
:10137000660F771F0A94E2F7262B2C930190F081D9
:10138000E02D2081D2010C9002C0880F991F0A9491
:10139000E2F7822B8083DF91CF911F910F91FF9015
:1013A000EF90DF90CF90BF90AF909F908F907F9005
:1013B0006F905F904F90089568EC70E0D7016D9347
:1013C0007C9369EC70E07183608364E070E0D90124
:1013D0006D937C9363E070E07983688367E070E0ED
:1013E000D2016D937C93A5E06A2E712CD5016D928C
:1013F0007C92BEECAB2EB12CD601AD92BC92ADEC82
:10140000CA2ED12CD801CD92DC92BCECCB2ED12CA3
:101410007ACF60ED70E0D7016D937C9361ED70E061
:101420007183608364E070E0D9016D937C9363E025
:1014300070E07983688367E070E0D2016D937C93FC
:10144000A5E06A2E712CD5016D927C92B6EDAB2E83
:10145000B12CD601AD92BC92A5EDCA2ED12CD801EB
:10146000CD92DC92B4EDCB2ED12C4DCF282F30E095
:10147000F901E25CF14F9491F901E850F24F449187
:101480002E54324FF9012491222309F435C09923B7
:1014900011F191509231F8F4E92FF0E08827EC5ADD
:1014A000F54F8F4F0C942768850A890A660A7D0AD2
:1014B000810A6B0A8C0A920A960A9C0AA00AA40A5C
:1014C000AA0AAE0A6B0AB20AB80ABC0A8091800066
:1014D0008F7780938000E22FF0E0EE0FFF1FE85639
:1014E000F24FA591B4918FB7F894EC91611148C077
:1014F00040954E234C938FBF0895809180008F7D3F
:10150000E8CF80918000877FE4CF84B58F7784BD5A
:10151000E2CF84B58F7DFBCF8091B0008F77809331
:10152000B000D9CF8091B0008F7DF9CF809190002D
:101530008F7780939000CFCF809190008F7DF9CFEF
:1015400080919000877FF5CF8091A0008F77809366
:10155000A000C1CF8091A0008F7DF9CF8091A00025
:10156000877FF5CF809120018F7780932001B3CFC3
:10157000809120018F7DF9CF80912001877FF5CF69
:101580004E2BB8CFCF93DF9390E0FC01E850F24FA1
:1015900024918E54924FFC0184918823D1F090E0E5
:1015A000880F991FFC01E258F24FA591B491FC01FC
:1015B000E856F24FC591D49161110EC09FB7F894CF
:1015C0008C91E22FE0958E238C932881E223E8838F
:1015D0009FBFDF91CF9108958FB7F894EC91E22BE4
:1015E000EC938FBFF6CF1F93CF93DF93182FEB01B0
:1015F00061E0C8DF209731F460E0812FDF91CF9167
:101600001F9134CFCF3FD10511F461E0F6CFE12F28
:10161000F0E0E25CF14FE491E150E23108F0B3C058
:10162000F0E08827E95EF44F8F4F0C942768290B70
:10163000310B360B400B4A0BC30B540B5C0B640B8A
:101640006E0B780B820B910B9B0BC30BA50BAF0B97
:10165000B90B84B5806884BDC7BDDF91CF911F9160
:10166000089584B5806284BDC8BDF7CF80918000A5
:10167000806880938000D0938900C0938800EDCF6C
:1016800080918000806280938000D0938B00C09313
:101690008A00E3CF80918000886080938000D0939F
:1016A0008D00C0938C00D9CF8091B000806880936A
:1016B000B000C093B300D1CF8091B000806280931E
:1016C000B000C093B400C9CF80919000806880932F
:1016D0009000D0939900C0939800BFCF8091900064
:1016E000806280939000D0939B00C0939A00B5CF06
:1016F00080919000886080939000D0939D00C0936B
:101700009C00ABCF8091A00080688093A000809166
:10171000A0008F7B8093A000D093A900C093A80065
:101720009CCF8091A00080628093A000D093AB00FA
:10173000C093AA0092CF8091A00088608093A000FF
:10174000D093AD00C093AC0088CF80912001806819
:1017500080932001D0932901C09328017ECF8091EE
:101760002001806280932001D0932B01C0932A0135
:1017700074CF80912001886080932001D0932D0147
:10178000C0932C016ACFC038D1050CF03ECF34CFC6
:101790003FB7F89480918B0990918C09A0918D09A5
:1017A000B0918E0926B5A89B05C02F3F19F0019670
:1017B000A11DB11D3FBFBA2FA92F982F8827BC01AB
:1017C000CD01620F711D811D911D42E0660F771FD3
:1017D000881F991F4A95D1F708958F929F92AF92D3
:1017E000BF92CF92DF92EF92FF924B015C01D0DF6C
:1017F0006B017C01CDDF6C197D098E099F09683E64
:10180000734081059105B0F321E0821A9108A10887
:10181000B10888EEC80E83E0D81EE11CF11C8114CB
:101820009104A104B10431F7FF90EF90DF90CF90C5
:10183000BF90AF909F908F9008952FB7F8946091CC
:101840008709709188098091890990918A092FBF31
:1018500008951092400C10923F0C10923D0C109283
:101860003C0C109299092C981092420C1092410C49
:1018700010929A0910923D0C10923C0C10929A0909
:101880009FB7F894E2E0F1E080818F7D80839FBF75
:10189000089520911C0230911D0240911E0250912A
:1018A0001F0260E070E08FE793E40E94656560933B
:1018B0006709709368098093690990936A0908958C
:1018C0008F929F92AF92BF92EF92FF920F931F93CE
:1018D000CF93DF93C3EFDBE08EECE82E8CE0F82EA5
:1018E00005E01CE06991799189919991F7018190C6
:1018F0009190A190B1907F010E944161A501940156
:101900000E94A05D0E94D265F8016193719381935A
:1019100091938F01FCE0C330DF0721F7DF91CF9176
:101920001F910F91FF90EF90BF90AF909F908F907D
:10193000089581E080936E0C80911B0B90911C0B9D
:10194000A0911D0BB0911E0B80931F0B9093200B49
:10195000A093210BB093220BE3EAFFE0849141E0D6
:1019600050E0A091630DB091640DBA0100906D0D2F
:1019700002C0660F771F0A94E2F7882371F02C915A
:1019800030E026233723232BD1F3A0916F0DB091A4
:10199000700D8C9331968491E4CFE7EAF4E0849162
:1019A00061E070E0A091630DB091640DAB01009017
:1019B0006D0D02C0440F551F0A94E2F7882371F0A1
:1019C0002C9130E024233523232BD1F3A0916F0DEC
:1019D000B091700D8C9331968491E4CF8C9190E00E
:1019E00084239523892BD1F3E0916F0DF091700D35
:1019F0008AE0808308954F925F926F927F928F92D8
:101A00009F92AF92BF92CF92DF92EF92FF920F938D
:101A10001F93CF93DF9311DF80906A0C90906B0C33
:101A2000A0906C0CB0906D0C0091290C10912A0CB8
:101A300020912B0C30912C0C681979098A099B098B
:101A4000061717072807390708F064C0012B022B77
:101A5000032B09F45FC0F894FCDE5F9A8A9A9FB763
:101A6000F894809108018160809308019FBF129AC9
:101A700060E08CE087DDE3EAFFE0849141E050E044
:101A80008823D1F0A091630DB091640DBA0100904C
:101A90006D0D02C0660F771F0A94E2F72C9130E0BB
:101AA00026233723232BD1F3A0916F0DB091700D16
:101AB0008C9331968491E4CFE9E4F4E0849161E081
:101AC00070E0A091630DB091640DAB0100906D0DBD
:101AD00002C0440F551F0A94E2F7882371F02C913D
:101AE00030E024233523232BD1F3A0916F0DB09147
:101AF000700D8C9331968491E4CF8C9190E0842387
:101B00009523892BD1F3E0916F0DF091700D8AE050
:101B10008083FFCFC0902602D0902702E090280259
:101B2000F0902902C114D104E104F104D9F085DE5A
:101B3000681979098A099B09C616D706E806F906C5
:101B400088F4909156098091550998130BC05F9ABB
:101B50008A9A9FB7F8948091080181608093080168
:101B60009FBF129A6091310C90915509809156094E
:101B7000981781F08091550992E5899FF001112411
:101B8000E558FB4F608190915609981719F08F5FC7
:101B90008F70F9CF70E089E026DD8091420C8823B8
:101BA00009F4F7C0C0903302D0903402E0903502BF
:101BB000F090360260913F0C7091400C072E000CA3
:101BC000880B990B0E94436120E030E040E050E434
:101BD0000E9489649601A7010E943D6187FDD9C0DA
:101BE000C0915509912CA12CB12CD0E082E5882E12
:101BF000809156098C1709F456C08C2F90E0889E6E
:101C0000F001899EF00D1124ED5CFB4F4081518164
:101C100062817381452B462B472B81F4448155818A
:101C200066817781452B462B472B41F440855185B2
:101C300062857385452B462B472B91F1889E800149
:101C4000899E100D11240D5C1B4FF801648575856C
:101C5000868597850E9443612B013C01F8016089CC
:101C60007189828993890E9441619B01AC01C30102
:101C7000B2010E946565F80122A133A144A155A1DA
:101C80000E94A05D3B018C01292D3A2D4B2D5D2F2B
:101C90000E94B466181624F4962CA72CB02ED12FCF
:101CA000CF5FCF70A5CF20912A0230912B024091B7
:101CB0002C0250912D02692D7A2D8B2D9D2F0E9483
:101CC000A05D9601A7010E9489648B01D82FC92FBE
:101CD0009B01482F592FB601C7010E94B466181600
:101CE0001CF06801ED2EFC2E00912E0210912F02A7
:101CF000D0913002C09131029601A701B8018D2F19
:101D00009C2F0E943D6187FD03C08601DE2DCF2DF3
:101D1000C090FC03D090FD03E090FE03F090FF0321
:101D200098014D2F5C2FC701B6010E94B4661816AA
:101D3000E4F428E431EE4AE75FE3C701B6010E940C
:101D4000A05D6B017C0120E037ED43EA5CE3B80164
:101D50008D2F9C2F0E94A05D9B01AC01C701B60195
:101D60000E9489648B01D82FC92FC801AD2FBC2FC9
:101D70008093FC039093FD03A093FE03B093FF03B5
:101D8000B8018D2F9C2F0E94CD657093400C6093FD
:101D90003F0CDF91CF911F910F91FF90EF90DF905B
:101DA000CF90BF90AF909F908F907F906F905F90FB
:101DB0004F900895CF92DF92EF92FF92CF93DF93EF
:101DC000EC01C0900004D0900104E0900204F09077
:101DD0000304A7019601688179818A819B810E9411
:101DE0003D6187FF04C0C882D982EA82FB82C0902D
:101DF0000404D0900504E0900604F0900704A701C5
:101E000096016C817D818E819F810E943D6187FF5B
:101E100004C0CC82DD82EE82FF82C0900804D090A4
:101E20000904E0900A04F0900B04A701960168856C
:101E300079858A859B850E943D6187FF04C0C8869D
:101E4000D986EA86FB86C0900002D0900102E0901D
:101E50000202F0900302A7019601688179818A81CC
:101E60009B810E94B466181624F4C882D982EA8243
:101E7000FB82C0900402D0900502E0900602F09030
:101E80000702A70196016C817D818E819F810E944E
:101E9000B466181624F4CC82DD82EE82FF82C090F4
:101EA0000802D0900902E0900A02F0900B02A7010C
:101EB0009601688579858A859B850E94B466181687
:101EC00024F4C886D986EA86FB86DF91CF91FF90FD
:101ED000EF90DF90CF900895B0DC60936A0C709320
:101EE0006B0C80936C0C90936D0CE6E4F4E08491A1
:101EF00061E070E0A091630DB091640DAB010090C2
:101F00006D0D02C0440F551F0A94E2F7882371F04B
:101F10002C9130E024233523232BD1F3A0916F0D96
:101F2000B091700D8C9331968491E4CF8C9190E0B8
:101F300084239523892BD1F3E0916F0DF091700DDF
:101F40008AE080830895AF92BF92CF92DF92EF92A2
:101F5000FF920F931F93CF93DF93CDB7DEB7E09738
:101F60000FB6F894DEBF0FBECDBF80E1EEE3F2E026
:101F7000DE01119601900D928A95E1F780E1EEE481
:101F8000F2E0DE01519601900D928A95E1F780E131
:101F9000EEE5F2E0DE01919601900D928A95E1F76F
:101FA000CE0101965C016EEC7CE0DE01519645E1CC
:101FB0005CE09E012F5D3F4F83EF9BE08D01F501BB
:101FC000C190D190E190F1905F01FB01C192D1925B
:101FD000E192F192BF01CD90DD90ED90FD90FA017C
:101FE000C192D192E192F192AF01F901C190D190E9
:101FF000E190F1909F01FC01C192D192E192F192A6
:10200000CF01A016B106D9F65BDC80E090E0AAE72C
:10201000B4E48093EF0B9093F00BA093F10BB0938B
:10202000F20B80E090E8ABE3B5E48093EB0B909388
:10203000EC0BA093ED0BB093EE0B1092E70B10920C
:10204000E80B1092E90B1092EA0B80E29EE4A0E00C
:10205000B0E08093DF0B9093E00BA093E10BB09383
:10206000E20B1092E30B1092E40B1092E50B10922E
:10207000E60B80E090E0A0E2B2E48093DB0B90936B
:10208000DC0BA093DD0BB093DE0B1092D70B1092FC
:10209000D80B1092D90B1092DA0B8DEC9CECACECB7
:1020A000BEE38093250C9093260CA093270CB0934D
:1020B000280C1092500C1092510C1092520C10924D
:1020C000530C10924C0C10924D0C10924E0C10921E
:1020D0004F0C1092480C1092490C10924A0C10921E
:1020E0004B0C8AE999E9A1EBB1E48093200290932B
:1020F0002102A0932202B093230285E894EFA0E18D
:10210000BEE380931C0290931D02A0931E02B09325
:102110001F0280E190E7A9E5B4E480931802909350
:102120001902A0931A02B0931B02B3DB80E090E087
:10213000A0E8BFE38093140290931502A0931602C7
:10214000B0931702E5E5F3E0849141E050E0A091FF
:10215000630DB091640DBA0100906D0D02C0660F61
:10216000771F0A94E2F7882371F02C9130E0262340
:102170003723232BD1F3A0916F0DB091700D8C9369
:1021800031968491E4CFE3E3F3E0849161E070E081
:10219000A091630DB091640DAB0100906D0D02C074
:1021A000440F551F0A94E2F7882371F02C9130E018
:1021B00024233523232BD1F3A0916F0DB091700D03
:1021C0008C9331968491E4CF8C9190E08423952375
:1021D000892BD1F3E0916F0DF091700D8AE080832F
:1021E000E0960FB6F894DEBF0FBECDBFDF91CF9162
:1021F0001F910F91FF90EF90DF90CF90BF90AF9025
:1022000008952F923F924F925F926F927F928F929A
:102210009F92AF92BF92CF92DF92EF92FF920F9375
:102220001F93CF93DF93CDB7DEB7A0970FB6F89487
:10223000DEBF0FBECDBF611571058105910591F51A
:10224000E091630DF091640D21E030E000906D0DA0
:1022500002C0220F331F0A94E2F7808190E08223AC
:102260009323892BD1F3E0916F0DF091700D80E3F2
:102270008083A0960FB6F894DEBF0FBECDBFDF916E
:10228000CF911F910F91FF90EF90DF90CF90BF9073
:10229000AF909F908F907F906F905F904F903F9006
:1022A0002F9008958E010F5F1F4F812C912C5401A8
:1022B0001801442E512C712C612CA30192010E9413
:1022C0004D64750164018FEFC81AD80AE80AF80A4C
:1022D000F80161938F01B901CA016115710581058A
:1022E000910561F541E050E0F101E80DF91D8081B3
:1022F0008A3038F5805DE091630DF091640DBA018C
:1023000000906D0D02C0660F771F0A94E2F72081DE
:1023100030E026233723232BD1F3E0916F0DF0918A
:10232000700D8083F1E08F1A9108A108B1088FEF3A
:1023300088169806A806B806B9F69BCF460157013D
:10234000BCCF895CD8CF97FF20C0E091630DF0919E
:10235000640D41E050E000906D0D02C0440F551F28
:102360000A94E2F7208130E024233523232BD1F394
:10237000E0916F0DF091700D2DE220839095809586
:10238000709561957F4F8F4F9F4F4AE03ACF8F9264
:102390009F92AF92BF92CF92DF92EF92FF92CF9334
:1023A0006B017C01B42E20E030E0A9010E943D6168
:1023B00087FF1DC0E091630DF091640D21E030E0D6
:1023C00000906D0D02C0220F331F0A94E2F7808146
:1023D00090E082239323892BD1F3E0916F0DF0914C
:1023E000700D8DE28083F7FAF094F7F8F094C0E076
:1023F00060E070E080E09FE3CB1541F020E030E04A
:1024000040E251E40E946565CF5FF6CFA7019601D7
:102410000E9489646B017C010E94D2654B015C01C2
:102420004AE0EFDECC2309F445C0EDEAF3E041E0F9
:1024300050E06191611126C0C501B4010E94416163
:102440009B01AC01C701B6010E948864C15090F1A4
:1024500020E030E040E251E40E94A05D4B015C01CD
:102460000E94CD656B01770FEE08FF08C701B6012A
:102470006ADFC701B6010E9443619B01AC01C5013F
:10248000B401E2CFA091630DB091640D9A01009068
:102490006D0D02C0220F331F0A94E2F78C9190E079
:1024A00082239323892BD1F3A0916F0DB091700DEE
:1024B0006C93BFCFCF91FF90EF90DF90CF90BF9004
:1024C000AF909F908F900895EF92FF920F931F937C
:1024D0007C01CB01BA01F701449101E010E04423F3
:1024E000E9F0A091630DB091640DF80100906D0DBD
:1024F00002C0EE0FFF1F0A94E2F72C9130E02E236A
:102500003F23232BD1F3E0916F0DF091700D4083A9
:10251000FFEFEF1AFF0AF7014491E1CF42E01F916C
:102520000F91FF90EF9033CFEF92FF920F931F9395
:102530007C01CB01BA01F701449101E010E0442392
:10254000E9F0A091630DB091640DF80100906D0D5C
:1025500002C0EE0FFF1F0A94E2F72C9130E02E2309
:102560003F23232BD1F3E0916F0DF091700D408349
:10257000FFEFEF1AFF0AF7014491E1CF4AE01F9104
:102580000F91FF90EF903DCECF93DF93C5E5D3E061
:10259000FE01249141E050E0A091630DB091640DE3
:1025A000BA0100906D0D02C0660F771F0A94E2F722
:1025B000222371F08C9190E086239723892BD1F30D
:1025C000A0916F0DB091700D2C9331962491E4CFB2
:1025D000E3E2F3E0849161E070E0A091630DB091DB
:1025E000640DAB0100906D0D02C0440F551F0A949D
:1025F000E2F7882371F02C9130E024233523232B3C
:10260000D1F3A0916F0DB091700D8C9331968491A0
:10261000E4CF8C9190E084239523892BD1F3E09132
:102620006F0DF091700D8AE08083FE012491E5E545
:10263000F3E041E050E02223D1F0A091630DB0918E
:10264000640DBA0100906D0D02C0660F771F0A94E9
:10265000E2F78C9190E086239723892BD1F3A09108
:102660006F0DB091700D2C9331962491E4CF409171
:10267000CE0C5091CF0C6091D00C7091D10C8BE1AD
:1026800093E022DF4091D20C5091D30C6091D40C96
:102690007091D50C88E193E017DF4091D60C5091F2
:1026A000D70C6091D80C7091D90C85E193E00CDFC8
:1026B0004091DA0C5091DB0C6091DC0C7091DD0CD8
:1026C00082E193E001DFE091630DF091640D21E080
:1026D00030E000906D0D02C0220F331F0A94E2F724
:1026E000808190E082239323892BD1F3E0916F0DB9
:1026F000F091700D8AE08083FE012491E5E5F3E01E
:1027000041E050E0A091630DB091640DBA010090DA
:102710006D0D02C0660F771F0A94E2F7222371F055
:102720008C9190E086239723892BD1F3A0916F0D94
:10273000B091700D2C9331962491E4CFE8EFF2E044
:10274000849161E070E0A091630DB091640DAB01E4
:1027500000906D0D02C0440F551F0A94E2F78823C4
:1027600071F02C9130E024233523232BD1F3A09159
:102770006F0DB091700D8C9331968491E4CF8C9154
:1027800090E084239523892BD1F3E0916F0DF09194
:10279000700D8AE08083FE012491E5E5F3E041E0DD
:1027A00050E02223D1F0A091630DB091640DBA01E5
:1027B00000906D0D02C0660F771F0A94E2F78C91AE
:1027C00090E086239723892BD1F3A0916F0DB091D0
:1027D000700D2C9331962491E4CF4091150C5091BB
:1027E000160C6091170C7091180C8FEE92E06CDE55
:1027F0004091190C50911A0C60911B0C70911C0C9B
:102800008CEE92E061DE40911D0C50911E0C6091A7
:102810001F0C7091200C89EE92E056DE4091210C45
:102820005091220C6091230C7091240C86EE92E062
:102830004BDEE091630DF091640D21E030E00090FB
:102840006D0D02C0220F331F0A94E2F7808190E0E1
:1028500082239323892BD1F3E0916F0DF091700DBA
:102860008AE08083FE012491E5E5F3E041E050E059
:10287000A091630DB091640DBA0100906D0D02C07E
:10288000660F771F0A94E2F7222371F08C9190E093
:1028900086239723892BD1F3A0916F0DB091700DF2
:1028A0002C9331962491E4CFE8ECF2E0849161E03E
:1028B00070E0A091630DB091640DAB0100906D0DBF
:1028C00002C0440F551F0A94E2F7882371F02C913F
:1028D00030E024233523232BD1F3A0916F0DB09149
:1028E000700D8C9331968491E4CF8C9190E0842389
:1028F0009523892BD1F3E0916F0DF091700D8AE053
:102900008083FE012491E5E5F3E041E050E02223DD
:10291000D1F0A091630DB091640DBA0100906D0DDE
:1029200002C0660F771F0A94E2F78C9190E086232D
:102930009723892BD1F3A0916F0DB091700D2C933B
:1029400031962491E4CF4091F30B5091F40B6091B8
:10295000F50B7091F60B8FEB92E0E6DD4091F70BF3
:102960005091F80B6091F90B7091FA0B8CEB92E09F
:10297000DBDD4091FB0B5091FC0B6091FD0B7091E6
:10298000FE0B89EB92E0D0DD4091FF0B5091000CE3
:102990006091010C7091020C86EB92E0C5DDE09134
:1029A000630DF091640D21E030E000906D0D02C0E8
:1029B000220F331F0A94E2F7808190E08223932351
:1029C000892BD1F3E0916F0DF091700D8AE0808337
:1029D000FE012491E5E5F3E041E050E0A091630DB4
:1029E000B091640DBA0100906D0D02C0660F771FA3
:1029F0000A94E2F7222371F08C9190E086239723CA
:102A0000892BD1F3A0916F0DB091700D2C9331965D
:102A10002491E4CFE1E8F2E0849161E070E0A091DC
:102A2000630DB091640DAB0100906D0D02C0440FB9
:102A3000551F0A94E2F7882371F02C9130E024238B
:102A40003523232BD1F3A0916F0DB091700D8C9392
:102A500031968491E4CF8C9190E084239523892B47
:102A6000D1F3E0916F0DF091700D8AE08083FE014B
:102A70002491E5E5F3E041E050E02223D1F0A0917C
:102A8000630DB091640DBA0100906D0D02C0660F28
:102A9000771F0A94E2F78C9190E086239723892B85
:102AA000D1F3A0916F0DB091700D2C9331962491BC
:102AB000E4CF4091EF0B5091F00B6091F10B7091CE
:102AC000F20B88E792E000DD4091EB0B5091EC0BAC
:102AD0006091ED0B7091EE0B85E792E0F5DCE091F3
:102AE000630DF091640D21E030E000906D0D02C0A7
:102AF000220F331F0A94E2F7808190E08223932310
:102B0000892BD1F3E0916F0DF091700D8AE08083F5
:102B1000FE012491E5E5F3E041E050E0A091630D72
:102B2000B091640DBA0100906D0D02C0660F771F61
:102B30000A94E2F7222371F08C9190E08623972388
:102B4000892BD1F3A0916F0DB091700D2C9331961C
:102B50002491E4CFE2ECF1E0849161E070E0A09197
:102B6000630DB091640DAB0100906D0D02C0440F78
:102B7000551F0A94E2F7882371F02C9130E024234A
:102B80003523232BD1F3A0916F0DB091700D8C9351
:102B900031968491E4CF8C9190E084239523892B06
:102BA000D1F3E0916F0DF091700D8AE08083FE010A
:102BB0002491E5E5F3E041E050E02223D1F0A0913B
:102BC000630DB091640DBA0100906D0D02C0660FE7
:102BD000771F0A94E2F78C9190E086239723892B44
:102BE000D1F3A0916F0DB091700D2C93319624917B
:102BF000E4CF4091E70B5091E80B6091E90B7091A5
:102C0000EA0B89EB91E060DC4091E30B5091E40B1F
:102C10006091E50B7091E60B86EB91E055DC4091FD
:102C2000DF0B5091E00B6091E10B7091E20B83EBB5
:102C300091E07ADC4091DB0B5091DC0B6091DD0B75
:102C40007091DE0B80EB91E03FDC4091D70B50910F
:102C5000D80B6091D90B7091DA0B8DEA91E034DCDE
:102C60004091250C5091260C6091270C7091280CF6
:102C70008AEA91E029DCE091630DF091640D21E096
:102C800030E000906D0D02C0220F331F0A94E2F76E
:102C9000808190E082239323892BD1F3E0916F0D03
:102CA000F091700D8AE08083FE012491E5E5F3E068
:102CB00041E050E0A091630DB091640DBA01009025
:102CC0006D0D02C0660F771F0A94E2F7222371F0A0
:102CD0008C9190E086239723892BD1F3A0916F0DDF
:102CE000B091700D2C9331962491E4CFE8E9F1E096
:102CF000849161E070E0A091630DB091640DAB012F
:102D000000906D0D02C0440F551F0A94E2F788230E
:102D100071F02C9130E024233523232BD1F3A091A3
:102D20006F0DB091700D8C9331968491E4CF8C919E
:102D300090E084239523892BD1F3E0916F0DF091DE
:102D4000700D8AE08083FE012491E5E5F3E041E027
:102D500050E02223D1F0A091630DB091640DBA012F
:102D600000906D0D02C0660F771F0A94E2F78C91F8
:102D700090E086239723892BD1F3A0916F0DB0911A
:102D8000700D2C9331962491E4CF4091480C5091D2
:102D9000490C60914A0C70914B0C8FE891E094DBE8
:102DA00040914C0C50914D0C60914E0C70914F0C19
:102DB0008CE891E089DB4091500C5091510C60916E
:102DC000520C7091530C89E891E07EDBE091630D29
:102DD000F091640D21E030E000906D0D02C0220FF3
:102DE000331F0A94E2F7808190E082239323892B9A
:102DF000D1F3E0916F0DF091700D8AE08083FE01B8
:102E00002491E5E5F3E041E050E0A091630DB0913D
:102E1000640DBA0100906D0D02C0660F771F0A9411
:102E2000E2F7222371F08C9190E086239723892B7F
:102E3000D1F3A0916F0DB091700D2C933196249128
:102E4000E4CFEBE7F1E0849161E070E0A091630DE5
:102E5000B091640DAB0100906D0D02C0440F551F81
:102E60000A94E2F7882371F02C9130E02423352373
:102E7000232BD1F3A0916F0DB091700D8C933196EF
:102E80008491E4CF8C9190E084239523892BD1F316
:102E9000E0916F0DF091700D8AE08083FE01C49186
:102EA000E5E5F3E021E030E0CC23D1F0A091630D23
:102EB000B091640DA90100906D0D02C0440F551F23
:102EC0000A94E2F78C9190E084239523892BD1F327
:102ED000A0916F0DB091700DCC933196C491E4CF59
:102EE00040912002509121026091220270912302B0
:102EF00081E791E0E9DA2DEB37E346E05EE36091AC
:102F00001C0270911D0280911E0290911F020E946E
:102F10006565AB01BC018EE691E0D6DA2DEB37E3B7
:102F200046E05EE3609118027091190280911A02E6
:102F300090911B020E94A05DAB01BC018BE691E069
:102F4000C3DAE091630DF091640D21E030E0009070
:102F50006D0D02C0220F331F0A94E2F7808190E0CA
:102F600082239323892BD1F3E0916F0DF091700DA3
:102F70008AE08083DF91CF910895BC0190E080E0EA
:102F80004AE03FD9E091630DF091640D21E030E01B
:102F900000906D0D02C0220F331F0A94E2F780816A
:102FA00090E082239323892BD1F3E0916F0DF09170
:102FB000700D8DE08083E091630DF091640D21E050
:102FC00030E000906D0D02C0220F331F0A94E2F72B
:102FD000808190E082239323892BD1F3E0916F0DC0
:102FE000F091700D8AE0808308956091740970916A
:102FF0007509072E000C880B990B0E94436120E095
:1030000030E04AEF5EE30E94A05D20E030E040E85F
:103010005DE30E94A05D20E030E0A9010E94896488
:103020006093380C7093390C80933A0C90933B0C5E
:103030001092340C1092350C1092360C1092370C02
:103040008FB7F894109298098FBF08954F925F92AE
:103050006F927F928F929F92AF92BF92CF92DF92A8
:10306000EF92FF920F931F93CF93DF9300D01F92A5
:103070001F92CDB7DEB780919809882309F485C1E6
:10308000B4DFC090380CD090390CE0903A0CF0903E
:103090003B0C20913F0C3091400C3A832983B901BD
:1030A000330F880B990B0E944361A70196010E9480
:1030B00088644B015C0120E030E040E251E40E9472
:1030C000B466181654F481E080937309812C912C16
:1030D0009FE7A92E93E4B92ED8C020E030E040E26B
:1030E00051ECC501B4010E943D6187FD04C0898196
:1030F0009A81892B39F481E080937309812C912C7A
:103100005401C3C080917309882351F010926F0954
:10311000109270091092710910927209109273093D
:1031200020912002309121024091220250912302ED
:10313000C501B4010E94A05D2B013C0120916F09E3
:10314000309170094091710950917209C501B40123
:103150000E9489648B018D83998380906B09909084
:103160006C09A0906D09B0906E099401A5010E94B0
:103170003D6187FD14C08090670990906809A09018
:103180006909B0906A099401A501B8018D819981FE
:103190000E94B46618161CF04801AD80B980C401C5
:1031A000D50180936F0990937009A0937109B09332
:1031B000720920911C0230911D0240911E02509113
:1031C0001F02B401C5010E94A05D69837A838B83CD
:1031D0009C83209163093091640940916509509165
:1031E0006609C701B6010E948864209118023091D7
:1031F000190240911A0250911B020E94A05D20ED1D
:103200003CEC4CE45DE30E94A05D4B015C0123E3D8
:1032100033E343E75FE360915F0970916009809158
:103220006109909162090E94A05D9B01AC01C501FA
:10323000B4010E9489644B015C0180925F09909205
:103240006009A0926109B092620929813A814B819B
:103250005C81C301B2010E948964A50194010E94AE
:1032600088644B015C0120E030E0A9010E943D61CF
:1032700087FD44CF20E030E04FE753E4C501B401BF
:103280000E94B46618160CF421CFC0926309D09244
:103290006409E0926509F092660920E030E0A90136
:1032A000C701B6010E94B46618160CF084C0609184
:1032B000100270911102072E000C880B990B0E94CE
:1032C00043619B01AC01C701B6010E943D6187FFCC
:1032D00072C0C501B4010E94CD6575956795609374
:1032E00099090E941D0C00915B0910915C092091C5
:1032F0005D0930915E09601B710B820B930B653C7D
:1033000079408105910520F120E030E044E352E46A
:10331000C701B6010E94B46618160CF44FC019829A
:1033200061E08AE00E94C20A69818AE00E94360A4E
:103330008981682F70E08AE00E94F30A0E941D0CC8
:1033400060935B0970935C0980935D0990935E09BB
:103350000E941D0C0091570910915809209159099C
:1033600030915A09601B710B820B930B68387341C3
:103370008105910550F00E941D0C609357097093D0
:1033800058098093590990935A090F900F900F9004
:103390000F900F90DF91CF911F910F91FF90EF90C1
:1033A000DF90CF90BF90AF909F908F907F906F9065
:1033B0005F904F9008951092990993CF3EEF398313
:1033C000AFCF9091560980915509981721F03EDEB4
:1033D0000E94FB0CF6CF0895F4DF5F9A8A9A9FB79C
:1033E000F894E8E0F1E08081816080839FBF129AC9
:1033F00008958091610D9091620D9093600D80937E
:103400005F0DEDE3F4E0849141E050E08823D1F0DA
:10341000A091630DB091640DBA0100906D0D02C0D2
:10342000660F771F0A94E2F72C9130E026233723AA
:10343000232BD1F3A0916F0DB091700D8C93319629
:103440008491E4CF60911B0B70911C0B80911D0B3C
:1034500090911E0B6F5F7F4F8F4F9F4F0E94A31164
:10346000E091630DF091640D21E030E000906D0D6E
:1034700002C0220F331F0A94E2F7808190E082237A
:103480009323892BD1F3E0916F0DF091700D8AE0B9
:1034900080830C946C0FCF92DF92EF92FF920F9388
:1034A0001F93CF93DF938AE9E82E8CE0F82E0EEC81
:1034B0001CE0F8012081318142815381F701608154
:1034C0007181828193810E94A05D0E946167CEEB31
:1034D000DCE0688379838A839B83F80124813581CA
:1034E00046815781F70164817581868197810E94A9
:1034F000A05D0E9461676C837D838E839F83F7014B
:10350000C084D184E284F384F8012085318542852A
:103510005385C701B6010E94A05D0E94616768875C
:1035200079878A879B87F801248535854685578565
:10353000C701B6010E94A05D0E9461676C877D870C
:103540008E879F878FB7F894488159816A817B81E4
:10355000EAE8FCE040835183628373834C815D81A0
:103560006E817F814483558366837783488559853F
:103570006A857B8540875187628773874C855D8527
:103580006E857F8544875587668777878FBF1092C2
:10359000BA0C1092BB0C1092BC0C1092BD0CEAEA53
:1035A000FCE010821182128213821482158216822C
:1035B0001782108611861286138614861586168643
:1035C0001786DF91CF911F910F91FF90EF90DF90C1
:1035D000CF900895682F880F770B2091860C30913B
:1035E000870C40E6429FC001439F900D11248556F1
:1035F000964F0E9449689C019093040C8093030CA1
:1036000081E0232B09F480E008958091030C9091D0
:10361000040C70E060E001960C94545ECF92DF924F
:10362000EF92FF920F931F93CF938C018091410CE7
:1036300080933E0C84E5CEDFC82F81110AC0C0E024
:103640008C2FCF911F910F91FF90EF90DF90CF9033
:103650000895DBDF0E94D26560933E0C662379F308
:10366000E4EBF1E1849141E050E0E090630DF090F3
:10367000640D6A0100906D0D02C0CC0CDD1C0A9433
:10368000E2F7882379F0D7012C9130E02C213D21FD
:10369000232BC9F3A0916F0DB091700D8C933196CF
:1036A0008491E3CF0936110509F448C00D361105A0
:1036B00029F10836110509F061C0EEE1F3E041E0BF
:1036C00050E021910091630D1091640D7A010090FA
:1036D0006D0D02C0EE0CFF1C0A94E2F7222309F4E0
:1036E0004DC0D8018C9190E08E219F21892BC9F388
:1036F000A0916F0DB091700D2C93E3CFE0EFF2E04D
:1037000041E050E021910091630D1091640D7A0128
:1037100000906D0D02C0EE0CFF1C0A94E2F722230C
:1037200069F1D8018C9190E08E219F21892BC9F3FA
:10373000A0916F0DB091700D2C93E4CFE7E0F3E012
:1037400041E050E021910091630D1091640D7A01E8
:1037500000906D0D02C0EE0CFF1C0A94E2F72223CC
:1037600069F0D8018C9190E08E219F21892BC9F3BB
:10377000A0916F0DB091700D2C93E4CFE091630D8B
:10378000F091640D21E030E000906D0D02C0220F39
:10379000331F0A94E2F7808190E082239323892BE0
:1037A000D1F3E0916F0DF091700D6083E091630DA6
:1037B000F091640D21E030E000906D0D02C0220F09
:1037C000331F0A94E2F7808190E082239323892BB0
:1037D000D1F3E0916F0DF091700D8AE0808330CFCE
:1037E0008F929F92AF92BF92CF92DF92EF92FF9211
:1037F0000F931F93CF93DF938CEEC82E82E0D82EC9
:103800009AE9E92E9CE0F92E04E51CE0D0E0C0E046
:10381000F60181916F01DEDE882309F44CC0F5DEEC
:103820004B015C01FE01E35DF34F6081611102C059
:103830006091470C70E090E080E00E944361F701E6
:1038400020813181428153810E94A05DA5019401B4
:103850000E948964F8016083718382839383219637
:10386000F4E0EF0EF11C0C5F1F4FC430D10581F660
:1038700086E4B0DE882391F0C8DE6B017C0120E095
:1038800030E0A9010E94B466181644F4C0923A02CE
:10389000D0923B02E0923C02F0923D02DF91CF9148
:1038A0001F910F91FF90EF90DF90CF90BF90AF905E
:1038B0009F908F900895F70180819181A281B381BB
:1038C000F80180839183A283B383C9CF89DF89E420
:1038D00081DE8823B9F099DE6093F0037093F103E1
:1038E0008093F2039093F3038AE474DE882399F0C3
:1038F0008CDE6093F4037093F5038093F60390934A
:10390000F70308951092F0031092F1031092F2035E
:103910001092F303E9CF1092F4031092F503109282
:10392000F6031092F70308958091030C9091040C14
:103930004AE050E070E060E001960C94A95F4F927D
:103940005F926F927F92AF92BF92CF92DF92EF928F
:10395000FF920F931F93CF93DF938C01EB01FC0138
:1039600046A057A060A471A4AEA0BFA0C8A4D9A4CB
:103970009501A601C301B2010E943D6187FF3DC0D0
:10398000A3019201C301B2010E94A05D2B013C0181
:10399000F80162A973A984A995A990589B01AC016B
:1039A0000E948964F80126A537A540A951A90E9463
:1039B000A05D9B01AC01C301B2010E9488640E941A
:1039C0009F677B018C019B01AC01B501C6010E9480
:1039D0003D6187FF02C0750186019701A801B5010D
:1039E000C6010E943D61882341F0C701D8018EA322
:1039F0009FA3A8A7B9A781E08EABDF91CF911F91BC
:103A00000F91FF90EF90DF90CF90BF90AF907F909D
:103A10006F905F904F9008954F925F926F927F9258
:103A20008F929F92AF92BF92CF92DF92EF92FF92CE
:103A30000F931F93CF93DF93CDB7DEB76A970FB67F
:103A4000F894DEBF0FBECDBF9A8F898F2A013B014C
:103A50005901DC01D8966D917D918D919C91DB97F8
:103A60000E9441616B017C01A30192010E94A05D53
:103A70000E944F656D877E878F87988BA50198017F
:103A8000C701B6010E94A05D0E944F65698B7A8BC9
:103A90008B8B9C8BE98DFA8DEC5BFF4F2081318104
:103AA000428153812D833E834F835887CA01B901D8
:103AB0000E94436169837A838B839C83A98DBA8D2D
:103AC000DC966D917D918D919C91DF970E94416173
:103AD00069877A878B879C8720E030E0A90169811C
:103AE0007A818B819C810E943D61882309F461C1A8
:103AF000A7019601C701B6010E94A05D4B015C01C0
:103B000029853A854B855C85CA01B9010E94A05D73
:103B10009B01AC01C501B4010E9488644B015C01AA
:103B200029813A814B815C81CA01B9010E94896473
:103B30009B01AC01C501B4010E9465650E944F65FF
:103B40000E94CD652B013C016D817E818F8198851E
:103B500090958095709561957F4F8F4F9F4F0E94F4
:103B600043614B015C01E98DFA8DE05CFF4F6081A0
:103B70007181828193810E9441616D837E838F83F5
:103B8000988720E030E0A901C501B4010E943D61A1
:103B9000882309F412C12D813E814F815885CA01C5
:103BA000B9010E94A05D6D8B7E8B8F8B988FA701D2
:103BB0009601C701B6010E94A05D9B01AC016D8911
:103BC0007E898F89988D0E9488646B017C01A50194
:103BD0009401C501B4010E9489649B01AC01C70135
:103BE000B6010E9465650E94FE65E98DFA8D8088A8
:103BF0009188A288B38875016401C418D508E608C5
:103C0000F7080E94CD65A7019601261B370B480BCC
:103C1000590BDA01C901B7FF67C020E030E0A90104
:103C200069817A818B819C810E943D61882309F49E
:103C3000C8C0C501B4010E9441616B017C012981AA
:103C40003A814B815C81CA01B9010E9489649B0160
:103C5000AC01C701B6010E94A05D6B017C01298502
:103C60003A854B855C85CA01B9010E94A05D9B0124
:103C7000AC01C701B6010E9488646B017C012D81F3
:103C80003E814F815885CA01B9010E94A05D9B0108
:103C9000AC01C701B6010E9489646B017C0120E080
:103CA00030E040E850E469817A818B819C810E94F8
:103CB000A05D9B01AC01C701B6010E9465650E9431
:103CC0004F650E94CD652B013C0177FE03C0412C5E
:103CD000512C3201481459046A047B0410F0240169
:103CE000350180E090E0DC01FFB6F894E98DFA8DB3
:103CF000E45BFF4F2081211144C0E98DFA8D448A95
:103D0000558A668A778A840D951DA61DB71D808FFA
:103D1000918FA28FB38F6D857E858F8598890E9444
:103D2000D265683771058105910520F468E770E078
:103D300080E090E0A98DBA8DDC966D937D938D9394
:103D40009C93DF9769897A898B899C890E94D265C7
:103D5000E98DFA8DE05CFF4FFA83E983462F572FF8
:103D6000BC01483751056105710520F448E750E072
:103D700060E070E0A981BA814D935D936D937C936F
:103D80001397FFBE6A960FB6F894DEBF0FBECDBF85
:103D9000DF91CF911F910F91FF90EF90DF90CF9027
:103DA000BF90AF909F908F907F906F905F904F905B
:103DB000089560E070E0CB01C1CE60E070E0CB011F
:103DC00012CF60E070E0CB017ACF2F923F924F92FA
:103DD0005F926F927F928F929F92AF92BF92CF929B
:103DE000DF92EF92FF920F931F93CF93DF93CDB7A4
:103DF000DEB7C256D1090FB6F894DEBF0FBECDBFF5
:103E00001C012B013A014901EBA2F9A20FA318A74B
:103E1000DEAECDAEA9AE809156098F5F62968FAFB0
:103E20006297803119F462961FAE629762962FAD49
:103E30006297022F220F110B8091550980171106EE
:103E400021F404D90E94FB0CF7CF2091CE0C3091C5
:103E5000CF0C4091D00C5091D10CD1016D917D913E
:103E60008D919C910E94A05D0E94616725966CAF28
:103E70007DAF8EAF9FAF25972091D20C3091D30CA0
:103E80004091D40C5091D50CF201608171818281F6
:103E900093810E94A05D0E94616766966CAF7DAFC2
:103EA0008EAF9FAF66972091D60C3091D70C409182
:103EB000D80C5091D90CD3016D917D918D919C912D
:103EC0000E94A05D0E9461676A966CAF7DAF8EAF65
:103ED0009FAF6A972091DA0C3091DB0C4091DC0C9B
:103EE0005091DD0CF40160817181828193810E9487
:103EF000A05D0E9461676E966CAF7DAF8EAF9FAF85
:103F00006E97F0915609A396FFAFA3972F2E312CF1
:103F100022E5F29FF0011124E158FB4F10828091BD
:103F2000BE0C9091BF0CA091C00CB091C10C89A7A0
:103F30009AA7ABA7BCA72596CCACDDACEEACFFAC8A
:103F40002597C81AD90AEA0AFB0AF7FE08C0F094B6
:103F5000E094D094C094C11CD11CE11CF11C82E5FA
:103F6000829DF001839DF00D1124ED5CFB4FC0821A
:103F7000D182E282F3822091C20C3091C30C409135
:103F8000C40C5091C50C2DA73EA74FA758AB669601
:103F90008CAC9DACAEACBFAC6697821A930AA40AF7
:103FA000B50AB7FE08C0B094A09490948094811C88
:103FB000911CA11CB11C82E5829DF001839DF00D36
:103FC0001124ED5CFB4F84829582A682B78280919A
:103FD000C60C9091C70CA091C80CB091C90C89ABCC
:103FE0009AABABABBCAB6A964CAC5DAC6EAC7FAC89
:103FF0006A97481A590A6A0A7B0A77FE08C07094C1
:10400000609450944094411C511C611C711C82E5C9
:10401000829DF001839DF00D1124ED5CFB4F4086E5
:104020005186628673862091CA0C3091CB0C4091E8
:10403000CC0C5091CD0C2DAB3EAB4FAB58AF6E9628
:104040002CAD3DAD4EAD5FAD6E978DA99EA9AFA9CC
:10405000B8AD281B390B4A0B5B0B57FF07C05095B7
:104060004095309521953F4F4F4F5F4FA0912402CF
:10407000B09125020E942F6824E630E040E050E035
:104080000E940B6882E5829DF001839DF00D112452
:10409000ED5CFB4F2487358746875787C814D904C2
:1040A000EA04FB0414F475016401C414D504E604A5
:1040B000F70414F473016201C216D306E406F50690
:1040C00014F469017A0182E5829DF001839DF00D6F
:1040D0001124ED5CFB4FC08AD18AE28AF38A96E014
:1040E000C916D104E104F10414F40C944D29DF0144
:1040F000A85BBF4F4091310C5091320C052E000C43
:10410000660B770B4D935D936D937C931397159688
:1041100029AD2C93EC964CAD5DAD6EAD7FADEC97BB
:1041200011964D935D936D937C93139725968CAD6B
:104130009DADAEADBFAD259729A53AA54BA55CA514
:1041400082179307A407B5070CF4B7C610A26696AA
:104150008CAD9DADAEADBFAD66972DA53EA54FA56F
:1041600058A982179307A407B5075CF482E5829DDE
:10417000F001839DF00D1124ED5CFB4F80A1826066
:1041800080A36A968CAD9DADAEADBFAD6A9729A9EF
:104190003AA94BA95CA982179307A407B5075CF459
:1041A00082E5829DF001839DF00D1124ED5CFB4FB3
:1041B00080A1846080A36E968CAD9DADAEADBFAD89
:1041C0006E972DA93EA94FA958AD82179307A40752
:1041D000B5075CF482E5829DF001839DF00D11240A
:1041E000ED5CFB4F80A1886080A3ADADBEAD8C912E
:1041F00092E5929DF001939DF00D1124ED5CFB4F33
:1042000081A325962CAD3DAD4EAD5FAD259789A51B
:104210009AA5ABA5BCA5281739074A075B0709F083
:104220005F9882E5829DF001839DF00D1124ED5C85
:10423000FB4F84819581A681B781892B8A2B8B2B9B
:1042400009F08A9882E5829DF001839DF00D11248A
:10425000ED5CFB4F80859185A285B385892B8A2BE8
:104260008B2B41F09FB7F894809108018E7F80934B
:1042700008019FBF82E5829DF001839DF00D11240E
:10428000ED5CFB4F84859585A685B785892B8A2BA8
:104290008B2B09F0129882E5829DF001839DF00D31
:1042A0001124ED5CFB4F2485358546855785219685
:1042B0002CAF3DAF4EAF5FAF2197232B242B252B87
:1042C00009F0FEC5E090E30BF090E40B0091E50BE4
:1042D0001091E60B2BA139A14FA158A5B701C80138
:1042E0000E94B466181624F4EBA2F9A20FA318A733
:1042F0008091BE0C9091BF0CA091C00CB091C10CEC
:1043000025962CAD3DAD4EAD5FAD2597281B390BE5
:104310004A0B5B0BCA01B9010E9443612091CE0C8C
:104320003091CF0C4091D00C5091D10C0E9465651A
:104330004B015C0189829A82AB82BC828091C20C63
:104340009091C30CA091C40CB091C50C66962CAD95
:104350003DAD4EAD5FAD6697281B390B4A0B5B0B2D
:10436000CA01B9010E9443612091D20C3091D30C53
:104370004091D40C5091D50C0E9465652B013C01F5
:104380004D825E826F8278868091C60C9091C70CB8
:10439000A091C80CB091C90C6A962CAD3DAD4EAD44
:1043A0005FAD6A97281B390B4A0B5B0BCA01B90139
:1043B0000E9443612091D60C3091D70C4091D80CCB
:1043C0005091D90C0E9465656B017C01C986DA8623
:1043D000EB86FC868091CA0C9091CB0CA091CC0C02
:1043E000B091CD0C6E962CAD3DAD4EAD5FAD6E97E0
:1043F000281B390B4A0B5B0BCA01B9010E944361B0
:104400002091DA0C3091DB0C4091DC0C5091DD0CEA
:104410000E94656569A77AA78BA79CA76091240273
:1044200070912502072E000C880B990B0E944361A6
:104430009B01AC0169A57AA58BA59CA50E94A05DF6
:1044400020E030E048EC52E40E9465656D877E878D
:104450008F87988B22E5229DF001239DF00D11247A
:10446000ED5CFB4F20813181428153812DA73EA716
:104470004FA758AB26303105410551059CF4048106
:10448000158126813781063011052105310554F447
:1044900000851185228533859F770630110521051A
:1044A000310534F1C501B4010E949D5D4B015C01F1
:1044B000C301B2010E949D5D9B01AC01C501B40125
:1044C0000E9489644B015C01C701B6010E949D5D99
:1044D0009B01AC01C501B4010E9489640E949F67E1
:1044E00022E5229DF001239DF00D1124ED5CFB4F90
:1044F00066A777A780AB91AB82E5829DF001839D93
:10450000F00D1124ED5CFB4F46A457A460A871A8E0
:10451000A301920160E070E080E89FE30E9465657E
:104520002BA139A14FA158A50E94A05D6B017C0170
:104530008091560990915509891B8F7089ABA7010D
:10454000960160E074E284E799E40E9465650E9448
:1045500061674B015C0139A9323008F442C0632F16
:1045600070E090E080E00E94436120E030E040E0B5
:1045700051E40E943D6187FF34C08091DF0B909130
:10458000E00BA091E10BB091E20B88169906AA0608
:10459000BB0638F5BC01CD01681979098A099B0968
:1045A000660F771F881F991FA9A92A2F30E050E0B6
:1045B00040E00E944D64CA01B9010E9441610E941D
:1045C000CD65680D791D8A1D9B1D0E9441619B016F
:1045D000AC0160E074E284E799E40E9465656B01D8
:1045E0007C01A3019201C701B6010E94A05D69AFE1
:1045F0007AAF8BAF9CAF82E5829D8001839D100DC9
:1046000011240D5C1B4F29AD3AAD4BAD5CADD8010B
:1046100092962D933D934D935C93959750966D9103
:104620007D918D919C9153970E9441616BA37CA3D6
:104630008DA39EA39B01AC01C701B6010E94A05DA2
:104640000E944F650E94D26529966CAF7DAF8EAFF8
:104650009FAF2997F80160AF71AF82AF93AF9E0112
:104660002F5F3F4F3EAB2DAB8E010F5E1F4F45E1DD
:104670005CE02F965FAF4EAF2F97A0961FAF0EAFA7
:10468000A09719A21FA250E858A78FE389A7ADA948
:10469000BEA92D913D914D915D91BEABADABC701D2
:1046A000B6010E94A05DA096EEADFFADA09761930C
:1046B000719381939193A096FFAFEEAFA0974B01BA
:1046C0005C01E894B7F82F96AEADBFAD2F972D9152
:1046D0003D914D915D912F96BFAFAEAF2F972D9627
:1046E0002CAF3DAF4EAF5FAF2D97C501B4010E9417
:1046F000B4661816C4F4A50194012D966CAD7DAD79
:104700008EAD9FAD2D970E9465655B014C0129A17F
:104710003FA148A559A50E94B466181624F0A9A285
:10472000BFA288A699A6EDA9FEA90E171F0709F03A
:10473000AECF20E030E040E85FE369A17FA188A52B
:1047400099A50E943D6187FF4AC07801F0E1EF0E14
:10475000F11CD8012D913D914D915D918D016D011F
:10476000B4E0CB1AD10869A17FA188A599A50E94C0
:10477000A05DF6016083718382839383E016F10666
:1047800041F782E5829D8001839D100D11240D5C0F
:104790001B4F29AD3AAD4BAD5CAD69A17FA188A59A
:1047A00099A50E94A05DD80192966D937D938D93FB
:1047B0009C93959729966CAD7DAD8EAD9FAD299755
:1047C0000E94416129A13FA148A559A50E94A05D71
:1047D0000E94D265F80160AF71AF82AF93AFA301C1
:1047E00092016BA17CA18DA19EA10E9465656B01C8
:1047F0007C012DA53EA54FA558A9232B242B252BA5
:1048000009F067C382E5829D8001839D100D11240C
:104810000D5C1B4FF80184819581A681B781892B9E
:104820008A2B8B2B09F055C380859185A285B38592
:10483000892B8A2B8B2B09F04CC32091EB0B3091E9
:10484000EC0B4091ED0B5091EE0BC701B6010E94AD
:10485000A05D0E944F650C5B1F4F0E94D265D8017E
:104860006D937D938D939C93139782E5829D800138
:10487000839D100D11240D5C1B4FF801EC5BFF4F65
:1048800060817181828193810E9441614B015C0151
:10489000A70196010E94656529966CAF7DAF8EAF2A
:1048A0009FAF2997F80162AB73AB84AB95AB2DEB4F
:1048B00037E346E051E4C501B4010E94A05D0E94C7
:1048C000CD65D8015C966D937D938D939C935F9796
:1048D000C090DB0BD090DC0BE090DD0BF090DE0B9A
:1048E00020E030E040E05FE3C701B6010E94A05D38
:1048F0003B018BA399A3298D3A8D4B8D5C8D2D9611
:104900002CAF3DAF4EAF5FAF2D978091D70B9091FD
:10491000D80BA091D90BB091DA0B8DAB9EABAFAB9E
:10492000B8AF20E030E040E05FE3BC01CD010E9481
:10493000A05D5B018C012D966CAD7DAD8EAD9FAD04
:104940002D979F779501A8010E94B466181664F40C
:1049500093014BA159A1B501C8010E94B466181674
:104960001CF035010BA319A32D8D3E8D4F8D58A141
:1049700061962CAF3DAF4EAF5FAF61978091250C34
:104980009091260CA091270CB091280C21968CAF09
:104990009DAFAEAFBFAF219720E030E040E05FE3D6
:1049A000BC01CD010E94A05D5B018C0161966CADE4
:1049B0007DAD8EAD9FAD61979F779501A8010E9457
:1049C000B466181664F49501A801B3018BA199A1EE
:1049D0000E943D6187FD03C035010BA319A382E549
:1049E000829DF001839DF00D1124ED5CFB4F92A19F
:1049F0009FA3A3A1A8A7B4A1B9A725A12DA7292F3B
:104A00003A2F4B2F5DA5B3018BA199A10E943D6167
:104A100087FD06C06FA078A439A53BA34DA549A387
:104A200059A9523008F477C38091BA0C89AB9091A0
:104A3000BB0C99AF4090BC0C5090BD0C27E137EBFC
:104A400041ED58E3BC01C2010E94B46618160CF097
:104A500062C32091AA0C3091AB0C4091AC0C5091E8
:104A6000AD0C69897A898B899C890E9488644B0185
:104A70005C012091AE0C3091AF0C4091B00C509184
:104A8000B10C6D897E898F89988D0E9488649B0105
:104A9000AC010E94A05DA2966CAF7DAF8EAF9FAFC0
:104AA000A297A5019401C501B4010E94A05D9B01DC
:104AB000AC01A2966CAD7DAD8EAD9FADA2970E946C
:104AC00089640E949F674B015C01AC019B01C70197
:104AD000B6010E943D6187FF19C3A5019401C7017A
:104AE000B6010E9465657B018C012091B20C30916A
:104AF000B30C4091B40C5091B50C2D966CAD7DADBE
:104B00008EAD9FAD2D970E9488644B015C01E894A7
:104B1000B7F8A50194016DA97EA98FA998AD0E944F
:104B20003D6187FF14C0A50194016DA97EA98FA9DD
:104B300098AD0E9465655B016C019B01AC01B701FA
:104B4000C8010E943D6187FD02C075018601209168
:104B5000B60C3091B70C4091B80C5091B90C6196DD
:104B60006CAD7DAD8EAD9FAD61970E9488644B01A9
:104B70005C01E894B7F8A501940121966CAD7DAD78
:104B80008EAD9FAD21970E943D6187FF16C0A501A4
:104B9000940121966CAD7DAD8EAD9FAD21970E94A5
:104BA00065655B016C019B01AC01B701C8010E9406
:104BB0003D6187FD02C0750186012FA138A549A579
:104BC0005DA5B701C8010E94A05D6B017C019B013E
:104BD000AC0169A979ADC2010E943D6187FF03C0A4
:104BE000C9A8D9AC720182E5829D8001839D100D18
:104BF00011240D5C1B4FC601D701F80182A793A7B2
:104C0000A4A7B5A729966CAD7DAD8EAD9FAD2997B4
:104C100090589B01AC010E948964D8019E962D9109
:104C20003D914D915C91D1970E94A05D9B01AC019B
:104C30006BE077ED83E29BE30E9488640E949F67AC
:104C40004B015C019B01AC01B601C7010E943D61B3
:104C500087FD02C06401750182E5829D8001839D0C
:104C6000100D11240D5C1B4FC601D701F80186A35E
:104C700097A3A0A7B1A79401A5016FA178A589A5C5
:104C80009DA50E943D6118160CF449C281E0D8012F
:104C9000D7968C9312E5129DF001139DF00D11240F
:104CA000ED5CFB4F81E086AB80E1FE017196AAEAE4
:104CB000BCE001900D928A95E1F78FA198A5A9A576
:104CC000BDA58093BA0C9093BB0CA093BC0CB09381
:104CD000BD0C9C01AD01B3018BA199A10E9465653A
:104CE0004B015C012FA138A549A55DA5B601C701FF
:104CF0000E946565AB01BC01A396FFADA397F19F30
:104D0000C0011124950184018D5C9B4F0E940C1DF4
:104D100062962FAD62972093560925968CAD9DAD76
:104D2000AEADBFAD25978093BE0C9093BF0CA09302
:104D3000C00CB093C10C66962CAD3DAD4EAD5FADD1
:104D400066972093C20C3093C30C4093C40C5093CD
:104D5000C50C6A968CAD9DADAEADBFAD6A97809324
:104D6000C60C9093C70CA093C80CB093C90C6E9658
:104D70002CAD3DAD4EAD5FAD6E972093CA0C309318
:104D8000CB0C4093CC0C5093CD0C809156098FB72F
:104D9000F894009155098FBF80915609801B8F7040
:104DA000843008F4C2C11091560913501F70F12CC1
:104DB000E12C912C812C011709F4B7C1111101C00C
:104DC00010E1115032E5139FC0011124AC014D5C7C
:104DD0005B4F1A018114910409F46CC0E114F104D1
:104DE00009F468C0D4019A964C909A979B965C906F
:104DF0009B979C966C909C979D967C909D9792011A
:104E0000A30196966D917D918D919C9199970E94A9
:104E10003D61882309F44EC0F40187A9811182C144
:104E2000D7019696CD90DD90ED90FC909997A701D3
:104E30009601B201C3010E94B46618160CF072C14B
:104E4000A7019601C701B6010E94A05D6B017C011C
:104E5000F40162A973A984A995A990589B01AC019A
:104E60000E948964D4019E962D913D914D915C9153
:104E7000D1970E94A05D9B01AC01C701B6010E94C1
:104E800088640E949F675B017C019B01AC01B201B9
:104E9000C3010E943D6187FF02C052017301C50139
:104EA000D701F40186A397A3A0A7B1A7E1E0D4019D
:104EB000D696EC93740141017ECF81E080A347C96F
:104EC000E090E70BF090E80B0091E90B1091EA0BF2
:104ED00001CA2091EF0B3091F00B4091F10B5091F2
:104EE000F20BC701B6010E94A05D0E944F650E94AF
:104EF000D26522E5229D8001239D100D11240958C1
:104F00001B4FF80160837183828393838090050C2B
:104F10009090060CA090070CB090080C0E94416184
:104F20002B013C016DA57EA58FA598A90E94436128
:104F30009B01AC01C301B2010E94A05D2BA13CA169
:104F40004DA15EA10E9465652B013C01C501B40124
:104F50000E9441619B01AC01C301B2010E94B46691
:104F6000181634F4D8018D929D92AD92BC9213978D
:104F70004090090C50900A0C60900B0C70900C0C37
:104F800082E5829D8001839D100D11240D5C1B4FD5
:104F9000F801EC5BFF4FFAA3E9A360817181828184
:104FA00093810E9441614B015C01D80114966D917F
:104FB0007D918D919C9117970E9443619B01AC015B
:104FC000C501B4010E94A05D2BA13CA14DA15EA131
:104FD0000E9465654B015C01C301B2010E94416101
:104FE0009B01AC01C501B4010E94B466181634F4EB
:104FF000E9A1FAA140825182628273824090110C31
:105000005090120C6090130C7090140C82E5829DED
:105010008001839D100D112409581B4FD8016D91FB
:105020007D918D919C910E9441614B015C01219683
:105030006CAD7DAD8EAD9FAD21970E9443619B010C
:10504000AC01C501B4010E94A05D2BA13CA14DA102
:105050005EA10E9465654B015C01C301B2010E9423
:1050600041619B01AC01C501B4010E94B4661816F0
:105070002CF4F801408251826282738240900D0CC0
:1050800050900E0C60900F0C7090100C82E5829D79
:105090008001839D100D11240D5C1B4F98012C5B2A
:1050A0003F4F3AA329A3D9016D917D918D919C9198
:1050B0000E9441614B015C01F80160857185828528
:1050C00093850E9443619B01AC01C501B4010E941C
:1050D000A05D2BA13CA14DA15EA10E9465654B0185
:1050E0005C01C301B2010E9441619B01AC01C50199
:1050F000B4010E94B46618160CF0B7CBA9A1BAA1EE
:105100004D925D926D927C921397AFCBE12CF12C76
:1051100000E81FE3EACC6301EBA0F9A064CDF8013D
:1051200017AAB8CDC201D301BCCE10915509F12CFC
:1051300000E090E080E022E5E22E20915609211760
:10514000D9F01E9D90011124A9014D5C5B4F6A01AD
:10515000009749F0DC01D7962C91211104C06F2DE6
:10516000702F0E949F1C1F5F103109F410E08F2DDB
:10517000902FFC2C0D2DE1CF009741F0FC0127A9C9
:10518000211104C06F2D702F0E949F1CD0905509D3
:10519000F12CE12C82E5C82E8D2D0D2C000C990BE5
:1051A000209156092817190609F44CC0FD2D4C2DE5
:1051B000F40290011124D901AD5CBB4F1D01E11433
:1051C000F104C9F1F70126A921110AC0C89EF00116
:1051D000C99EF00D1124ED5CFB4F26A9222359F145
:1051E000D70192964D905D906D907C909597C89E5A
:1051F000F001C99EF00D1124ED5CFB4FA30192015B
:1052000066A177A180A591A50E9465654B015C010F
:10521000A3019201F70166A177A180A591A50E9443
:105220006565AB01BC0195018401C7010E940C1D9D
:10523000D701D6961C92D394B0E1DB1201C0D12CD9
:105240007101AACFE114F10419F1F70182A093A032
:10525000A4A0B5A0A50194016DEC7CEC8CE49DE3C9
:105260000E9465652B013C01A5019401D70196962A
:105270006D917D918D919C9199970E946565AB018F
:10528000BC0193018201C7010E940C1DF70116AAFF
:1052900080916F00826080936F00CE59DF4F0FB610
:1052A000F894DEBF0FBECDBFDF91CF911F910F915C
:1052B000FF90EF90DF90CF90BF90AF909F908F9036
:1052C0007F906F905F904F903F902F9008952F9216
:1052D0003F924F925F926F927F928F929F92AF9286
:1052E000BF92CF92DF92EF92FF920F931F93CF93D3
:1052F000DF93CDB7DEB72E970FB6F894DEBF0FBEA3
:10530000CDBFFC01EC55FB4F14919C01220F331FC4
:10531000220F331F3E872D872656334F3C832B8326
:10532000D9011D921D921D921C9213970E944B1A37
:10533000ED85FE85E856FB4F85909590A590B4903D
:10534000612F110F770B880B990B0E9443612B0182
:105350003C01ED85FE85EC5AF34FFA83E98320E0AA
:1053600030E040EC5FE3C501B4010E94A05DA30101
:1053700092010E94A05DA981BA816D937D938D9366
:105380009C931397ED85FE85E452FD4F80819181BA
:10539000A281B3818D839E83AF83B88720E030E004
:1053A00040E752E4BC01CD010E94656569877A87B8
:1053B0008B879C8793E4B92EBF922FE7922E9F9202
:1053C0001F921F92A12C31E4C32E3CE0D32EE9841E
:1053D000FA840B851C852CE53CE0A90168E57CE09E
:1053E00084E59CE00E94E51E0E94E119AB81BC812E
:1053F0001D921D921D921C9213970E944B1AED85CF
:10540000FE85E457FB4F1F0165917591859194913D
:105410009058A30192010E94A05DA981BA816D9369
:105420007D938D939C931397BF929F921F921F928F
:10543000E984FA840B851C852CE53CE0A90168E52C
:105440007CE084E59CE00E94E51E0E94E119F101E8
:1054500065917591859194919B01AC010E9489643D
:10546000A30192010E94A05DE981FA8160837183AA
:105470008283938320E030E040E05FE36D817E81B2
:105480008F8198850E94A05D20E030E040E752E4E3
:105490000E946565BF929F921F921F927B018C01B3
:1054A0002CE53CE0A90168E57CE084E59CE00E94F5
:1054B000E51E0E94E119ED85FE85E058FB4F259120
:1054C000359145915491ED85FE85E85BF34F408021
:1054D000518062807380C301B2010E9489644B01D4
:1054E0005C01AB81BC818D929D92AD92BC92139771
:1054F000ED85FE85EC58FB4F2591359145915491F2
:105500000D851E8500501C4FC301B2010E948964A5
:10551000F8016083718382839383ED85FE85E8596A
:10552000FB4F25913591459154918D859E858050F5
:105530009E4F9C838B83C301B2010E948964AB811F
:10554000BC816D937D938D939C931397E981FA8130
:1055500080829182A282B38210923A0210923B0220
:1055600010923C0210923D0210927D0C10927C0C25
:1055700010927B0C0FB6F894DEBF0FBECDBF2E96F7
:105580000FB6F894DEBF0FBECDBFDF91CF911F9154
:105590000F91FF90EF90DF90CF90BF90AF909F90D2
:1055A0008F907F906F905F904F903F902F900895D5
:1055B0002F923F924F925F926F927F928F929F9223
:1055C000AF92BF92CF92DF92EF92FF920F931F9311
:1055D000CF93DF93CDB7DEB7ED970FB6F894DEBF6C
:1055E0000FBECDBF382EC090F403D090F503E090ED
:1055F000F603F090F7034090F0035090F1036090B1
:10560000F2037090F303A7019601C301B2010E9457
:10561000C5666A8F7B8F8C8F9D8F009138021091A9
:10562000390280913A0290913B02A0913C02B091E4
:105630003D028E8B9F8BA88FB98F8091410C898BF7
:1056400020919A0C30919B0C40919C0C50919D0C98
:10565000C301B2010E9489646AA77BA78CA79DA79A
:1056600020919E0C30919F0C4091A00C5091A10C68
:10567000C701B6010E9489646EA77FA788AB99AB6A
:105680008091A20C9091A30CA091A40CB091A50CB8
:105690008AA39BA3ACA3BDA39C01AD0160915C0C4C
:1056A00070915D0C80915E0C90915F0C0E948864FB
:1056B0006EA37FA388A799A777FA709477F8709460
:1056C000D701C601B0588A8B9B8BAC8BBD8B2AA5AA
:1056D0003BA54CA55DA56091540C7091550C809133
:1056E000560C9091570C0E9488646B017C012EA58A
:1056F0003FA548A959A96091580C7091590C809107
:105700005A0C90915B0C0E9488644B015C01A701CC
:105710009601C301B2010E94A05D6E8F7F8F88A3A6
:1057200099A3A50194016A897B898C899D890E942E
:10573000A05D9B01AC016E8D7F8D88A199A10E9417
:1057400089646E8F7F8F88A399A3A5019401C301FB
:10575000B2010E94A05D4B015C01A70196016A891C
:105760007B898C899D890E94A05D9B01AC01C5014C
:10577000B4010E9488642E8D3F8D48A159A10E94DA
:10578000FC646B017C0120E030E0A9010E943D61D6
:1057900087FF0AC02BED3FE049EC50E4C701B6019A
:1057A0000E9489646B017C01332051F02BED3FE0B6
:1057B00049EC50E4C701B6010E9488646B017C018A
:1057C000A70196016A8D7B8D8C8D9D8D0E94A05DB9
:1057D0002EA13FA148A559A50E94C5664B015C01B9
:1057E0002FE632E143E85AE30E943D6187FDC9C1DB
:1057F000C501B4010E94FE650E94D2657B8F6A8F4D
:10580000DB01AB2B21F421E030E03B8F2A8FB80184
:10581000110F880B990B0E9443612E893F89488D97
:10582000598D0E94A05D20E030E040E752E40E94E4
:10583000656520E030E048EC52E40E9465656E8FBB
:105840007F8F88A399A38091A60C9091A70CA0911B
:10585000A80CB091A90C8AAB9BABACABBDABAA8D2D
:10586000BB8DBD0190E080E00E9441614B015C0175
:10587000AC019B01C701B6010E9465656E8B7F8BF1
:10588000888F998FA50194016EA17FA188A599A504
:105890000E9465656EAB7FAB88AF99AF2AA93BA923
:1058A0004CA95DA96091600C7091610C8091620CB3
:1058B0009091630C0E948864A50194010E94656523
:1058C0006AAF7BAF8CAF9DAF20E030E040E05FE39C
:1058D0006E897F89888D998D0E94A05D2E893F8970
:1058E000488D598D0E94A05D9B01AC0160E070E085
:1058F00080E89FE30E9488646EA37FA388A799A78E
:105900008AA19BA1ACA1BDA189879A87AB87BC87DF
:105910008AA99BA9ACA9BDA98D879E87AF87B88BA3
:10592000912C22242394312CAA8DBB8DA215B30572
:1059300009F40BC1B8E1B9150CF49EC0A3019201A2
:105940006E897F89888D998D0E94A05D6B017C0195
:105950002A893B894C895D896EA17FA188A599A57B
:105960000E94A05D9B01AC01C701B6010E94896441
:10597000B62ED72E7C01A30192016EA17FA188A52E
:1059800099A50E94A05D2B013C012A893B894C8985
:105990005D896E897F89888D998D0E94A05D9B01AC
:1059A000AC01C301B2010E9488642B013C019394B5
:1059B0008B2D9D2DD7018A8B9B8BAC8BBD8BA3012F
:1059C00092016AA57BA58CA59DA50E948964698327
:1059D0007A838B839C832A893B894C895D896EA558
:1059E0007FA588A999A90E9489646D837E838F838E
:1059F00098872EA93FA948AD59AD69857A858B85D1
:105A00009C850E94896469877A878B879C872AADE9
:105A10003BAD4CAD5DAD6D857E858F8598890E94CF
:105A200089646D877E878F87988BCE0101960E944F
:105A3000DA0E93E49F93AFE7AF931F921F92A12CCE
:105A40009E012F5E3F4F6901EE8CFF8C08A119A1CA
:105A500024503109AE01475F5F4FBE016B5F7F4F3E
:105A6000CE0101960E94E51E3FEF231A330A0F90E4
:105A70000F900F900F9058CFB10190E080E00E94FE
:105A800041612E893F89488D598D0E94A05D6B012F
:105A90007C010E9462656A8B7B8B8C8B9D8BC7011E
:105AA000B6010E9494674B015C01C090F003D09056
:105AB000F103E090F203F090F303F7FAF094F7F8B3
:105AC000F0948091F4039091F503A091F603B091C6
:105AD000F7038AA39BA3ACA3BDA3A70196016A8980
