:100000000C94C2110C94F3110C94F3110C94F31191
:100010000C94F3110C94F3110C94F3110C94F31150
:100020000C94F3110C94F3110C94F3110C94F31140
:100030000C94F3110C9463900C94F3110C94F31141
:100040000C94F3110C949D400C94F3110C94F31147
:100050000C94F3110C94F3110C94773A0C9482994C
:100060000C94F3110C94DB810C94F3110C94F311A8
:100070000C94F3110C94F3110C94F3110C94F311F0
:100080000C94F3110C94F3110C94F3110C94F311E0
:100090000C94F3110C94F3110C94F3110C94F311D0
:1000A0000C94F3110C94F3110C94F3110C94F311C0
:1000B0000C94F3110C94F3110C94F3110C94F311B0
:1000C0000C94F3110C94F3110C94F3110C94F311A0
:1000D0000C94F3110C94F3110C94F3110C94F31190
:1000E0000C94F311084AD73B3BCE016E84BCBFFD94
:1000F000C12F3D6C74319ABD56833DDA3D00C77FF8
:1001000011BED9E4BB4C3E916BAAAABE0000008090
:100110003F05A84CCDB2D44EB93836A9020C50B91F
:10012000918688083CA6AAAA2ABE000000803F004B
:100130004E414E494E495459494E46CDCCCC3D0ACC
:10014000D7233C17B7D13877CC2B329595E6241FAF
:10015000B14F0A000020410000C84200401C462068
:10016000BCBE4CCA1B0E5AAEC59D74434F4D4D5577
:100170004E49434154494F4E0044525952554E0046
:100180004552524F525300494E464F004543484F47
:10019000002569730025696D20256973002569684C
:1001A0002025696D2025697300256964202569680B
:1001B0002025696D202569730025697920256964EA
:1001C000202569682025696D20256973004B494CFD
:1001D0004C45442E200053544F505045442E20008F
:1001E0005072696E7465722073746F7070656420EC
:1001F00064756520746F206572726F72732E20466D
:10020000697820746865206572726F7220616E640F
:1002100020757365204D39393920746F20726573EC
:10022000746172742E202854656D706572617475E6
:1002300072652069732072657365742E205365742E
:1002400020697420616674657220726573746172CE
:1002500074696E67290A004E6F204C696E65204EE6
:10026000756D626572207769746820636865636B79
:1002700073756D2C204C617374204C696E653A2047
:10028000004E6F20436865636B73756D20776974EA
:1002900068206C696E65206E756D6265722C204CED
:1002A000617374204C696E653A2000636865636B06
:1002B00073756D206D69736D617463682C204C617A
:1002C0007374204C696E653A20004C696E65204E4F
:1002D000756D626572206973206E6F74204C617356
:1002E00074204C696E65204E756D6265722B312CE1
:1002F000204C617374204C696E653A20004D313199
:1003000030004D3331004D383420582059205A20C8
:10031000450053442072656164206572726F720AF1
:1003200000446F6E65207072696E74696E67206636
:10033000696C650A0020496E76616C696420657895
:1003400074727564657220000000964300007A4361
:1003500000009643000000000000000000000000C4
:100360006D0046696C616D656E7420757365643AE5
:10037000200053746174733A20002C204C6F6E6718
:10038000657374206A6F623A2000546F74616C2048
:1003900074696D653A200053746174733A20002CBF
:1003A000204661696C65643A20002C2046696E69BC
:1003B000736865643A20005072696E74733A200065
:1003C00053746174733A20002042403A0020403A4E
:1003D00000202F0020423A00202F0020543A0048ED
:1003E000656174696E6720646F6E652E003F0A0058
:1003F00020573A0048656174696E672E2E2E0051B1
:1004000075616E74756D2072656164792E00205A75
:100410003A0020593A0020436F756E7420583A20F4
:100420000020453A00205A3A0020593A00583A0034
:100430004B64200023646566696E65202044454650
:1004400041554C545F004B69200023646566696E1A
:1004500065202044454641554C545F004B702000B8
:1004600023646566696E65202044454641554C54B9
:100470005F00504944204175746F74756E65206645
:10048000696E6973686564212050757420746865AD
:10049000206C617374204B702C204B6920616E645A
:1004A000204B6420636F6E7374616E747320667288
:1004B0006F6D2062656C6F7720696E746F20436F7B
:1004C0006E66696775726174696F6E2E680A005096
:1004D0004944204175746F74756E65206661696C5E
:1004E0006564212074696D656F75740A0050494414
:1004F000204175746F74756E65206661696C656402
:10050000212054656D706572617475726520746F19
:100510006F20686967680A00204B643A2000204B0E
:10052000693A2000204B703A200020436C617373BD
:10053000696320504944200A002054753A20002065
:100540004B753A2000206D61783A2000206D696E6D
:100550003A200020643A200020626961733A20004A
:100560004D36303020486F74656E6420746F6F2094
:10057000636F6C6420746F206368616E67652066CA
:10058000696C616D656E740A0020746F6F206C6F0A
:100590006E6720657874727573696F6E207072650E
:1005A00076656E7465640A0020636F6C64206578FC
:1005B00074727573696F6E2070726576656E74659E
:1005C000640A00536C6565702E2E2E005175616EA5
:1005D00074756D2072656164792E00526573756D56
:1005E000696E67207072696E740057616974206665
:1005F0006F7220757365722E2E2E004E6F206D6FF8
:1006000076652E00456E642066696C65206C6973A2
:10061000740A00426567696E2066696C65206C69C2
:1006200073740A005344207072696E74696E672097
:100630006279746520004E6F742053442070726993
:100640006E74696E670A0044656C6574696F6E202C
:100650006661696C65642C2046696C653A200046C9
:10066000696C652064656C657465643A006F7065DB
:100670006E206661696C65642C2046696C653A2061
:10068000005072696E742074696D653A2000486587
:100690006174696E672E2E2E005175616E74756DD2
:1006A0002072656164792E006F6666008C01870197
:1006B000800179016B0144454255473A004B494C52
:1006C0004C45442E20004D3131332053006F6B00D8
:1006D00042656420646F6E652E003F0A0020573A21
:1006E000004265642048656174696E672E0051752B
:1006F000616E74756D2072656164792E005175614B
:100700006E74756D204F66662E004649524D5741F6
:1007100052455F4E414D453A4D61726C696E2031D4
:100720002E312E302D524337202847697468756268
:100730002920534F555243455F434F44455F55521F
:100740004C3A68747470733A2F2F676974687562D5
:100750002E636F6D2F4D61726C696E4669726D7795
:100760006172652F4D61726C696E2050524F544F0B
:10077000434F4C5F56455253494F4E3A312E30202D
:100780004D414348494E455F545950453A51756172
:100790006E74756D2045585452554445525F434F11
:1007A000554E543A3120555549443A636564653293
:1007B0006132662D343161322D343734382D39624F
:1007C00031322D6335356336326633363766660A25
:1007D000004D31343520533C696E6465783E206F9E
:1007E0007574206F662072616E67652028302D3128
:1007F000290A0053657474696E67205472617665C6
:100800006C20416363656C65726174696F6E3A2038
:100810000053657474696E67205265747261637405
:1008200020416363656C65726174696F6E3A200084
:1008300053657474696E67205072696E74204163E9
:1008400063656C65726174696F6E3A2000536574FC
:1008500074696E67205072696E7420616E642054F2
:10086000726176656C20416363656C657261746961
:100870006F6E3A200020643A0020693A0020703AF6
:100880000020643A0020693A0020703A0043290AA7
:100890000061626C656420286D696E2074656D70FE
:1008A0002000436F6C6420657874727564657320F2
:1008B00061726520004572723A20546F6F20666144
:1008C000722100546F6F206661722066726F6D2016
:1008D0007265666572656E636520706F696E740A15
:1008E000004F666673657473206170706C6965642F
:1008F0000041637469766520457874727564657229
:100900003A2000220A00556E6B6E6F776E20636F7F
:100910006D6D616E643A202200526573656E643AB3
:1009200020006F6B00627573793A20706175736592
:100930006420666F7220696E7075740A0062757348
:10094000793A2070617573656420666F72207573E3
:1009500065720A00627573793A2070726F6365730D
:1009600073696E670A004B494C4C45442E20004B7E
:10097000494C4C45442E2000506C656173652072D3
:1009800065736574005052494E5445522048414C9D
:10099000544544005072696E7465722068616C74CD
:1009A00065642E206B696C6C28292063616C6C6512
:1009B00064210A00000096430000000000000000CF
:1009C0005761726E696E673A20486F6D696E672075
:1009D00042756D702044697669736F72203C2031D6
:1009E0000A000000A0400000A040000000400000FD
:1009F000964300007A430000964301FFFF00002168
:100A000010422063308440A550C660E770088129F9
:100A1000914AA16BB18CC1ADD1CEE1EFF131121091
:100A20000273325222B5529442F772D66239931849
:100A3000837BB35AA3BDD39CC3FFF3DEE36224439D
:100A40003420040114E664C774A44485546AA54B99
:100A5000B528850995EEE5CFF5ACC58DD553367231
:100A60002611163006D776F6669556B4465BB77AE9
:100A7000A719973887DFF7FEE79DD7BCC7C448E5BD
:100A8000588668A7784008611802282338CCC9ED39
:100A9000D98EE9AFF9488969990AA92BB9F55AD4D1
:100AA0004AB77A966A711A500A333A122AFDDBDC89
:100AB000CBBFFB9EEB799B588B3BBB1AABA66C87DD
:100AC0007CE44CC55C222C033C600C411CAEED8FD9
:100AD000FDECCDCDDD2AAD0BBD688D499D977EB671
:100AE0006ED55EF44E133E322E511E700E9FFFBE29
:100AF000EFDDDFFCCF1BBF3AAF599F788F8891A9FC
:100B000081CAB1EBA10CD12DC14EF16FE18010A1D2
:100B100000C230E3200450254046706760B98398D6
:100B200093FBA3DAB33DC31CD37FE35EF3B1029022
:100B300012F322D2323542145277625672EAB5CBA2
:100B4000A5A89589856EF54FE52CD50DC5E234C372
:100B500024A01481046674476424540544DBA7FA76
:100B6000B79987B8975FE77EF71DC73CD7D326F2C2
:100B7000369106B01657667676154634564CD96DC2
:100B8000C90EF92FE9C899E9898AB9ABA944586512
:100B90004806782768C018E1088238A3287DCB5C16
:100BA000DB3FEB1EFBF98BD89BBBAB9ABB754A5462
:100BB0005A376A167AF10AD01AB32A923A2EFD0FE2
:100BC000ED6CDD4DCDAABD8BADE89DC98D267C07B2
:100BD0006C645C454CA23C832CE01CC10C1FEF3EB6
:100BE000FF5DCF7CDF9BAFBABFD98FF89F176E3602
:100BF0007E554E745E932EB23ED10EF01E7C3C3E6E
:100C00005E2B3D3F2F5B5D3B2C2A225C00486172CE
:100C100064636F6465642044656661756C74205319
:100C2000657474696E6773204C6F616465640A0053
:100C300020204D3230302044300A0020204D323008
:100C4000302044002044697361626C65640A004688
:100C5000696C616D656E742073657474696E677319
:100C60003A0020440020490020204D3330342050E9
:100C70000020440020490020204D33303120500016
:100C80005049442073657474696E67733A0A002092
:100C9000460020420020204D313435205331204879
:100CA0000020460020420020204D313435205330B2
:100CB0002048004D6174657269616C2068656174DB
:100CC000757020706172616D65746572733A0A00A7
:100CD000205A0020590020204D323036205800483C
:100CE0006F6D65206F666673657420286D6D290AC7
:100CF00000204500205A00205800204200205400C7
:100D000020204D323035205300416476616E63659A
:100D100064207661726961626C65733A20533D4D5F
:100D2000696E20666565647261746520286D6D2F3B
:100D300073292C20543D4D696E2074726176656C68
:100D400020666565647261746520286D6D2F732956
:100D50002C20423D6D696E696D756D207365676D00
:100D6000656E742074696D6520286D73292C205878
:100D70003D6D6178696D756D205859206A65726B9B
:100D800020286D6D2F73292C20205A3D6D617869C4
:100D90006D756D205A206A65726B20286D6D2F73FA
:100DA000292C2020453D6D6178696D756D204520A9
:100DB0006A65726B20286D6D2F73290A002054001C
:100DC00020520020204D32303420500041636365B2
:100DD0006C65726174696F6E733A20503D70726910
:100DE0006E74696E672C20523D7265747261637413
:100DF00020616E6420543D74726176656C0A002037
:100E00004500205A0020590020204D323031205812
:100E1000004D6178696D756D20416363656C657225
:100E20006174696F6E20286D6D2F7332293A0A0044
:100E3000204500205A0020590020204D3230332018
:100E400058004D6178696D756D20666565647261E5
:100E500074657320286D6D2F73293A0A00204500B0
:100E6000205A0020590020204D3932205800537458
:100E70006570732070657220756E69743A0A007A25
:100E80005F6D61783A20007A5F6D696E3A20007973
:100E90005F6D61783A2000795F6D696E3A20007865
:100EA0005F6D61783A2000785F6D696E3A2000527C
:100EB00065706F7274696E6720656E6473746F70AD
:100EC000207374617475730A0020746F6F206C6FE7
:100ED0006E6720657874727573696F6E20707265C5
:100EE00076656E7465640A0020636F6C64206578B3
:100EF00074727573696F6E2070726576656E746555
:100F0000640A0024F4D43050C38E20C2A240178259
:100F10008B7011127A910D816CD90AA861E108C712
:100F2000586607615143061E4B5D05C145A7041A6B
:100F3000411104093D9803713931034036DB0265E4
:100F4000339102D4305402802E1D02632CEE0175C1
:100F50002AC501B028A001102781018F2564012B2B
:100F6000244B01E0223401AC211F018D200D0180B2
:100F70001FFC00841EED00971DDF00B81CD200E6A8
:100F80001BC600201BBC00641AB200B219A8000ADC
:100F900019A0006A189900D117910040178B00B56D
:100FA00016840031167E00B31579003A157300C718
:100FB000146F0058146A00EE13660088136300254E
:100FC000135E00C7125B006C12570015125400C16B
:100FD00011510070114F0021114B00D61049008DA6
:100FE0001047004610440002104200C00F4000802D
:100FF0000F3E00420F3C00060F3B00CB0E38009323
:101000000E37005C0E3500270E3400F30D3200C1A0
:101010000D3100900D3000600D2E00320D2D0005B9
:101020000D2C00D90C2B00AE0C2900850C29005C7E
:101030000C2700350C27000E0C2600E80B2400C4FA
:101040000B2400A00B23007D0B23005A0B21003939
:101050000B2100180B2000F80A1F00D90A1E00BB44
:101060000A1E009D0A1D00800A1D00630A1C00471D
:101070000A1B002C0A1B00110A1A00F7091A00DDCE
:10108000091900C4091900AB091900920917007B5E
:10109000091800630917004C0916003609160020CC
:1010A0000916000A091500F5081500E0081400CC1F
:1010B000081400B8081400A4081400900813007D58
:1010C0000812006B0813005808120046081200347A
:1010D000081100230811001208110001081100F086
:1010E000071000E0071000D0071000C0071000B084
:1010F000070F00A107100091070E0083070F00746F
:10110000070F0065070E0057070E0049070E003B4A
:10111000070D002E070E0020070D0013070D000617
:10112000070D00F9060C00ED060D00E0060C00D4DA
:10113000060C00C8060C00BC060C00B0060C00A48F
:10114000060B0099060C008D060B0082060B00773B
:10115000060B006C060B0061060A0057060B004CDC
:10116000060A0042060A0038060A002E060A002473
:10117000060A001A060A001006090007060A00FD02
:10118000050900F4050900EB050900E2050900D98D
:10119000050900D0050900C7050900BE050900B50D
:1011A000050800AD050800A50509009C0508009488
:1011B0000508008C050800840508007C05080074FB
:1011C0000508006C050700650508005D0507005669
:1011D0000508004E050700470507004005080038D0
:1011E000050700310507002A050700230507001C35
:1011F000050600160507000F050700080506000292
:10120000050700FB040600F5040700EE040600E8ED
:10121000040600E2040700DB040600D5040600CF44
:10122000040600C9040600C3040600BD040600B796
:10123000040600B1040500AC040600A6040600A0E4
:101240000405009B04060095040500900406008A2E
:1012500004050085040500800406007A0405007575
:10126000040500700405006B0405006604050061B8
:101270000405005C04050057040500520405004DF8
:1012800004050048040500430405003E0404003A38
:1012900004050035040500300404002C0405002773
:1012A000040400230405001E0404001A04040016AC
:1012B000040500110404000D0404000904050004E1
:1012C00004040000040400FC030400F8030400F418
:1012D000030400F0030400EC030400E8030400E44A
:1012E000030400E0030400DC030400D8030400D47A
:1012F000030400D0030400CC030400C8030300C5AA
:1013000003030024F404D9201BC40C5C0E9804C40D
:10131000095F0265077101F405F900FB04B3004899
:10132000048700C10369005803550003034500BE4C
:10133000023A008402310053022A002902250004E7
:10134000022000E4011C00C8011900AF0117009839
:10135000011400840113007101100061011000519B
:10136000010E0043010D0036010B002B010B002084
:10137000010B00150109000C01090003010800FB25
:10138000000800F3000800EB000700E4000600DEA0
:10139000000600D8000600D2000600CC000500C7F9
:1013A000000500C2000500BD000400B9000400B53E
:1013B000000400B1000400AD000400A9000400A571
:1013C000000300A20003009F0004009B000300989C
:1013D0000003009500020093000300900003008DBD
:1013E0000002008B000300880002008600020084D7
:1013F000000300810002007F0002007D0002007BEC
:1014000000020079000200770001007600020074FB
:1014100000020072000100710002006F0002006D06
:101420000001006C0002006A000100690002006710
:101430000001006600010065000100640002006216
:1014400000010061000100600001005F0002005D1A
:101450000001005C0001005B0001005A000100591E
:10146000000100580001005700010056000100551E
:10147000000100540001005300000053000100521D
:1014800000010051000100500001004F0001004E1A
:101490000000004E0001004D0001004C0001004B17
:1014A0000000004B0001004A000100490001004813
:1014B000000000480001004700010046000000460F
:1014C0000001004500000045000100440001004308
:1014D0000000004300010042000000420001004102
:1014E00000000041000100400001003F0000003FFB
:1014F0000001003E0000003E0001003D0000003DF4
:101500000001003C0000003C0000003C0001003BEA
:101510000000003B0001003A0000003A00010039E1
:1015200000000039000100380000003800000038D9
:1015300000010037000000370001003600000036CF
:1015400000000036000100350000003500000035C5
:1015500000010034000000340000003400010033BA
:1015600000000033000000330001003200000032B0
:1015700000000032000100310000003100000031A5
:101580000001003000000030000000300001002F9A
:101590000000002F0000002F0000002F0001002E8F
:1015A0000000002E0000002E0001002D0000002D84
:1015B0000000002D0000002D0001002C0000002C78
:1015C0000000002C0000002C0001002B0000002B6C
:1015D0000000002B0000002B0001002A0000002A60
:1015E0000000002A0000002A000100290000002954
:1015F0000000002900000029000000290001002847
:10160000000000280000002800000028000000283A
:10161000000100270000002700000027000000272D
:101620000000002700010026000000260000002620
:101630000000002600000026000100250000002513
:101640000000002500000025000000250000002506
:1016500000010024000000240000002400000024F9
:1016600000000024000100230000002300000023EC
:1016700000000023000000230000002300000023DE
:1016800000010022000000220000002200000022D1
:1016900000000022000000220001002100000021C3
:1016A00000000021000000210000002100000021B6
:1016B00000000021000100200000002000000020A8
:1016C000000000200000002000000020000000209A
:1016D000000000200001001F0000001F0000001F8C
:1016E0000000001F0000001F0000001F0000001F7E
:1016F0000001001E0000001E0000001E0000001E71
:101700000000004D383420582059205A20450062EE
:1017100065640A002C2073797374656D2073746F8F
:101720007070656421204865617465725F49443A50
:10173000200070012C0190012701B0012201C0019D
:101740001D01F00118011002130130020E016002A8
:10175000090190020401C002FF000003FA004003E7
:10176000F5008003F000D003EB002004E6007004D5
:10177000E100E004DC004005D700C005D2004006CF
:10178000CD00D006C8008007C3003008BE00F008B6
:10179000B900C009B400B00AAF00B00BAA00D00C69
:1017A000A500000EA000500F9B00C0109600501224
:1017B000910000148C00C0158700B0178200B0198A
:1017C0007D00D01B7800001E730040206E00902228
:1017D0006900F024640040275F0090295A00E02B44
:1017E0005500102E500020304B0010324600E033E0
:1017F000410090353C001037370070383200A03976
:101800002D00B03A2800A03B2300603C1E00103D94
:101810001900903D1400103E0F00703E0A00C03EBB
:101820000500003F00004572723A204D4158544572
:101830004D50004D415854454D50207472696767B2
:1018400065726564004572723A204D494E54454DAB
:1018500050004D494E54454D50207472696767657C
:10186000726564004572723A204D494E54454D50A0
:1018700020424544004D494E54454D5020747269F4
:10188000676765726564004572723A204D4158542D
:10189000454D5020424544004D415854454D50203F
:1018A00074726967676572656400253032693A252C
:1018B000303269002D2D2D005344005A005900206C
:1018C0000020003F005800012000012000507269F4
:1018D0006E742066726F6D2053440053746F7020D5
:1018E0007072696E74004E6F20534420636172649D
:1018F00000526573756D65207072696E7400506179
:10190000757365207072696E7400436F6E74726FC8
:101910006C00507265706172650054756E650049A7
:101920006E666F2073637265656E004D36303000F1
:101930004368616E67652066696C616D656E7400F1
:10194000466C6F7700466C6F770046616E2073704F
:101950006565640046616E2073706565640042656C
:101960006400426564004E6F7A7A6C65004E6F7A4F
:101970007A6C65005370656564005370656564003A
:101980004D61696E005072656865617420504C410C
:1019900020426564005072656865617420504C4156
:1019A000005072657061726500507265686561749F
:1019B000204142532042656400507265686561743D
:1019C000204142530050726570617265004D34329F
:1019D000380053776974636820706F776572206F81
:1019E0006E004D38310053776974636820706F77EB
:1019F0006572206F6666004D383000436F6F6C640F
:101A00006F776E00507265686561742041425300C3
:101A10005072656865617420504C41004D38340047
:101A200044697361626C652073746570706572736C
:101A3000004D6F7665206178697300536574206886
:101A40006F6D65206F66667365747300473238206A
:101A50005A00486F6D65205A0047323820590048B7
:101A60006F6D65205900473238205800486F6D650A
:101A7000205800473238004175746F20686F6D65DB
:101A8000004D61696E004D6F76652058004D6F7690
:101A9000652059004D6F7665205A0045787472753F
:101AA000646572004578747275646572004D6F7676
:101AB00065205A004D6F76652059004D6F76652080
:101AC00058004D6F76652061786973004D6F7665BB
:101AD00020302E316D6D004D6F766520316D6D00BB
:101AE0004D6F76652031306D6D005072657061729A
:101AF0006500526573746F7265206661696C73610D
:101B000066650046696C616D656E74004D6F746941
:101B10006F6E0054656D7065726174757265004D0D
:101B200061696E005072656865617420414253209E
:101B3000636F6E66005072656865617420504C4139
:101B400020636F6E66005049442D44005049442D77
:101B500044005049442D49005049442D4900504902
:101B6000442D50005049442D50002002204661630E
:101B7000740020022046616374002002204D6178C9
:101B8000002002204D6178002002204D696E002067
:101B900002204D696E004F6666004F6E2000417551
:101BA000746F74656D700046616E20737065656456
:101BB0000046616E20737065656400426564004292
:101BC0006564004E6F7A7A6C65004E6F7A7A6C6548
:101BD00000436F6E74726F6C00426564004265640E
:101BE000004E6F7A7A6C65004E6F7A7A6C650046AB
:101BF000616E2073706565640046616E2073706568
:101C000065640054656D706572617475726500423B
:101C1000656400426564004E6F7A7A6C65004E6FB1
:101C20007A7A6C650046616E207370656564004663
:101C3000616E2073706565640054656D70657261D6
:101C400074757265004573746570732F6D6D004512
:101C500073746570732F6D6D005A73746570732F94
:101C60006D6D005A73746570732F6D6D00597374C8
:101C70006570732F6D6D005973746570732F6D6D82
:101C8000005873746570732F6D6D005873746570B0
:101C9000732F6D6D00412D74726176656C00412D5E
:101CA00074726176656C00412D7265747261637443
:101CB00000412D7265747261637400416D6178201A
:101CC0004500416D6178204500416D6178205A00E2
:101CD000416D6178205A00416D6178205900416D55
:101CE0006178205900416D6178205800416D61781C
:101CF0002058005654726176206D696E00565472F9
:101D00006176206D696E00566D696E00566D696E64
:101D100000566D6178204500566D6178204500566B
:101D20006D6178205A00566D6178205A00566D61B9
:101D300078205900566D6178205900566D617820E1
:101D40005800566D617820580056652D6A65726B93
:101D50000056652D6A65726B00567A2D6A65726B46
:101D600000567A2D6A65726B005678792D6A657215
:101D70006B005678792D6A65726B00416363656C00
:101D800000416363656C00436F6E74726F6C004654
:101D9000696C2E204469612E0046696C2E204469CE
:101DA000612E004F6666004F6E20004520696E2050
:101DB0006D6D3300436F6E74726F6C0043616E6EB5
:101DC0006F7420656E746572207375626469723A0F
:101DD0002000052E2E004D61696E004578747275E5
:101DE0006465206D6F726500526573756D65207056
:101DF00072696E74004348414E4745204F50544924
:101E00004F4E533A006368616E6765006F662074D9
:101E100068652066696C616D656E740057616974F0
:101E200020666F72207374617274004348414E479C
:101E3000452046494C414D454E54000066696C6151
:101E40006D656E7420756E6C6F61640057616974A6
:101E500020666F72004348414E47452046494C4139
:101E60004D454E5400746F20636F6E74696E7565D6
:101E70002E2E2E00616E6420707265737320627561
:101E800074746F6E00496E736572742066696C615C
:101E90006D656E74004348414E47452046494C41AC
:101EA0004D454E54000066696C616D656E74206C22
:101EB0006F6164005761697420666F720043484126
:101EC0004E47452046494C414D454E5400006669F9
:101ED0006C616D656E742065787472756465005709
:101EE00061697420666F72004348414E4745204641
:101EF000494C414D454E540000746F207265737516
:101F00006D65005761697420666F72207072696E2A
:101F100074004348414E47452046494C414D454E8B
:101F20005400436172642072656D6F76656400438E
:101F300061726420696E73657274656400000021CB
:101F400000240027002A002D00300033000101008A
:101F500000040107010A0100002200250028002BCF
:101F6000002E003100340002010000050108010BC1
:101F700001000020002300260029002C002F003241
:101F80000000010000030106010901050505050720
:101F90000508080808020202020A0A0808040404E4
:101FA0000401010101010101010303030303030310
:101FB00003040707070C0C0C0C0C0C0C0C0202029F
:101FC0000206060606060606060B0B0B0B0B0B0B92
:101FD0000B01021020200808102040102040800231
:101FE000010201080402010102040810204080805F
:101FF00040201008040201800402018040201008E3
:1020000004020108040201010204081020408001BA
:102010000204081020408000000A0B02090C0D0E7B
:102020000807030401000000000000000000000099
:1020300000000000000000000000000000000000A0
:10204000000000121110000000000000000000005D
:1020500000000000000000000000000000022D2D24
:102060002D2D2D2D007C4D61726C696E7C002D2D07
:102070002D2D2D2D00687474703A2F2F6D61726CA8
:10208000696E66772E6F726700687474703A2F2FCE
:102090006D61726C696E66772E6F72670020312EEB
:1020A000312E302D524337002020506C616E6E650A
:1020B0007242756666657242797465733A200020D3
:1020C00046726565204D656D6F72793A20004E6FDE
:1020D0007620313520323032300A00436F6D70691E
:1020E0006C65643A2000286E6F6E652C206465660E
:1020F00061756C7420636F6E666967290A00207CC5
:1021000020417574686F723A2000323031362D30BC
:10211000372D33312031323A303000204C61737426
:1021200020557064617465643A200020312E312E90
:10213000302D5243370A004D61726C696E00205396
:102140006F6674776172652052657365740A00204A
:102150005761746368646F672052657365740A0021
:102160002042726F776E206F7574205265736574AC
:102170000A002045787465726E616C205265736543
:10218000740A00506F77657255700A00737461723B
:10219000740A006572726F722077726974696E6773
:1021A00020746F2066696C650A00456E6473746FF5
:1021B000707320256320256320256320256300207C
:1021C0005A3A0020593A0020583A00656E647374F8
:1021D0006F7073206869743A2000446F6E652073D5
:1021E0006176696E672066696C652E0A004D32392A
:1021F0000057726974696E6720746F2066696C6538
:102200003A20006F70656E206661696C65642C20F1
:1022100046696C653A20006F70656E206661696C76
:1022200065642C2046696C653A200046696C65201F
:1022300073656C65637465640A002053697A653A56
:10224000200046696C65206F70656E65643A2000F9
:102250006F70656E206661696C65642C2046696CE0
:10226000653A20004E6F7720667265736820666954
:102270006C653A20004E6F7720646F696E67206648
:10228000696C653A20002220706F73002220706113
:1022900072656E743A2200535542524F5554494E5E
:1022A000452043414C4C207461726765743A2200AA
:1022B0004B494C4C45442E2000747279696E67205E
:1022C000746F2063616C6C207375622D67636F643B
:1022D000652066696C6573207769746820746F6F18
:1022E000206D616E79206C6576656C732E204D4192
:1022F00058206C6576656C2069733A0043616E6E98
:102300006F74206F70656E2073756264697220004F
:1023100053442063617264206F6B0A006F70656EB6
:10232000526F6F74206661696C65640A00766F6C29
:10233000756D652E696E6974206661696C65640AE5
:10234000004572726F723A00534420696E697420BE
:102350006661696C0A006175746F25692E67004DAE
:102360003234004D323320257300220A00656E712D
:1023700075657565696E672022006563686F3A0050
:1023800025B79EB411241FBECFEFD1E2DEBFCDBF73
:1023900000E00CBF14E0A0E0B2E0E2E1F3E901E00C
:1023A0000BBF02C007900D92A236B107D9F723E107
:1023B000A2E6B4E001C01D92AB36B207E1F711E12D
:1023C000C1ECD1E100E006C021970109802FFE0198
:1023D0000E94F6C8C03CD10780E00807A9F70E9418
:1023E00059B80C9478C90C94000008950895880F8A
:1023F000991F880F991FFC01EE59F04F40815181C0
:10240000628173818754944FFC01408351836283BE
:102410007383E091740AF091750A81899289A38986
:10242000B4898093700A9093710AA093720AB09352
:10243000730A08959091511080915210981731F0BD
:10244000809152108F5F8F70809352100895109278
:10245000160B60911B0B70911C0B072E000C880B48
:10246000990B0E94AEC120914502309146024091E5
:102470004702509148020E9415C8181624F4109281
:102480001C0B10921B0B089580916605811116C0DC
:1024900020910A0230910B0240910C0250910D02E2
:1024A0006091FB0A7091FC0A8091FD0A9091FE0AEE
:1024B0000E94A8C1881F8827881F089580E008957A
:1024C000CF92DF92EF92FF92C0904902D0904A02E1
:1024D000E0904B02F0904C028091690B882391F1BF
:1024E00020E030E0A901C701B6010E94A8C18823FD
:1024F00049F120E030E040E05FE3C701B6010E940F
:102500000DC26B017C012BED3FE049E450E40E94D9
:102510000DC2A70196010E940DC29B01AC0160E0B3
:1025200070E080E89FE30E94CBC660930E02709338
:102530000F028093100290931102FF90EF90DF90B2
:10254000CF90089560E070E080E89FE3EECF5F9A5F
:10255000E6E9FBE010828A9A11829FB7F894A8E01E
:10256000B1E08C9181608C939FBF1282129A089582
:10257000CF92DF92EF92FF92CF93DF93EC01C09066
:10258000060BD090070BE090080BF090090BA70109
:102590009601688179818A819B810E94A8C187FF09
:1025A00004C0C882D982EA82FB82C0900A0BD09014
:1025B0000B0BE0900C0BF0900D0BA70196016C81BA
:1025C0007D818E819F810E94A8C187FF04C0CC823B
:1025D000DD82EE82FF82C0900E0BD0900F0BE09058
:1025E000100BF090110BA7019601688579858A85FB
:1025F0009B850E94A8C187FF04C0C886D986EA8649
:10260000FB86C0902902D0902A02E0902B02F09025
:102610002C02A7019601688179818A819B810E94A1
:1026200015C8181624F4C882D982EA82FB82C090A9
:102630002D02D0902E02E0902F02F0903002A701E0
:1026400096016C817D818E819F810E9415C818162C
:1026500024F4CC82DD82EE82FF82C0903102D090E1
:102660003202E0903302F0903402A70196016885AF
:1026700079858A859B850E9415C8181624F4C8861A
:10268000D986EA86FB86DF91CF91FF90EF90DF90AD
:10269000CF90089580E1E5E5F5E0A2E7BFE0019085
:1026A0000D928A95E1F70895FC01659175918591E8
:1026B00094910895CF92DF92EF92FF920F931F9320
:1026C000CF93DF93EC01CC0FDD1FCC0FDD1FFE019C
:1026D000E756F44F20E030E0A901608171818281EA
:1026E00093810E94EFC5FE01E75BFA4F20813181A3
:1026F000428153810E94EFC56B017C01CE018C5A4F
:102700009C4FD2DF9B01AC018E010A5F144FC701C1
:10271000B6010E94EFC5F8016083718382839383C1
:10272000CE01885B9C4FC0DF9B01AC01C75DDD4FD4
:10273000C701B6010E94EFC5688379838A839B83B2
:10274000DF91CF911F910F91FF90EF90DF90CF908D
:1027500008958F929F92AF92BF92EF92FF920F9344
:102760001F93CF93DF938C014A015B01EC01CC0FE7
:10277000DD1FCC0FDD1FCE018E58904F7C01C75658
:10278000D44F288139814A815B81CB01B4010E94F9
:10279000EEC5F70120813181428153810E94EFC54E
:1027A000F701608371838283938388829982AA82EE
:1027B000BB82C801DF91CF911F910F91FF90EF90E5
:1027C000BF90AF909F908F9075CF089590E080E07C
:1027D00008950E94499760931305709314058093A0
:1027E000150590931605089510921C0B10921B0B63
:1027F00010921A0B1092190B0E94B39810921C0B96
:1028000010921B0B1092B10A2C9810921A0B109276
:10281000190B1092AF0A9FB7F894E2E0F1E08081C3
:102820008F7D80839FBF08952F923F924F925F923A
:102830006F927F928F929F92AF92BF92CF92DF92D0
:10284000EF92FF920F931F93CF93DF93EB01FC0165
:1028500080809180A280B380C501B40120E831E579
:1028600041E050E00E94B3C5C9016DE671E00E94ED
:10287000B3C86B017C01C501B40120E13EE040E03A
:1028800050E00E94B3C5CA01B90128E130E040E040
:1028900050E00E94B3C5362E272E062F172F8CE34B
:1028A000482E512C612C712CC501B401A301920159
:1028B0000E94B3C5B62EA72ECA01B901A301920189
:1028C0000E94B3C5CB01C114D10469F1AF92BF928C
:1028D0007F936F932F923F92FF92EF92DF92CF926E
:1028E00089EB91E09F938F93DF93CF930E9479C1FF
:1028F0008DB79EB70E960FB6F8949EBF0FBE8DBFD4
:10290000DF91CF911F910F91FF90EF90DF90CF90CB
:10291000BF90AF909F908F907F906F905F904F90FF
:102920003F902F900895E114F104C9F0AF92BF9247
:102930007F936F932F923F92FF92EF9289EA91E0FB
:102940009F938F93DF93CF930E9479C1EDB7FEB72A
:102950003C960FB6F894FEBF0FBEEDBFD1CF012B52
:10296000B9F0AF92BF927F936F932F923F928DE910
:1029700091E09F938F93DF93CF930E9479C18DB79E
:102980009EB70A960FB6F8949EBF0FBE8DBFB8CF04
:10299000892BA9F0AF92BF927F936F9385E991E065
:1029A0009F938F93DF93CF930E9479C1EDB7FEB7CA
:1029B00038960FB6F894FEBF0FBEEDBFA1CFAF9211
:1029C000BF9281E991E09F938F93DF93CF930E9411
:1029D00079C10F900F900F900F900F900F9090CFA4
:1029E000CF93DF93CFEADEE0FE018491882321F0CC
:1029F0000E94BE8B2196F8CFC7EADEE0FE018491EB
:102A0000882321F00E94BE8B2196F8CF659B08C0D9
:102A1000CDEDD3E08991882331F00E94BE8BFACFAF
:102A2000C3EDD3E0F7CF8AE00E94BE8BCFE9DEE0B2
:102A3000FE018491882321F00E94BE8B2196F8CF5D
:102A4000649B08C0C3EDD3E08991882331F00E94D4
:102A5000BE8BFACFCDEDD3E0F7CF8AE00E94BE8BDC
:102A6000C7E9DEE0FE018491882321F00E94BE8B3D
:102A70002196F8CF80910301C3EDD3E081FD02C020
:102A8000CDEDD3E08991882319F00E94BE8BFACF57
:102A90008AE00E94BE8BCFE8DEE0FE0184918823AD
:102AA00021F00E94BE8B2196F8CF80910301C3EDE7
:102AB000D3E080FF02C0CDEDD3E08991882319F0E7
:102AC0000E94BE8BFACF8AE00E94BE8BC7E8DEE090
:102AD000FE018491882321F00E94BE8B2196F8CFBD
:102AE0004B9B08C0C3EDD3E08991882331F00E944D
:102AF000BE8BFACFCDEDD3E0F7CF8AE00E94BE8B3C
:102B0000CFE7DEE0FE018491882321F00E94BE8B96
:102B10002196F8CF4A9908C0C3EDD3E08991882364
:102B200031F00E94BE8BFACFCDEDD3E0F7CF8AE033
:102B3000DF91CF910C94BE8BCF92DF92EF92FF92F8
:102B4000CF93DF93EC016A017B01FE01849188231E
:102B500021F00E94BE8B2196F8CFC701B601DF910C
:102B6000CF91FF90EF90DF90CF900C944E8C0F930D
:102B70001F93CF93DF938C01EB01F801849188239D
:102B800029F00E94BE8B0F5F1F4FF7CFBE01DD0FF4
:102B9000880B990BDF91CF911F910F910C944E8C64
:102BA0004F925F926F927F928F929F92AF92BF925D
:102BB000CF92DF92EF92FF920F931F93CF93DF9309
:102BC000CDB7DEB72C970FB6F894DEBF0FBECDBFE2
:102BD00080919F029091A002A091A102B091A202C7
:102BE00089879A87AB87BC8788E0E3EAF2E0DE0159
:102BF000119601900D928A95E1F7EE24E39420E07E
:102C000030E048E452E46091FB0A7091FC0A809144
:102C1000FD0A9091FE0A0E9415C818160CF0E12CCE
:102C20006E0189E0C80ED11C8E010F5F1F4F5E013F
:102C3000EDE0AE0EB11C712CF12C88248394912C04
:102C4000F60151906F0157FC25C0F8016080872D77
:102C500090E0062C02C0959587950A94E2F780FDD6
:102C600019C0B701062C02C0759567950A94E2F762
:102C70006170462E4194642D852D0E943590642DFF
:102C800070E0852D0E944196C40101C0880F6A94AE
:102C9000EAF7782A0E5F1F4FCA14DB0489F62C96D8
:102CA0000FB6F894DEBF0FBECDBFDF91CF911F915D
:102CB0000F91FF90EF90DF90CF90BF90AF909F90DB
:102CC0008F907F906F905F904F9008954F925F929A
:102CD0006F927F92AF92BF92CF92DF92EF92FF926C
:102CE0000F931F93CF93DF938C01EB01FC0146A060
:102CF00057A060A471A4AEA0BFA0C8A4D9A4950198
:102D0000A601C301B2010E94A8C187FF3DC0A30173
:102D10009201C301B2010E940DC22B013C01F801D6
:102D200062A973A984A995A990589B01AC010E943E
:102D3000EFC5F80126A537A540A951A90E940DC2EB
:102D40009B01AC01C301B2010E94EEC50E945AC8AA
:102D50007B018C019B01AC01B501C6010E94A8C199
:102D600087FF02C0750186019701A801B501C60160
:102D70000E94A8C1882341F0C701D8018EA39FA358
:102D8000A8A7B9A781E08EABDF91CF911F910F91DA
:102D9000FF90EF90DF90CF90BF90AF907F906F90BB
:102DA0005F904F9008954F925F926F927F928F92B3
:102DB0009F92AF92BF92CF92DF92EF92FF920F93CA
:102DC0001F93CF93DF93CDB7DEB76A970FB6F89412
:102DD000DEBF0FBECDBF9A8F898F4A015B013901DB
:102DE000DC01D8966D917D918D919C91DB970E942D
:102DF000ACC16B017C01A50194010E940DC20E942F
:102E0000B5C60E9438C74B015C01A3019801C701F8
:102E1000B6010E940DC20E94B5C60E9438C78D82BD
:102E20009E82AF82B8862D813E814F81588528379A
:102E300031054105510540F428E730E040E050E01D
:102E40002D833E834F83588769837A838B839C834A
:102E500089819A81AB81BC8188379105A105B10533
:102E600040F428E730E040E050E029833A834B8388
:102E70005C83E98DFA8DEC5BFF4F80819181A281AB
:102E8000B3818D879E87AF87B88BBC01CD010E942F
:102E9000AEC169877A878B879C876D817E818F81A0
:102EA00098850E94ACC1698B7A8B8B8B9C8B20E0C0
:102EB00030E0A90169857A858B859C850E94A8C12F
:102EC000882309F439C1A7019601C701B6010E9400
:102ED0000DC24B015C0129893A894B895C89CA0181
:102EE000B9010E940DC29B01AC01C501B4010E9451
:102EF000EEC54B015C0129853A854B855C85CA018D
:102F0000B9010E94EFC59B01AC01C501B4010E944B
:102F1000CBC60E94B5C60E9433C72B013C016D850C
:102F20007E858F85988990958095709561957F4F66
:102F30008F4F9F4F0E94AEC14B015C0169817A8126
:102F40008B819C810E94ACC16D877E878F87988B17
:102F500020E030E0A901C501B4010E94A8C1882386
:102F600009F4EEC02D853E854F855889CA01B90107
:102F70000E940DC26D8B7E8B8F8B988FA70196015F
:102F8000C701B6010E940DC29B01AC016D897E890B
:102F90008F89988D0E94EEC56B017C01A50194017B
:102FA000C501B4010E94EFC59B01AC01C701B60188
:102FB0000E94CBC60E9464C7A98DBA8D51968D9090
:102FC0009D90AD90BC90549775016401C418D508CC
:102FD000E608F7080E9433C7C61AD70AE80AF90AB2
:102FE000F7FE67C020E030E0A90169857A858B850E
:102FF0009C850E94A8C1882309F4A6C0C501B4011C
:103000000E94ACC16B017C0129853A854B855C85AA
:10301000CA01B9010E94EFC59B01AC01C701B6010D
:103020000E940DC26B017C0129893A894B895C8918
:10303000CA01B9010E940DC29B01AC01C701B601D2
:103040000E94EEC56B017C012D853E854F85588918
:10305000CA01B9010E940DC29B01AC01C701B601B2
:103060000E94EFC56B017C0120E030E040E850E4B5
:1030700069857A858B859C850E940DC29B01AC0178
:10308000C701B6010E94CBC60E94B5C60E9433C7D5
:103090002B013C0177FE03C0412C512C3201481416
:1030A00059046A047B0410F024013501C12CD12C91
:1030B00076018FB7F894E98DFA8DE45BFF4F90812C
:1030C000911122C0E98DFA8D458A568A678A708EE1
:1030D000C40CD51CE61CF71CDF01C18ED28EE38E1A
:1030E000F48E2D813E814F81588524AF35AF46AF98
:1030F00057AFA05CBF4F29813A814B815C812D93F2
:103100003D934D935C9313978FBF6A960FB6F894D7
:10311000DEBF0FBECDBFDF91CF911F910F91FF900A
:10312000EF90DF90CF90BF90AF909F908F907F9067
:103130006F905F904F90089560E070E0CB01E9CE12
:1031400060E070E0CB0136CF60E070E0CB019CCF57
:103150002F923F924F925F926F927F928F929F92A7
:10316000AF92BF92CF92DF92EF92FF920F931F9395
:10317000CF93DF9300D000D0CDB7DEB79A83898399
:103180000E944997A981BA811696CD90DD90ED9065
:10319000FC901997C114D104E104F10409F010C3A3
:1031A0001C962C911C97222309F44DC01A96EC9181
:1031B0001A9721501C962C931C9721E02E0F1A96DB
:1031C0002C931A971D963C911D97231302C01A96B3
:1031D0001C92F0E03196EE0FFF1FEE0FFF1F2981CA
:1031E0003A81E20FF31FC284D384E484F584D901C9
:1031F0001296CD92DD92ED92FC9215976C0D7D1D8D
:10320000811D911DF9016683778380879187848171
:103210009581892BC1F0FFB7FD83F894A981BA810C
:1032200012962D903C9013972101712C612C1496CD
:103230000D911C9180914F028532F1F08F3F09F47E
:1032400097C0FD81FFBF26960FB6F894DEBF0FBE74
:10325000CDBFDF91CF911F910F91FF90EF90DF9045
:10326000CF90BF90AF909F908F907F906F905F9026
:103270004F903F902F900895EDE5F0E2B491BE831A
:10328000B7FDDFCF61E085E20E9482959E819923A0
:1032900021F0AE81A23009F0BEC14801B12CA12CB1
:1032A00060E072E18AE790E0A50198010E94DAC827
:1032B00029833A834B835C8369017A01B1E0CB1A9D
:1032C000D108E108F108EFEFCE16D104E104F104D2
:1032D00009F00CF470C160E472E48FE090E0A501A5
:1032E00098010E94DAC869017A01F1E0CF1AD10889
:1032F000E108F1082E81223009F011C182E03FEF90
:10330000C316D104E104F10409F00CF4B8C260E979
:1033100070ED83E090E0A50198010E94DAC8690190
:103320007A0181E0C81AD108E108F10883E09FEF33
:10333000C916D104E104F10409F00CF4A0C268E458
:1033400078EE81E090E0A50198010E94DAC8690159
:103350007A0181E0C81AD108E108F1089FEFC91687
:10336000D104E104F10411F00CF0FDC084E087C247
:1033700085E280934F02EDE5F0E224912E83822FC7
:103380002F3F09F45ECF223009F469C060F4222394
:1033900081F1213009F445C087FD53CF61E085E21A
:1033A0000E94829576CF3E81343009F49AC008F4A9
:1033B00078C0353089F71092200110922101809158
:1033C0002101886080932101809121018160809397
:1033D0002101E0EBFFE1E491F0E0EE0FFF1FE95A7D
:1033E000F04E85919491E6EFFFE1E491E093620461
:1033F00049CF14BC15BC84B5826084BD85B581609D
:1034000085BDE0EBFFE1E491F0E0EE0FFF1FE95A2C
:10341000F04E85919491E6EFFFE1E491E09366042C
:1034200031CF1092800010928100809181008860DD
:103430008093810080918100816080938100E0EB26
:10344000FFE1E491F0E0EE0FFF1FE95AF04E8591A5
:103450009491E6EFFFE1E491E093650413CF1092BD
:10346000B0001092B1008091B00082608093B000F3
:103470008091B10081608093B100E0EBFFE1E491C5
:10348000F0E0EE0FFF1FE95AF04E85919491909372
:103490007A0B8093790BE6EFFFE1E491E0937B0BED
:1034A000F1CE10929000109291008091910088606E
:1034B0008093910080919100816080939100E0EB76
:1034C000FFE1E491F0E0EE0FFF1FE95AF04E859125
:1034D0009491E6EFFFE1E491E093640483E08E834E
:1034E000D1CE1092A0001092A1008091A10088601E
:1034F0008093A1008091A10081608093A100E0EB06
:10350000FFE1E491F0E0EE0FFF1FE95AF04E8591E4
:103510009491E6EFFFE1E491E0936304B3CEAFEF63
:10352000CA16D104E104F10409F00CF472C068E495
:1035300078EE81E090E0A50198010E94DAC8690167
:103540007A01B1E0CB1AD108E108F108EE81EE234F
:1035500009F461C1EFEFCE16D104E104F10411F0DA
:103560000CF062C103CF64E274EF80E090E0A5014B
:1035700094010E94DAC869017A01F1E0CF1AD108FA
:10358000E108F10885E02FEFC216D104E104F1044F
:1035900009F008F474C162E17AE780E090E0A501E7
:1035A00094010E94DAC869017A01A1E0CA1AD1081F
:1035B000E108F1084BC181E0AE81A11160C195B570
:1035C000987F892B85BD2FEF3FEFA901452846281D
:1035D000472809F059C0BE81B23009F4E1C00CF0AF
:1035E000C8C0BB2309F4CDC0B13009F02ACED092B7
:1035F0008900C09288002093730430937404409330
:1036000075045093760480916F00826080936F0000
:1036100018CE82E0D1CFB12CA12C60E072E18AE714
:1036200090E0A50198010E94DAC869017A01B1E031
:10363000CB1AD108E108F10891E0C114D104E1E00E
:10364000EE06F10484F068E478EE81E090E0A501F4
:1036500098010E94DAC869017A01F1E0CF1AD10815
:10366000E108F10893E02E812130D9F480918100A6
:10367000887F892B809381002FEF3FEFA901452898
:103680004628472809F4B3CF9801220F331FD101F0
:103690000E94DFC528EE33E040E050E00E94B3C551
:1036A0009ACF3E813330F9F480919100887F892B45
:1036B000809391002FEF3FEFA90145284628472826
:1036C00019F7D0929900C092980020936F0430931C
:1036D0007004409371045093720480917100826071
:1036E00080937100AECD8E818430F9F48091A10079
:1036F000887F892B8093A1002FEF3FEFA9014528F8
:103700004628472809F6D092A900C092A800209325
:103710006B0430936C0440936D0450936E0480915D
:1037200072008260809372008CCDAE81A53009F06A
:103730004ACF80912101887F892B809321012FEF2F
:103740003FEFA90145284628472809F09DCFD09290
:103750002901C092280120936704309368044093A4
:10376000690450936A0480917300826080937300AF
:1037700068CDEE81E43039F20CF4A3CFE53039F3B3
:1037800060CDC7BC209377043093780440937904CC
:1037900050937A0480916E00826080936E0051CDC8
:1037A000C092B30020937C0B30937D0B40937E0B33
:1037B00050937F0B8091700082608093700041CDA8
:1037C0006C197D098E099F0997FD3DCD4098A9810F
:1037D000BA8116961D921D921D921C92199733CD97
:1037E00084E0EFEFCE16D104E104F10409F008F40F
:1037F000E6CEC980DA80EB80FC809AE0F594E7940D
:10380000D794C7949A95D1F7B1E0CB1AD108E108C3
:10381000F10885E0D4CE83E0BFEFCB16D104E104FC
:10382000F10409F00CF4CBCE62E17AE780E090E09D
:10383000A50194010E94DAC869017A0181E0C81AE1
:10384000D108E108F1089E81992351F286E02FEF1B
:10385000C216D104E104F10491F088F0C980DA8045
:10386000EB80FC808AE0F594E794D794C7948A951E
:10387000D1F7F1E0CF1AD108E108F10887E0909183
:10388000B100987F892B8093B1009DCE682F880F5F
:10389000770B8091F3049091F4040E9440C99C013D
:1038A0009093E7048093E60481E0232B09F480E001
:1038B00008954F925F926F927F928F929F92AF92F4
:1038C000BF92CF92DF92EF92FF92CF93DF93CDE240
:1038D000D4E0FE018491882321F00E94BE8B2196C2
:1038E000F8CF6091720F7091730F8091740F909167
:1038F000750F42E00E94718CC9E2D4E0FE01849110
:10390000882321F00E94BE8B2196F8CF6091760F1C
:103910007091770F8091780F9091790F42E00E941B
:10392000718CC5E2D4E0FE018491882321F00E94CD
:10393000BE8B2196F8CF60917A0F70917B0F8091AA
:103940007C0F90917D0F42E00E94718CC1E2D4E027
:10395000FE018491882321F00E94BE8B2196F8CF2E
:1039600060917E0F70917F0F8091800F9091810FF9
:1039700042E00E94718C8FB7F8944090620F509093
:10398000630F6090640F7090650F8090660F909049
:10399000670FA090680FB090690FC0906A0FD09029
:1039A0006B0FE0906C0FF0906D0F8FBFC6E1D4E00D
:1039B000FE018491882321F00E94BE8B2196F8CFCE
:1039C000C301B2010E944E8CC2E1D4E0FE01849199
:1039D000882321F00E94BE8B2196F8CFC501B40147
:1039E0000E944E8CCEE0D4E0FE018491882321F029
:1039F0000E94BE8B2196F8CFC701B6010E944E8C63
:103A00008AE0DF91CF91FF90EF90DF90CF90BF9051
:103A1000AF909F908F907F906F905F904F900C949D
:103A2000BE8BCF93DF93CBEDD3E0FE01849188234F
:103A300021F00E94BE8B2196F8CF6091FB0A709115
:103A4000FC0A8091FD0A9091FE0A41E00E94718C6F
:103A5000C8EDD3E0FE018491882321F00E94BE8B43
:103A60002196F8CF60911B0B70911C0B072E000C58
:103A7000880B990B0E94AEC141E00E94718CC4ED8D
:103A8000D3E0FE018491882321F00E94BE8B219611
:103A9000F8CF6091F70A7091F80A8091F90A909135
:103AA000FA0A41E00E94718CC1EDD3E0FE018491DD
:103AB000882321F00E94BE8B2196F8CF6091190BCC
:103AC00070911A0B072E000C880B990B0E94AEC147
:103AD00041E00E94718CCDECD3E0FE0184918823FB
:103AE00021F00E94BE8B2196F8CFE091EC04F0E02B
:103AF000EF54F54F608170E090E080E00E944E8CC2
:103B0000C8ECD3E0FE018491882321F00E94BE8B93
:103B10002196F8CF6091AF0A70E090E080E0DF91ED
:103B2000CF910C944E8C8091E6049091E7044AE08A
:103B300050E070E060E001960E9405BF97FD1EC056
:103B40008091E6049091E7044AE050E070E060E084
:103B500001960E9405BF6F3F71058105910509F02F
:103B60007CF48091E6049091E7044AE050E070E034
:103B700060E001960E9405BF862F089580E00895B9
:103B80008FEF0895EF92FF920F931F93CF938C01C5
:103B900084E57CDEC82F882381F1C5DF882341F1CD
:103BA0008AE7E82E83E2F82EF7018491882331F02A
:103BB0000E94BE8BFFEFEF1AFF0AF6CF8DE40E9442
:103BC000BE8BB801110F880B990B0E944E8CABDF96
:103BD000682F70E085E393E00E94B7158AE00E94A9
:103BE000BE8B8C2FCF911F910F91FF90EF90089576
:103BF0009ADF8093EC04C0E0F4CF8091ED048093D1
:103C0000EC04EFCF8091E6049091E7044AE050E0A5
:103C100070E060E001960E9405BFCB010895EF922D
:103C2000FF920F931F93CF93DF93CDB7DEB76997C2
:103C30000FB6F894DEBF0FBECDBF83E527DE882325
:103C400099F0E0DF8E34910579F40E94E58F699652
:103C50000FB6F894DEBF0FBECDBFDF91CF911F919D
:103C60000F91FF90EF9008951E8A1F8A188E198E6B
:103C700000EC13E0F8018491882329F00E94BE8BA8
:103C80000F5F1F4FF7CF07EB13E0F80184918823F4
:103C900029F00E94BE8B0F5F1F4FF7CF60917F10FE
:103CA0007091801090E080E04AE00E94C58B0AEAA3
:103CB00013E0F8018491882329F00E94BE8B0F5FE6
:103CC0001F4FF7CF609181107091821090E080E0DB
:103CD0004AE00E94C58B0FE913E0F8018491882324
:103CE00029F00E94BE8B0F5F1F4FF7CF60917F10AE
:103CF000709180108091811090918210681B790BD7
:103D00008091711090917210019721E030E002973C
:103D100010F030E020E0621B730B90E080E04AE09E
:103D20000E94C58B8AE00E94BE8B07E913E0F80170
:103D30008491882329F00E94BE8B0F5F1F4FF7CF1D
:103D40008091831090918410A0918510B09186107D
:103D50008E8B9F8BA88FB98FBE016F5F7F4FCE0177
:103D600046960E9414140AE813E0F8018491811128
:103D70000CC0CE0101967C018C01F80181918F016C
:103D8000882341F00E94BE8BF8CF0E94BE8B0F5F4C
:103D90001F4FEBCF8091871090918810A0918910D0
:103DA000B0918A108E8B9F8BA88FB98FBE016F5FE9
:103DB0007F4FCE0146960E9414140AE713E0F801E3
:103DC0008491882329F00E94BE8B0F5F1F4FF7CF8D
:103DD000F70181917F01882319F00E94BE8BF8CFF3
:103DE0008AE00E94BE8B02E713E0F80184918823E9
:103DF00029F00E94BE8B0F5F1F4FF7CF02E613E042
:103E0000F8018491882329F00E94BE8B0F5F1F4F19
:103E1000F7CF20E030E04AE754E460918B107091D6
:103E20008C1080918D1090918E100E94CBC642E034
:103E30000E94718C00E613E0F8018491882329F038
:103E40000E94BE8B0F5F1F4FF7CF8AE00E94BE8B90
:103E5000FECE8091E6049091E7044AE050E070E0E5
:103E600060E001960C9430C00F931F93CF93DF93C3
:103E7000C091E604D091E70465E470E0CE010E94B1
:103E800040C98C01CE0101960115110571F0F801B0
:103E9000108270E060E00E94B0BD25E4F80120834C
:103EA000DF91CF911F910F91089570E060E0DF9155
:103EB000CF911F910F910C94B0BDCF92DF92EF92F2
:103EC000FF920F931F93CF93DF9381E2C82E83E07D
:103ED000D82E95E5E92E95E0F92E02E71FE0D0E017
:103EE000C0E0F60181916F01D1DC882309F471C033
:103EF000BBDF9B01AC01FE01E251FB4F80818111D0
:103F000005C08091F204882309F45FC0F801608144
:103F10007181828193810E94EFC5F7016083718373
:103F2000828393832196F4E0EF0EF11C0C5F1F4F08
:103F3000C430D105B1F686E4A9DC882389F094DF8A
:103F400020E030E0A9010E9415C818164CF48CDF5F
:103F50006093000270930102809302029093030227
:103F600080916C0583FD28C080919910882321F1F0
:103F700020917E0F30917F0F4091800F5091810FE3
:103F8000609161057091620580916305909164056F
:103F90000E94EEC520918B1030918C1040918D10B5
:103FA00050918E100E94EFC560938B1070938C100F
:103FB00080938D1090938E10DF91CF911F910F9170
:103FC000FF90EF90DF90CF90089560E070E0CB011C
:103FD000A2CFF80180819181A281B381F701808312
:103FE0009183A283B3839ECFCF92DF92EF92FF9211
:103FF000CF93C82F0E9449976B017C0124EA30E7D8
:104000004DE75FE36091120B7091130B8091140BDD
:104010009091150B0E94A8C187FD18C08AEF90E00F
:10402000A0E0B0E08C0D9D1DAE1DBF1D80936D0BFB
:1040300090936E0BA0936F0BB093700BC0934D02D7
:10404000CF91FF90EF90DF90CF90089580E090E0C7
:10405000DC01E8CFCF93DF93E0916002F091610241
:10406000E817F907D1F0EC019093610280936002A8
:1040700083E080935F022093C70B3093C80B40937B
:10408000C90B5093CA0B61110E94DB9EC654D942E2
:1040900021F41092710B1092EE0ADF91CF910895E6
:1040A00020E030E0A90160E086E499E2D3CFE0911E
:1040B000EE0AEE2389F0E150E093EE0A96E0E99FE4
:1040C000F0011124EE54F54F228133814481558152
:1040D000682F80819181BECFE3CFEF92FF920F9343
:1040E000CF93DF93D82F7A01C22F80E00E9498915E
:1040F000D11101C0C0E28C2F0E94C891C2E1F7012A
:104100006491662359F0CC2379F085E190E10E9417
:10411000A991C150FFEFEF1AFF0AF1CFC15020F073
:1041200080E20E94C891FACF802FDF91CF910F914A
:10413000FF90EF900C94C891DF92EF92FF920F9353
:104140001F93CF93DF931092760B8091C70B9091C2
:10415000C80BA091C90BB091CA0B81309048A10542
:10416000B10540F01092C70B1092C80B1092C90B0A
:104170001092CA0B6091C70B7091C80B8091C90B4C
:104180009091CA0B25E030E040E050E00E94B3C5BA
:10419000C22F8091030B1816F4F4482F082E000C40
:1041A000550B41505109022E000C330B24173507D3
:1041B00094F0CFEFC80F25E0C29FC0011124092E53
:1041C000000CAA0BBB0B8093C70B9093C80BA0935A
:1041D000C90BB093CA0B80916C0BC81714F4C09331
:1041E0006C0B80916C0B082E000C990B03962C2FF6
:1041F0000C2E000C330B8217930724F48DEF8C0FD9
:1042000080936C0B1091780B1470D0916C0BFD2E79
:1042100084E0E82EED0EDD2ED194D1111DC08091E9
:104220005F02882349F081E0C11180E003E023E0D0
:1042300041EA59E16D2D51DF112309F47DC0C1110F
:104240007BC00E94DB9EDF91CF911F910F91FF9069
:10425000EF90DF900C94D89ED13009F045C080914A
:104260005F02882359F06D2F6F1981E0C13009F08A
:1042700080E000E22EE345E959E12FDF112309F444
:104280005BC0C13009F058C00E94DB9EE090210B5A
:10429000F090220B00911D0B10911E0BC0911F0B73
:1042A000D091200BBE010D2E000C880B990B0E94A3
:1042B000AEC120E030E0A9010E9415C8181624F410
:1042C000D0931C0BC0931B0B10931A0B0093190B6C
:1042D000F092180BE092170BDF91CF911F910F9185
:1042E000FF90EF90DF90DCCED23031F580915F020D
:1042F000882359F06D2F6F1981E0C23009F080E0FA
:1043000000E22EE345E859E1E8DE1123A9F0C230CE
:1043100099F40E94DB9E8091210B9091220B2091B9
:104320001D0B30911E0B30931A0B2093190B909399
:10433000180B8093170BD0CFDF5FED126ECF83E0A9
:104340008093030BDF91CF911F910F91FF90EF901E
:10435000DF900895DF92EF92FF920F931F93CF9318
:10436000DF931092760B8091C70B9091C80BA091B0
:10437000C90BB091CA0B81309048A105B10540F03E
:104380001092C70B1092C80B1092C90B1092CA0B57
:104390006091C70B7091C80B8091C90B9091CA0BAB
:1043A00025E030E040E050E00E94B3C5C22F80918C
:1043B000040B1816F4F4482F082E000C550B41502E
:1043C0005109022E000C330B2417350794F0CFEF60
:1043D000C80F25E0C29FC0011124092E000CAA0BB2
:1043E000BB0B8093C70B9093C80BA093C90BB093E2
:1043F000CA0B80916C0BC81714F4C0936C0B80919E
:104400006C0B082E000C990B03962C2F0C2E000C15
:10441000330B8217930724F48DEF8C0F80936C0B72
:104420001091780B1470D0916C0BFD2E84E0E82E67
:10443000ED0EDD2ED194D1111DC080915F02882335
:1044400049F081E0C11180E003E023E045EC59E14F
:104450006D2D43DE112309F47DC0C1117BC00E9484
:10446000DB9EDF91CF911F910F91FF90EF90DF9036
:104470000C94D89ED13009F045C080915F0288230A
:1044800059F06D2F6F1981E0C13009F080E000E232
:104490002EE349EB59E121DE112309F45BC0C13061
:1044A00009F058C00E94DB9EE090270BF090280B8B
:1044B0000091230B1091240BC091250BD091260B5A
:1044C000BE010D2E000C880B990B0E94AEC120E09E
:1044D00030E0A9010E9415C8181624F4D0931C0BD3
:1044E000C0931B0B10931A0B0093190BF092180B2F
:1044F000E092170BDF91CF911F910F91FF90EF90FA
:10450000DF90CECDD23031F580915F02882359F013
:104510006D2F6F1981E0C23009F080E000E22EE3D8
:1045200049EA59E1DADD1123A9F0C23099F40E9479
:10453000DB9E8091270B9091280B2091230B3091CB
:10454000240B30931A0B2093190B9093180B809324
:10455000170BD0CFDF5FED126ECF83E08093040B9B
:10456000DF91CF911F910F91FF90EF90DF90089511
:104570000F931F93CF938C01C0E0F801EC0FF11D56
:104580006081662331F085E190E10E94A991CF5FBF
:10459000F4CF8C2FCF911F910F9108951F93CF933C
:1045A000DF93182FEC018C2F811BFE016491219663
:1045B000662329F085E190E10E94A991F4CFDF9173
:1045C000CF911F9108950F931F93CF93DF938C0189
:1045D000EB0161E081E00E949891C801DFDF209744
:1045E000A9F08AE30E94C891FE019F012C1B3D0B9C
:1045F00081918111FACF61E084E1821B0E94989140
:10460000CE01DF91CF911F910F91B2CFDF91CF916A
:104610001F910F9108952F923F924F925F926F9248
:104620007F928F929F92AF92BF92CF92DF92EF9242
:10463000FF920F931F93CF93DF9300D01F92CDB7BC
:10464000DEB7E091780BE2FF18C081E00F900F9089
:104650000F900F90DF91CF911F910F91FF90EF90EE
:10466000DF90CF90BF90AF909F908F907F906F9092
:104670005F904F903F902F901ACD670178014901CC
:104680005A018B019A8389838091C70B9091C80B43
:10469000A091C90BB091CA0B892B8A2B8B2B09F4E3
:1046A00059C00E94E9136091C70B7091C80B8091AB
:1046B000C90B9091CA0B0E94AEC12091120B309190
:1046C000130B4091140B5091150B0E940DC2180151
:1046D000220C331C220C331C91012E58304F3C838A
:1046E0002B83F90120813181428153810E94EFC5E2
:1046F0002B013C01A50194010E94A8C1EB81FC8122
:1047000087FD4FC0408251826282738291012E5890
:10471000304F3C832B83A7019601EB81FC816081A4
:104720007181828193810E9415C8181634F4EB813F
:10473000FC81C082D182E282F3821092C70B109278
:10474000C80B1092C90B1092CA0BC8014DDC81E056
:1047500080935F0280915F02882341F1C801880F36
:10476000991F880F991F8E58904F0E94809BBC0103
:1047700089819A810F900F900F900F90DF91CF91C8
:104780001F910F91FF90EF90DF90CF90BF90AF906F
:104790009F908F907F906F905F904F903F902F9061
:1047A00012CF80829182A282B382B0CF0F900F90FD
:1047B0000F900F90DF91CF911F910F91FF90EF908D
:1047C000DF90CF90BF90AF909F908F907F906F9031
:1047D0005F904F903F902F900895CF93DF93CDB788
:1047E000DEB7C054D1090FB6F894DEBF0FBECDBFFF
:1047F00088E0EBEAF2E0DE01119601900D928A95D5
:10480000E1F788E0E3EBF2E0DE01199601900D920A
:104810008A95E1F788E0EBEBF2E0DE01519601903A
:104820000D928A95E1F788E0E3ECF2E0DE0159961B
:1048300001900D928A95E1F788E0EBECF2E0DE0161
:10484000919601900D928A95E1F788E0E3EDF2E010
:10485000DE01999601900D928A95E1F788E0EBEDE3
:10486000F2E0DE01D19601900D928A95E1F788E0A1
:10487000E3EEF2E0DE01D99601900D928A95E1F720
:10488000BE016F5F7F4F80E00E94AE91BE01675F07
:104890007F4F81E00E94AE91BE016F5E7F4F82E04C
:1048A0000E94AE91BE01675E7F4F83E00E94AE9191
:1048B000BE016F5D7F4F84E00E94AE91BE01675DD7
:1048C0007F4F85E00E94AE91BE016F5C7F4F86E016
:1048D0000E94AE91BE01675C7F4F87E00E94AE915F
:1048E000C05CDF4F0FB6F894DEBF0FBECDBFDF91C7
:1048F000CF91089564E084E10E94B3956EDF0C943B
:1049000091914F925F926F927F92AF92BF92CF92AE
:10491000DF92EF92FF920F931F93CF93DF9324E0E8
:1049200030E041E050E0D901AE5CB84EFD01659148
:104930007491861797070CF066C041505109440FD7
:10494000551F440F551FEA01CC5CD84EFE0105915E
:1049500014914E5C584EFA0165917491F901EC5C2A
:10496000F84EE590F490FE01C590D490FD01C591FC
:10497000D491FA01A590B490861B970BBC01990FB6
:10498000880B990B0E94AEC12B013C01B7016C1939
:104990007D09072E000C880B990B0E94AEC19B016C
:1049A000AC01C301B2010E940DC26B017C01BE01CA
:1049B0006A197B09072E000C880B990B0E94AEC167
:1049C0009B01AC01C701B6010E94CBC66B017C0103
:1049D000B801110F880B990B0E94AEC19B01AC016D
:1049E000C701B6010E94EFC5DF91CF911F910F91D2
:1049F000FF90EF90DF90CF90BF90AF907F906F903F
:104A00005F904F9008954F5F5F4F2C5F3F4F243F63
:104A1000310509F088CFE4E2F8E165917491072E41
:104A2000000C880B990B0E94AEC1DECF4F925F92B3
:104A30006F927F92AF92BF92CF92DF92EF92FF92EE
:104A40000F931F93CF93DF9324E030E041E050E0D9
:104A5000D901AE5CB84EFD01659174918617970738
:104A60000CF066C041505109440F551F440F551FAB
:104A7000EA01CC5CD84EFE01059114914E5C584E73
:104A8000FA0165917491F901EC5CF84EE590F490AF
:104A9000FE01C590D490FD01C591D491FA01A59075
:104AA000B490861B970BBC01990F880B990B0E9441
:104AB000AEC12B013C01B7016C197D09072E000C1A
:104AC000880B990B0E94AEC19B01AC01C301B201DE
:104AD0000E940DC26B017C01BE016A197B09072E81
:104AE000000C880B990B0E94AEC19B01AC01C70161
:104AF000B6010E94CBC66B017C01B801110F880B77
:104B0000990B0E94AEC19B01AC01C701B6010E9486
:104B1000EFC5DF91CF911F910F91FF90EF90DF9044
:104B2000CF90BF90AF907F906F905F904F9008951F
:104B30004F5F5F4F2C5F3F4F243F310509F088CF17
:104B4000E4E2F8E165917491072E000C880B990B53
:104B50000E94AEC1DECF8091960A9091970AD1DE75
:104B60006093FB0A7093FC0A8093FD0A9093FE0AFF
:104B70008091940A9091950A59DF6093F70A709397
:104B8000F80A8093F90A9093FA0AA8958FB7F894D7
:104B90001092980A8FBF08952F923F924F925F9282
:104BA0006F927F928F929F92AF92BF92CF92DF923D
:104BB000EF92FF920F931F93CF93DF93CDB7DEB7A2
:104BC00062970FB6F894DEBF0FBECDBF8091980AF2
:104BD000882309F4E7C1BFDF0E94499769877A8774
:104BE0008B879C8720911B0B30911C0B3A83298368
:104BF0004090FB0A5090FC0A6090FD0A7090FE0AFB
:104C0000B901330F880B990B0E94AEC1A301920129
:104C10000E94EEC54B015C0120ED3CEC4CE45DE3F1
:104C20006091390270913A0280913B0290913C026E
:104C30000E940DC26B017C0120918C0A30918D0A7B
:104C400040918E0A50918F0AC301B2010E94EEC5B5
:104C50009B01AC01C701B6010E940DC26B017C0132
:104C600023E333E343E75FE36091880A7091890AA5
:104C700080918A0A90918B0A0E940DC29B01AC011F
:104C8000C701B6010E94EFC56B017C01C092880A82
:104C9000D092890AE0928A0AF0928B0A40928C0A9A
:104CA00050928D0A60928E0A70928F0A20E030E056
:104CB00040E251E4C501B4010E9415C818160CF079
:104CC0008AC181E08093870AC12CD12C3FE7E32E73
:104CD00033E4F32E6091840B7091850B072E000C4A
:104CE000880B990B0E94AEC1A30192010E94A8C13A
:104CF00087FF4DC26091520270915302072E000C43
:104D0000880B990B0E94AEC1A30192010E9415C8A5
:104D100018160CF03CC2C701B6010E9433C7759546
:104D200067956093B10A8091900A9091910AA09141
:104D3000920AB091930A29853A854B855C85281B98
:104D4000390B4A0B5B0BDA01C901B7FD12C00E9497
:104D5000D01589859A85AB85BC858C53964FAF4F0E
:104D6000BF4F8093900A9093910AA093920AB093B8
:104D7000930A8090F70A9090F80AA090F90AB090F0
:104D8000FA0A6091190B70911A0B072E000C880B10
:104D9000990B0E94AEC1A50194010E94EEC56B0162
:104DA0007C0120911C0230911D0240911E02509105
:104DB0001F020E940DC269837A838B839C8320919A
:104DC0007F0A3091800A4091810A5091820AC7017E
:104DD000B6010E94EFC52B013C0130918A0B3D8743
:104DE00040918B0B498710918C0B00918D0B232FD9
:104DF000342F412F502F0E94A8C187FD18C0509119
:104E0000860B5D878091870B89871091880B0091B5
:104E1000890B252F382F412F502FB201C3010E943B
:104E200015C8181624F04D865986162D072D8D8528
:104E30009985A12FB02F80937F0A9093800AA09329
:104E4000810AB093820A2091560230915702409114
:104E5000580250915902BC01812F902F0E940DC21F
:104E60006D837E838F83988720ED3CEC4CE45DE37B
:104E7000609118027091190280911A0290911B02A0
:104E80000E940DC22B013C0120917B0A30917C0ACB
:104E900040917D0A50917E0AC501B4010E94EEC581
:104EA0009B01AC01C301B2010E940DC22B013C0168
:104EB00023E333E343E75FE36091770A7091780A75
:104EC0008091790A90917A0A0E940DC29B01AC01EF
:104ED000C301B2010E94EFC52B013C014092770A49
:104EE0005092780A6092790A70927A0A80927B0ACC
:104EF00090927C0AA0927D0AB0927E0A2D813E811A
:104F00004F81588569817A818B819C810E94EFC590
:104F1000A30192010E94EEC52B013C0120E030E08C
:104F20004FE753E40E9415C820E030E0A9011816AD
:104F30000CF02FC1C701B6010E9415C8181684F4E1
:104F4000A70196016D857985812F902F0E94EEC56E
:104F500060937F0A7093800A8093810A9093820AFB
:104F6000412C512C9FE7692E93E4792E20E030E00C
:104F7000A901C501B4010E9415C818160CF02CC176
:104F800020E030E047E053E4C501B4010E94A8C12D
:104F900087FF22C1C301B2010E9433C7759567958F
:104FA0006093AF0A62960FB6F894DEBF0FBECDBF16
:104FB000DF91CF911F910F91FF90EF90DF90CF90F5
:104FC000BF90AF909F908F907F906F905F904F9029
:104FD0003F902F90089520E030E040E251ECC50171
:104FE000B4010E94A8C187FD04C049815A81452BA4
:104FF00039F481E08093870AC12CD12C76016ACEE6
:105000008091870A882351F01092830A1092840AB3
:105010001092850A1092860A1092870A2091350212
:10502000309136024091370250913802C501B401E7
:105030000E940DC26D877E878F87988B2091830A8F
:105040003091840A4091850A5091860AC501B401C5
:105050000E94EFC5362E272E89839D831091920BD7
:105060005091930B5A8B8091940B898B0091950BE7
:10507000212F352F482F502F632D722D89810E94AB
:10508000A8C187FD1BC010918E0B90918F0B9A8B3E
:105090002091900B298B0091910B212F392F498959
:1050A000502F632D722D89819D810E9415C818167D
:1050B0002CF0132D2A8A3981398B0D81812F9A8901
:1050C000A989B02F8093830A9093840AA093850ABC
:1050D000B093860A20915A0230915B0240915C02A3
:1050E00050915D02612F792F8A2F902F0E940DC25F
:1050F0002D853E854F8558890E94EFC5A7019601F1
:105100000E94EEC56B017C0120E030E04FE753E4E4
:105110000E9415C820E030E0A9011816C4F4C501AA
:10512000B4010E9415C818160CF0CECDA50194014B
:10513000612F7A898989902F0E94EEC56093830A36
:105140007093840A8093850A9093860ABDCDC70127
:10515000B6010E94A8C187FFBDCD20E030E0A901C3
:10516000C501B4010E94A8C187FF46CFA5019401E3
:10517000612F7A898989902F0E94EEC56093830AF6
:105180007093840A8093850A9093860A35CF60E0F5
:10519000C8CDC301B2010E94A8C187FFE7CE20E0BD
:1051A00030E0A901C701B6010E94A8C187FF10C065
:1051B000A70196016D857985812F902F0E94EEC5FC
:1051C00060937F0A7093800A8093810A9093820A89
:1051D000412C512C3201CACE60E0E2CE20915A021D
:1051E00030915B0240915C0250915D0260E070E0A2
:1051F0008FE793E40E94CBC660938E0B70938F0B66
:105200008093900B9093910B20915602309157020E
:10521000409158025091590260E070E08FE793E4AA
:105220000E94CBC66093860B7093870B8093880B8C
:105230009093890B08950F931F93CF93DF93EC0105
:10524000888199810197E9F40E9449970E811F8115
:1052500028853985601B710B820B930B28EE33E098
:1052600040E050E00E94B3C56A817B818C819D81C2
:10527000620F731F841F951FDF91CF911F910F91B4
:1052800008956A857B858C859D85E0CF4F925F92DE
:105290006F927F928F929F92AF92BF92CF92DF9246
:1052A000EF92FF920F931F93CF93DF9300D000D024
:1052B00000D01F92CDB7DEB71092760B60E080E091
:1052C0000E94989182E00E94C89120E030E040E086
:1052D0005FE36091FB0A7091FC0A8091FD0A909156
:1052E000FE0A0E94EFC50E9433C77A8369838E014C
:1052F0000F5F1F4FC8010E94189A0E94FA8F8FE219
:105300000E94C89160911B0B70911C0B072E000C22
:10531000880B990B0E94AEC120E030E040E05FE3D3
:105320000E94EFC50E9433C77A836983C8010E9437
:10533000CC990E94FA8F8AEC98E130D960911B0BCE
:1053400070911C0B072E000C880B990B0E94AEC1AC
:1053500020E030E040E251E40E94A8C187FF03C092
:1053600080E20E94C89160E08AE00E94989180E00B
:105370000E94C89120E030E040E05FE36091F70ACE
:105380007091F80A8091F90A9091FA0A0E94EFC58B
:105390000E9433C77A836983C8010E94189A0E94C9
:1053A000FA8F8FE20E94C8916091190B70911A0BCD
:1053B000072E000C880B990B0E94AEC120E030E054
:1053C00040E05FE30E94EFC50E9433C77A836983A0
:1053D000C8010E94CC990E94FA8F87EC98E1DED830
:1053E0006091190B70911A0B072E000C880B990B0A
:1053F0000E94AEC120E030E040E251E40E94A8C12A
:1054000087FF03C080E20E94C8910E944997C09024
:10541000F00AD090F10AE090F20AF090F30A9B01B2
:10542000AC012C193D094E095F0969017A01F7FCAD
:1054300011C02091EF0A20952093EF0A6A547C4F07
:105440008F4F9F4F6093F00A7093F10A8093F20A96
:105450009093F30AF090EF0A61E080E00E94989147
:10546000FF2009F48CC185EC98E198D882E79FE091
:105470000E943E9C0E94FA8F8FEB98E18FD8FF200C
:1054800009F48BC18DEB98E189D886E79FE00E94F3
:105490003E9C0E94FA8F61E08CE00E949891FF2070
:1054A00009F489C18BEB98E179D82CEA35EC47E215
:1054B00057E360917A0F70917B0F80917C0F9091F0
:1054C0007D0F0E94EFC520E030E048EC52E40E94DE
:1054D0000DC20E9433C76B017C01F7FE7AC1F094C4
:1054E000E094D094C094C11CD11CE11CF11C8DE24D
:1054F0008093CB0BC701B60128EE33E040E050E0CB
:105500000E94DAC8CA01B9012AE030E040E050E068
:105510000E94DAC8662309F488C1605D6093CC0BF1
:10552000C701B60124E630E040E050E00E94DAC84E
:105530009AE0892E912CA12CB12CCA01B901A501A8
:1055400094010E94DAC8605D6093CD0BC701B6017B
:10555000A50194010E94DAC8F62ECA01B901A5017D
:1055600094010E94DAC8FF2009F461C180E38F0D25
:105570008093D00B605D6093CF0B8EE28093CE0B57
:105580001092D10B8BEC9BE00E94FA8F62E080E0DE
:105590000E94989186E00E94C89186E292E00E9463
:1055A000189A0E94FA8F85E20E94C89162E087E013
:1055B0000E94989188EB98E10E94CE2280919C10E5
:1055C000882309F446C180916A12882309F43FC1F7
:1055D0008091141390911513A0911613B091171385
:1055E0000097A105B10509F432C1BC01CD016D5987
:1055F0007F4F8F4F9F4F24E630E040E050E00E9405
:10560000B3C5609118137091191380911A1390917A
:105610001B130E94B3C530E03A832983C8010E945E
:10562000189A0E94FA8F85E20E94C89162E08EE08B
:105630000E94989187E00E94C89181E790E1FBDD8C
:105640006B017C018CE3882E912CA12CB12CC7011D
:10565000B601A50194010E94B3C5CA01B901A50113
:1056600094010E94B3C57F936F93C701B60120E1F7
:105670003EE040E050E00E94B3C5CA01B90128E114
:1056800030E040E050E00E94B3C57F936F938AEA18
:1056900098E19F938F931F930F930E9479C1C80144
:1056A0000E94B82263E080E00E94989182E692E036
:1056B0000E94B8228091780B84700FB6F894DEBFF8
:1056C0000FBECDBF9091000B992309F4D0C09091EB
:1056D000FF0A992309F4C2C0811104C01092FF0A85
:1056E0001092000B4091C70B5091C80B6091C90BF1
:1056F0007091CA0B2091260230912702C901840FB4
:10570000951F243631050CF0BFC0853691050CF08D
:10571000C2C090932702809326021092C70B10926A
:10572000C80B1092C90B1092CA0B8091260290915F
:105730002702883E33E0930714F087EE93E08A3027
:10574000910514F48AE090E090932702809326025A
:105750002A960FB6F894DEBF0FBECDBFDF91CF9172
:105760001F910F91FF90EF90DF90CF90BF90AF907F
:105770009F908F907F906F905F904F900895809151
:10578000F40A811103C083EC98E16FCE8091960BEF
:10579000811169CE81EC98E168CE8091F50A811182
:1057A00003C083EC98E170CE8091970B81116ACE93
:1057B00081EC98E169CE8091F60A811103C083ECF7
:1057C00098E172CE8091980B81116CCE81EC98E1BA
:1057D0006BCE20E137E240E050E00E94DAC86AE098
:1057E000462E512C612C712CCA01B901A3019201E2
:1057F0000E94DAC8B62EC701B60128EE33E040E0B9
:1058000050E00E94DAC8CA01B901A30192010E94C6
:10581000DAC8BB2029F080E38B0D8093CB0B7DCEC3
:1058200090E29093CB0B611178CE60E277CE662345
:1058300051F0605D6093CF0B8EE28093CE0B80E2DF
:105840008093D00B9DCE80E28093CF0BF6CF20E0EB
:10585000E2CE84EB98E10E94CE22E5CE882309F4C3
:1058600041CF0E94DB9E81E08093FF0A3BCF8823DB
:1058700009F438CF20E030E0A90161E080EF97E43F
:105880000E942A2037D82ECF2436310539F08436AD
:1058900091050CF03ECF84E690E03BCF4B305105B4
:1058A0006105710514F00A9734CF463F5F4F6F4F83
:1058B0007F4F0CF03ACF0A962CCF80916D0A80FF73
:1058C00024C089988FEF8093120280916D0A81FF26
:1058D0001FC08F9A8FEF8093130280916D0A9FB73C
:1058E00082FF19C0F89480910B018D7F80930B018A
:1058F0009FBF8FEF8093140280916D0A83FF14C0C5
:10590000169A8FEF809315020895899A81E0DBCF74
:105910008F9881E0E0CFF89480910B0182608093B2
:105920000B019FBF81E0E6CF169881E0EBCF8F920D
:105930009F92AF92BF92EF92FF920F931F93CF93DC
:10594000DF93C1E3DBE082E8E82E8FE0F82E0DE67E
:1059500015E06991799189919991F70181909190E0
:10596000A190B1907F010E94ACC1A50194010E9459
:105970000DC20E9438C7F80161937193819391938E
:105980008F01FBE0C134DF0721F7DF91CF911F9139
:105990000F91FF90EF90BF90AF909F908F900895E0
:1059A0000F931F93CF93DF93C2E8DFE009EA1BE078
:1059B000299139914991599160E070E080E89FE325
:1059C0000E94CBC6F80161937193819391938F01EB
:1059D000FFE0C239DF0761F70E94E18CDF91CF91D0
:1059E0001F910F91A4CFAF92BF92CF92DF92EF920F
:1059F000FF920F931F93CF93DF93CDB7DEB7E0975E
:105A00000FB6F894DEBF0FBECDBF80E1EBEEF2E043
:105A1000DE01119601900D928A95E1F780E1EBEF9E
:105A2000F2E0DE01519601900D928A95E1F780E156
:105A3000EBE0F3E0DE01919601900D928A95E1F79B
:105A4000CE0101965C0162E87FE0DE01519649E4F7
:105A50005BE09E012F5D3F4F81E39BE08D01F501EF
:105A6000C190D190E190F1905F01FB01C192D19280
:105A7000E192F192BF01CD90DD90ED90FD90FA01A1
:105A8000C192D192E192F192AF01F901C190D1900E
:105A9000E190F1909F01FC01C192D192E192F192CB
:105AA000CF01A016B106D9F680E090E0AAE7B4E4F1
:105AB0008093650B9093660BA093670BB093680B74
:105AC00040E050E06AEF73E440932D0B50932E0BAF
:105AD00060932F0B7093300B8093290B90932A0BBC
