:100000000C94B8130C94E9130C94E9130C94E913B1
:100010000C94E9130C94E9130C94E9130C94E91370
:100020000C94E9130C94E9130C94E9130C94E91360
:100030000C94E9130C94CC480C94E9130C94E91338
:100040000C94E9130C9423C80C94E9130C94E91351
:100050000C94E9130C94E9130C9426420C947BAF96
:100060000C94E9130C94D73C0C94E9130C94E91309
:100070000C94E9130C94E9130C94E9130C94E91310
:100080000C94E9130C94E9130C94E9130C94E91300
:100090000C94E9130C94E9130C94E9130C94E913F0
:1000A0000C94E9130C94E9130C94E9130C94E913E0
:1000B0000C94E9130C94E9130C94E9130C94E913D0
:1000C0000C94E9130C94E9130C94E9130C94E913C0
:1000D0000C94E9130C94E9130C94E9130C94E913B0
:1000E0000C94E9136AAD6DAD5CAD60AD66ADA4ADC9
:1000F00071AD75AD7BAD7FAD83AD89AD8DAD91AD8E
:10010000A4AD97AD9BAD9FAD97AE9CAEA1AEABAE8F
:10011000B5AE2EAFBFAEC7AECFAED9AEE3AEEDAE8D
:10012000FCAE06AF2EAF10AF1AAF24AF084AD73BD4
:100130003BCE016E84BCBFFDC12F3D6C74319ABDB6
:1001400056833DDA3D00C77F11BED9E4BB4C3E91DA
:100150006BAAAABE000000803F05A84CCDB2D44EC9
:10016000B93836A9020C50B9918688083CA6AAAACB
:100170002ABE000000803F004E414E494E4954596E
:10018000494E46CDCCCC3D0AD7233C17B7D1387762
:10019000CC2B329595E6241FB14F0A000020410078
:1001A00000C84200401C4620BCBE4CCA1B0E5AAEC2
:1001B000C59D7447322F473320626164207061729D
:1001C000616D65746572730A00536C6565702E2EDF
:1001D0002E00206F6620004D424C2047323920709F
:1001E0006F696E74200059206F7574206F662072DD
:1001F000616E67652028312D33292E0A0058206F43
:100200007574206F662072616E67652028312D330A
:10021000292E0A004D6573682070726F62696E67DF
:1002200020646F6E652E0A005374617274206D65D0
:1002300073682070726F62696E67207769746820D6
:1002400022473239205331222066697273742E0A94
:10025000004732380A4732392053320053746174F0
:10026000653A20004D65736820626564206C657690
:10027000656C696E6720686173206E6F20646174BD
:10028000612E0A0053206F7574206F662072616EB4
:1002900067652028302D35292E0A004D65736820AA
:1002A000706F696E742063616E6E6F74206265207A
:1002B0007265736F6C7665640A00436C69636B20CA
:1002C000746F20726573756D652E2E2E004E6F2033
:1002D0006D6F76652E00456E642066696C65206CD6
:1002E0006973740A00426567696E2066696C6520EF
:1002F0006C6973740A004B494C4C45442E20006FC6
:100300006B0020573A0042656420636F6F6C696E22
:10031000672E2E2E004265642068656174696E67E1
:100320002E2E2E00544845524D414C5F50524F5492
:10033000454354494F4E004155544F5245504F523A
:10034000545F53445F53544154555300454D4552F7
:1003500047454E43595F5041525345520043415324
:10036000455F4C494748545F4252494748544E45BF
:10037000535300544F47474C455F4C4947485453EB
:1003800000534F4654574152455F504F5745520016
:100390004255494C445F50455243454E54004C45EC
:1003A00056454C494E475F44415441005A5F5052B4
:1003B0004F4245004155544F4C4556454C00505214
:1003C000494E545F4A4F420050524F475245535393
:1003D000004155544F5245504F52545F54454D5073
:1003E00000564F4C554D45545249430045455052D7
:1003F0004F4D0053455249414C5F584F4E5F584F47
:100400004646004649524D574152455F4E414D4583
:100410003A4D61726C696E20312E312E3920284799
:1004200069746875622920534F555243455F434FA5
:1004300044455F55524C3A68747470733A2F2F6775
:1004400069746875622E636F6D2F4D61726C696E91
:100450004669726D776172652F4D61726C696E20AD
:1004600050524F544F434F4C5F56455253494F4E95
:100470003A312E30204D414348494E455F54595042
:10048000453A5155414E54554D20455854525544C6
:1004900045525F434F554E543A3120555549443AE1
:1004A00063656465326132662D343161322D3437D3
:1004B00034382D396231322D633535633632663347
:1004C000363766660A002F2F200020540020520085
:1004D000416363656C65726174696F6E3A205000A8
:1004E0005741524E494E4721204C6F77205A204A9F
:1004F00065726B206D6179206C65616420746F207A
:10050000756E77616E746564207061757365732EA6
:100510000A00486F6D652025732573257320666971
:10052000727374002066697273740A005A0059006D
:100530005800486F6D6520004F66667365747320C0
:100540006170706C696564004572723A20546F6F17
:10055000206661722100546F6F206661722066729E
:100560006F6D207265666572656E636520706F6978
:100570006E740A00205A00205900580020204D6156
:10058000783A2000205A00205900580020204D6958
:100590006E3A20004F6E20004F666600536F6674FF
:1005A00020656E6473746F70733A200020466C6F20
:1005B000773A200000013637260302FFFF353C3D25
:1005C000380E0FFFFF312E303E1213FFFFFF28FFC2
:1005D0000C080907FFFF1A1C18FFFF2A08440A0726
:1005E0004320643A0020693A0020703A00496E7650
:1005F000616C69642065787472756465720A004381
:10060000290A0061626C656420286D696E2074653A
:100610006D702000436F6C6420657874727564653A
:10062000732061726520004B642000236465666955
:100630006E652044454641554C545F004B6920008F
:1006400023646566696E652044454641554C545F98
:10065000004B70200023646566696E652044454642
:1006600041554C545F00504944204175746F747576
:100670006E652066696E69736865642120507574C3
:1006800020746865206C617374204B702C204B695A
:1006900020616E64204B6420636F6E7374616E74AE
:1006A000732066726F6D2062656C6F7720696E745F
:1006B0006F20436F6E66696775726174696F6E2E25
:1006C000680A00504944204175746F74756E652046
:1006D0006661696C6564212074696D656F75740A63
:1006E00000453120544845524D414C2052554E4111
:1006F0005741590042454420544845524D414C20F1
:1007000052554E4157415900546865726D616C20D5
:1007100052756E6177617900453120486561746971
:100720006E67206661696C65640042656420686577
:100730006174696E67206661696C65640048656113
:1007400074696E67206661696C6564005049442075
:100750004175746F74756E65206661696C6564219E
:100760002054656D706572617475726520746F6F69
:1007700020686967680A00204B643A2000204B69B2
:100780003A2000204B703A20000A20436C617373BA
:10079000696320504944200A002054753A20002003
:1007A0004B753A2000206D61783A2000206D696E0B
:1007B0003A200020643A200020626961733A2000E8
:1007C000504944204175746F74756E652066616987
:1007D0006C6564212042616420657874727564657B
:1007E00072206E756D6265720A0050494420417531
:1007F000746F74756E652073746172740A0020647E
:100800003A0020693A0020703A004E6F206361730D
:1008100065206C696768740A004F66660A00466165
:100820006465204865696768742000426564204CEF
:100830006576656C696E6720004661696C65642049
:10084000746F20656E61626C6520426564204C6542
:1008500076656C696E670A004D6573682042656451
:10086000204C6576656C20646174613A0A004D65C0
:10087000736820706F696E742063616E6E6F742090
:100880006265207265736F6C7665640A004D343260
:100890003120696E636F727265637420706172617A
:1008A0006D657465722075736167650A0045455012
:1008B000524F4D2064697361626C65640A00416344
:1008C000746976652045787472756465723A2000A3
:1008D000496E76616C6964206578747275646572BE
:1008E0000A002569730025696D2025697300256953
:1008F000682025696D2025697300256964202569B4
:10090000682025696D20256973002569792025698E
:1009100064202569682025696D20256973004E6F64
:1009200020436865636B73756D2077697468206C0C
:10093000696E65206E756D6265722C204C617374F2
:10094000204C696E653A20004B494C4C45442E20A2
:100950000053544F505045442E20005072696E741D
:1009600065722073746F707065642064756520749F
:100970006F206572726F72732E20466978207468DA
:1009800065206572726F7220616E642075736520D8
:100990004D39393920746F20726573746172742E09
:1009A000202854656D706572617475726520697375
:1009B0002072657365742E205365742069742061FC
:1009C000667465722072657374617274696E6729EA
:1009D0000A004E6F20436865636B73756D207769FD
:1009E0007468206C696E65206E756D6265722C206E
:1009F0004C617374204C696E653A200063686563CE
:100A00006B73756D206D69736D617463682C204C18
:100A1000617374204C696E653A20004C696E6520E4
:100A20004E756D626572206973206E6F74204C6123
:100A30007374204C696E65204E756D6265722B3142
:100A40002C204C617374204C696E653A20004D3146
:100A50003130004D333100534420726561642065AC
:100A600072726F720A00446F6E65207072696E74E4
:100A7000696E672066696C650A0007FFFFFFFFFF6C
:100A80000001010101016265640A002C2073797381
:100A900074656D2073746F707065642120486561A2
:100AA0007465725F49443A2000426564206865615C
:100AB00074696E67206661696C656400486561747D
:100AC000696E67206661696C656400453120486520
:100AD0006174696E67206661696C65640048656170
:100AE00074696E67206661696C65640070012C0131
:100AF00090012701B0012201C0011D01F001180180
:100B00001002130130020E0160020901900204017B
:100B1000C002FF000003FA004003F5008003F0006C
:100B2000D003EB002004E6007004E100E004DC00E8
:100B30004005D700C005D2004006CD00D006C80051
:100B40008007C3003008BE00F008B900C009B40037
:100B5000B00AAF00B00BAA00D00CA500000EA00098
:100B6000500F9B00C01096005012910000148C0092
:100B7000C0158700B0178200B0197D00D01B780027
:100B8000001E730040206E0090226900F024640073
:100B900040275F0090295A00E02B5500102E50008E
:100BA00020304B0010324600E033410090353C00CD
:100BB0001037370070383200A0392D00B03A2800C5
:100BC000A03B2300603C1E00103D1900903D140026
:100BD000103E0F00703E0A00C03E0500003F0000BE
:100BE000403FFBFF803FF6FFC03FF1FF45312054FF
:100BF0004845524D414C2052554E415741590042B3
:100C0000454420544845524D414C2052554E415781
:100C1000415900546865726D616C2052756E617740
:100C20006179004531204572723A204D4158544552
:100C30004D50004572723A204D415854454D502058
:100C4000424544004D415854454D502074726967E7
:100C50006765726564004531204572723A204D49DE
:100C60004E54454D50004572723A204D494E544500
:100C70004D5020424544004D494E54454D5020743E
:100C80007269676765726564004D38342058205971
:100C9000205A204500202F002042403A0020403AB0
:100CA00000024B494C4C45442E2000202D20496E1B
:100CB00076616C6964206578747275646572206E03
:100CC000756D62657220210A00001C1F11111F0042
:100CD000000006191803130C00040E1F041C00006A
:100CE00000000E1315110E00001C10181705060544
:100CF00000040A0A0A0A11110E0C12120C0000005C
:100D000000001F1511151F00002D2D2D2D2D2D2D2F
:100D10002D2D2D007C5155414E54554D2033447C92
:100D2000002D2D2D2D2D2D2D2D2D2D007065727347
:100D3000696133647072696E7465722E69720070D5
:100D4000657273696133647072696E7465722E695D
:100D50007200002020506C616E6E6572427566668E
:100D6000657242797465733A200020467265652089
:100D70004D656D6F72793A2000436F6D70696C65D7
:100D8000643A2044656320313620323031390A001C
:100D9000207C20417574686F723A20286E6F6E65F2
:100DA0002C2064656661756C7420636F6E6669677C
:100DB000290A00323031382D30382D303100204CA6
:100DC00061737420557064617465643A2000312E3B
:100DD000312E390A004D61726C696E0020536F66C6
:100DE00074776172652052657365740A00205761DB
:100DF000746368646F672052657365740A002042EB
:100E0000726F776E206F75742052657365740A0077
:100E10002045787465726E616C2052657365740A42
:100E200000506F77657255700A0073746172740AAE
:100E3000006175746F25692E67006572726F72208C
:100E400077726974696E6720746F2066696C650AD1
:100E500000456E6473746F707320256320256320D2
:100E6000256320256300205A3A0020593A00205873
:100E70003A00656E6473746F7073206869743A2009
:100E800000446F6E6520736176696E672066696CD9
:100E9000652E0A004D32390024F4D43050C38E2020
:100EA000C2A24017828B7011127A910D816CD90AFF
:100EB000A861E108C7586607615143061E4B5D05EE
:100EC000C145A7041A411104093D98037139310342
:100ED0004036DB0265339102D4305402802E1D026D
:100EE000632CEE01752AC501B028A00110278101ED
:100EF0008F2564012B244B01E0223401AC211F011A
:100F00008D200D01801FFC00841EED00971DDF0069
:100F1000B81CD200E61BC600201BBC00641AB2003D
:100F2000B219A8000A19A0006A189900D1179100F7
:100F300040178B00B516840031167E00B31579007A
:100F40003A157300C7146F0058146A00EE13660058
:100F50008813630025135E00C7125B006C125700F4
:100F600015125400C111510070114F0021114B0096
:100F7000D61049008D104700461044000210420070
:100F8000C00F4000800F3E00420F3C00060F3B00A8
:100F9000CB0E3800930E37005C0E3500270E340060
:100FA000F30D3200C10D3100900D3000600D2E00A8
:100FB000320D2D00050D2C00D90C2B00AE0C290094
:100FC000850C29005C0C2700350C27000E0C260030
:100FD000E80B2400C40B2400A00B23007D0B23008E
:100FE0005A0B2100390B2100180B2000F80A1F00B2
:100FF000D90A1E00BB0A1E009D0A1D00800A1D00A2
:10100000630A1C00470A1B002C0A1B00110A1A0065
:10101000F7091A00DD091900C4091900AB09190004
:10102000920917007B091800630917004C09160084
:1010300036091600200916000A091500F5081500E2
:10104000E0081400CC081400B8081400A408140028
:10105000900813007D0812006B0813005808120056
:10106000460812003408110023081100120811006C
:1010700001081100F0071000E0071000D007100071
:10108000C0071000B0070F00A107100091070E0065
:1010900083070F0074070F0065070E0057070E0047
:1010A00049070E003B070D002E070E0020070D001C
:1010B00013070D0006070D00F9060C00ED060D00E4
:1010C000E0060C00D4060C00C8060C00BC060C00A0
:1010D000B0060C00A4060B0099060C008D060B0050
:1010E00082060B0077060B006C060B0061060A00F7
:1010F00057060B004C060A0042060A0038060A0092
:101100002E060A0024060A001A060A001006090024
:1011100007060A00FD050900F4050900EB050900B2
:10112000E2050900D9050900D0050900C705090035
:10113000BE050900B5050800AD050800A5050900B4
:101140009C050800940508008C050800840508002B
:101150007C050800740508006C050700650508009B
:101160005D050700560508004E0507004705070006
:101170004005080038050700310507002A0507006B
:10118000230507001C050600160507000F050700CC
:101190000805060002050700FB040600F504070029
:1011A000EE040600E8040600E2040700DB04060083
:1011B000D5040600CF040600C9040600C3040600D7
:1011C000BD040600B7040600B1040500AC04060027
:1011D000A6040600A00405009B0406009504050073
:1011E000900406008A0405008504050080040600BA
:1011F0007A04050075040500700405006B04050001
:1012000066040500610405005C0405005704050040
:10121000520405004D040500480405004304050080
:101220003E0404003A0405003504050030040400BF
:101230002C04050027040400230405001E040400F8
:101240001A04040016040500110404000D0404002F
:10125000090405000404040000040400FC03040065
:10126000F8030400F4030400F0030400EC0304009A
:10127000E8030400E4030400E0030400DC030400CA
:10128000D8030400D4030400D0030400CC030400FA
:10129000C8030300C503030024F404D9201BC40CB5
:1012A0005C0E9804C4095F0265077101F405F9003A
:1012B000FB04B30048048700C103690058035500CC
:1012C00003034500BE023A008402310053022A00A3
:1012D0002902250004022000E4011C00C8011900B5
:1012E000AF01170098011400840113007101100070
:1012F0006101100051010E0043010D0036010B0089
:101300002B010B0020010B00150109000C01090045
:1013100003010800FB000800F3000800EB000700D1
:10132000E4000600DE000600D8000600D200060039
:10133000CC000500C7000500C2000500BD00040088
:10134000B9000400B5000400B1000400AD000400C1
:10135000A9000400A5000300A20003009F000400F0
:101360009B00030098000300950002009300030017
:10137000900003008D0002008B0003008800020033
:101380008600020084000300810002007F0002004A
:101390007D0002007B00020079000200770001005E
:1013A0007600020074000200720001007100020069
:1013B0006F0002006D0001006C0002006A00010075
:1013C000690002006700010066000100650001007D
:1013D0006400020062000100610001006000010081
:1013E0005F0002005D0001005C0001005B00010085
:1013F0005A00010059000100580001005700010087
:101400005600010055000100540001005300000087
:101410005300010052000100510001005000010082
:101420004F0001004E0000004E0001004D00010081
:101430004C0001004B0000004B0001004A0001007D
:101440004900010048000000480001004700010079
:101450004600000046000100450000004500010074
:10146000440001004300000043000100420000006E
:101470004200010041000000410001004000010065
:101480003F0000003F0001003E0000003E00010060
:101490003D0000003D0001003C0000003C00000059
:1014A0003C0001003B0000003B0001003A0000004E
:1014B0003A00010039000000390001003800000046
:1014C000380000003800010037000000370001003C
:1014D0003600000036000000360001003500000034
:1014E0003500000035000100340000003400000029
:1014F000340001003300000033000000330001001D
:101500003200000032000000320001003100000013
:101510003100000031000100300000003000000008
:10152000300001002F0000002F0000002F000000FD
:101530002F0001002E0000002E0000002E000100F0
:101540002D0000002D0000002D0000002D000100E6
:101550002C0000002C0000002C0000002C000100DA
:101560002B0000002B0000002B0000002B000100CE
:101570002A0000002A0000002A0000002A000100C2
:1015800029000000290000002900000029000000B7
:1015900029000100280000002800000028000000A9
:1015A000280000002800010027000000270000009C
:1015B000270000002700000027000100260000008F
:1015C0002600000026000000260000002600010082
:1015D0002500000025000000250000002500000077
:1015E0002500000025000100240000002400000068
:1015F000240000002400000024000100230000005B
:10160000230000002300000023000000230000004E
:10161000230000002300010022000000220000003F
:101620002200000022000000220000002200010031
:101630002100000021000000210000002100000026
:101640002100000021000000210001002000000016
:10165000200000002000000020000000200000000A
:101660002000000020000000200001001F000000FA
:101670001F0000001F0000001F0000001F000000EE
:101680001F0000001F0001001E0000001E000000DF
:101690001E0000001E00000039300000332500004D
:1016A00087190000B00F0000DB080000BD04000037
:1016B000740200003F01000053746570732F6D6D5C
:1016C00000416363656C65726174696F6E00436F9E
:1016D0006E74726F6C0043616E6E6F7420656E7411
:1016E0006572207375626469723A2000052E2E00BF
:1016F0004D61696E00436172642072656D6F76653D
:1017000064004361726420696E736572746564007D
:1017100048617264636F6465642044656661756CDA
:10172000742053657474696E6773204C6F616465CF
:10173000640A0010270000102700001900000010A4
:101740002700000000964300009643000040400040
:1017500000A0420000C8420000C8420000204533FB
:1017600033B94220286D6D29002044002049002013
:10177000204D3330342050002044002049002020E8
:101780004D333031205000504944207365747469E2
:101790006E67733A0A00204600204200204800206D
:1017A000204D3134352053004D6174657269616C90
:1017B0002068656174757020706172616D65746513
:1017C00072733A0A00205A0020590020204732390B
:1017D000205333205800205A0020204D343230202E
:1017E00053004D65736820426564204C6576656CD6
:1017F000696E673A0A00205A0020590020204D32B5
:101800003036205800486F6D65206F6666736574CA
:101810003A0A00204500205A002059002058002094
:10182000540020530020204D323035204200204506
:101830003C6D61785F655F6A65726B3E0020583C65
:101840006D61785F785F6A65726B3E20593C6D61AF
:10185000785F795F6A65726B3E205A3C6D61785F94
:101860007A5F6A65726B3E00416476616E6365649F
:101870003A20423C6D696E5F7365676D656E745F9B
:1018800074696D655F75733E20533C6D696E5F666C
:10189000656564726174653E20543C6D696E5F7469
:1018A000726176656C5F66656564726174653E0041
:1018B00020540020520020204D323034205000416E
:1018C0006363656C65726174696F6E2028756E69FB
:1018D00074732F7332293A20503C7072696E745FB2
:1018E000616363656C3E20523C726574726163741F
:1018F0005F616363656C3E20543C74726176656C15
:101900005F616363656C3E0A00204500205A002039
:10191000590020204D3230312058004D6178696DDA
:10192000756D20416363656C65726174696F6E20CB
:1019300028756E6974732F7332293A0A00204500A6
:10194000205A0020590020204D3230332058004DBD
:101950006178696D756D2066656564726174657323
:101960002028756E6974732F73293A0A0020450088
:10197000205A0020590020204D393220580053743D
:101980006570732070657220756E69743A0A002064
:10199000204D3230302044300A0020204D3230308B
:1019A0002044002044697361626C65640A004669E2
:1019B0006C616D656E742073657474696E67733ADB
:1019C0000020204D3134392043203B20556E69746E
:1019D0007320696E2043656C736975730A0020205B
:1019E000473231202020203B00486F6D696E672010
:1019F0006661696C65640020746F6F206C6F6E6740
:101A000020657874727573696F6E20707265766583
:101A10006E7465640A0020636F6C6420657874726C
:101A20007573696F6E2070726576656E7465640A91
:101A300000434F4D4D554E49434154494F4E00448C
:101A4000525952554E004552524F525300494E463C
:101A50004F004543484F0050726F7465637465646E
:101A60002050696E0A0046696C616D656E74207560
:101A70007365643A200053746174733A20002C201B
:101A80004C6F6E67657374206A6F623A2000546F02
:101A900074616C2074696D653A20005374617473CD
:101AA0003A20002C204661696C65643A20002C20A5
:101AB00046696E69736865643A20005072696E7495
:101AC000733A200053746174733A200020573A002F
:101AD0004520436F6F6C696E672E2E2E004520489F
:101AE000656174696E672E2E2E00521A4D1A461AC1
:101AF0003F1A311A6F66660044454255473A004D19
:101B000031343520533C696E6465783E206F7574BE
:101B1000206F662072616E67652028302D31290A9A
:101B2000005155414E54554D204F66662E00205AA7
:101B30003A0020593A0020436F756E7420583A00DD
:101B400020453A00205A3A0020593A00583A003AC3
:101B5000004361703A00466C6F7700466C6F770007
:101B600046616E2073706565640046616E20737017
:101B70006565640042656400426564004E6F7A7A70
:101B80006C65004E6F7A7A6C65004661646520482A
:101B900065696768740046616465204865696768BF
:101BA0007400426564205A00426564205A005370F4
:101BB000656564005370656564004D61696E00423F
:101BC00061636B004E65787420636F726E6572009E
:101BD0004C6576656C696E6720446F6E6521004DBB
:101BE0006F7665205A00473239205332004E6578AF
:101BF0007420506F696E74002569202F20257500B0
:101C00004732392053310047323920533200436C78
:101C100069636B20746F20426567696E00486F6D61
:101C2000696E672058595A00473238004C6576650E
:101C30006C20636F726E65727300426564205A0097
:101C4000426564205A00466164652048656967689A
:101C500074004661646520486569676874004F6672
:101C600066004F6E2000426564204C6576656C69A5
:101C70006E67004C6576656C206265640050726525
:101C800070617265004578747275646572004D6F9D
:101C90007665205A004D6F76652059004D6F766548
:101CA0002058005072657061726500526573746FE0
:101CB0007265206661696C73616665004D6F746959
:101CC0006F6E0054656D7065726174757265004D5C
:101CD00061696E0046616E207370656564004661DF
:101CE0006E2073706565640042656400426564003F
:101CF0004E6F7A7A6C65004E6F7A7A6C6500436F2E
:101D00006E74726F6C00416D6178204500416D61A9
:101D100078204500416D6178205A00416D6178203E
:101D20005A00416D6178205900416D617820590059
:101D3000416D6178205800416D6178205800412D37
:101D400074726176656C00412D74726176656C0009
:101D5000412D7265747261637400412D72657472F5
:101D600061637400416363656C00416363656C008B
:101D70004D6F74696F6E004573746570732F6D6D70
:101D8000004573746570732F6D6D005A73746570C0
:101D9000732F6D6D005A73746570732F6D6D0059DC
:101DA00073746570732F6D6D005973746570732F44
:101DB0006D6D005873746570732F6D6D005873747A
:101DC0006570732F6D6D004D6F74696F6E004D32CD
:101DD00034004D323320257300556E6B6E6F776E75
:101DE00020636F6D6D616E643A202200534420635E
:101DF000617264206F6B0A006F70656E526F6F7452
:101E0000206661696C65640A00766F6C756D652E7D
:101E1000696E6974206661696C65640A00534420C8
:101E2000696E6974206661696C0A00577269746929
:101E30006E6720746F2066696C653A20006F70656C
:101E40006E206661696C65642C2046696C653A2079
:101E5000006F70656E206661696C65642C20466950
:101E60006C653A200046696C652073656C65637427
:101E700065640A002053697A653A200046696C65FA
:101E8000206F70656E65643A20002066696C653A63
:101E90002000646F696E67006672657368004E6F3C
:101EA000772000454E4420535542524F5554494ED9
:101EB000450A002220706F73002220706172656EE7
:101EC000743A2200535542524F5554494E452043CF
:101ED000414C4C207461726765743A22004B494C46
:101EE0004C45442E2000747279696E6720746F200F
:101EF00063616C6C207375622D67636F6465206627
:101F0000696C6573207769746820746F6F206D61E8
:101F10006E79206C6576656C732E204D4158206C6F
:101F20006576656C2069733A004572726F723A008B
:101F30006F6B0020746F6F206C6F6E672065787414
:101F4000727573696F6E2070726576656E74656404
:101F50000A0020636F6C6420657874727573696F12
:101F60006E2070726576656E7465640A004B494C2C
:101F70004C45442E20004B494C4C206361757365E1
:101F800064206279204B494C4C20627574746F6EEA
:101F90002F70696E0A004B494C4C45442E20004B73
:101FA000494C4C2063617573656420627920746FBD
:101FB0006F206D75636820696E6163746976652052
:101FC00074696D65202D2063757272656E7420636F
:101FD0006F6D6D616E643A2000506C6561736520B1
:101FE0007265736574005052494E54455220484101
:101FF0004C544544005072696E7465722068616C7F
:102000007465642E206B696C6C28292063616C6C8C
:102010006564210A00656E7175657565696E672076
:102020002200000048430000000000000000000003
:102030004842000048429A99094100000000576157
:10204000726E696E673A20486F6D696E67204275DF
:102050006D702044697669736F72203C20310A00EC
:102060000202040000A0400000A040000000400068
:102070000048430000484300007A4301FFFF7C3CD6
:102080003E5E2B3D3F2F5B5D3B2C2A225C002049AE
:102090006E76616C6964206578747275646572200F
:1020A00000000000000000000000000000000048E8
:1020B000430000484300007A43206E6F7420656E31
:1020C00074657265642E0A00286E6F2066696C65FF
:1020D00029005344207072696E74696E67206279BA
:1020E000746520004E6F74205344207072696E74C2
:1020F000696E670A0043757272656E742066696C5A
:10210000653A200046696C652064656C6574656499
:102110003A0044656C6574696F6E206661696C6530
:10212000642C2046696C653A20005072696E7420F8
:1021300074696D653A20000000000001020404008B
:1021400000001C1C0C040404020100000000000438
:102150000810000000000000002100240027002AD1
:10216000002D003000330001010000040107010AC6
:102170000100002200250028002B002E0031003431
:102180000002010000050108010B010000200023EE
:1021900000260029002C002F00320000010000035F
:1021A00001060109010505050507050808080802DB
:1021B0000202020A0A0808040404040101010101E0
:1021C0000101010303030303030303040707070CCF
:1021D0000C0C0C0C0C0C0C02020202060606060685
:1021E0000606060B0B0B0B0B0B0B0B010210202032
:1021F000080810204010204080020102010804025B
:1022000001010204081020408080402010080402D0
:102210000180040201804020100804020108040229
:10222000010102040810204080010204081020402F
:102230008000000A0B02090C0D0E080703040100C0
:10224000000000000000000000000000000000008E
:10225000000000000000000000000000001211104B
:10226000000000000000000000000000000000006E
:102270000000000000000025753A25303275002569
:102280003032753A25303275002D2D2D0053440023
:102290002020202020200020202020005155414EC9
:1022A00054554D2052656164792E005072696E74E8
:1022B000696E672E2E2E005072696E7420706175E3
:1022C000736564005072696E742061626F72746528
:1022D00064005072696E742066726F6D2053440002
:1022E00053746F70207072696E7400526573756DEF
:1022F00065207072696E74004E6F205344206361D4
:102300007264005061757365207072696E74004369
:102310006F6E74726F6C00507265706172650054FC
:10232000756E6500496E666F2073637265656E0039
:1023300043616E6E6F74206F70656E20737562649A
:10234000697220006563686F3A006F70656E206681
:1023500061696C65642C2046696C653A20007A5F7F
:102360006D61783A20007A5F6D696E3A2000795F7E
:102370006D61783A2000795F6D696E3A2000785F70
:102380006D61783A2000785F6D696E3A2000526581
:10239000706F7274696E6720656E6473746F7020FD
:1023A0007374617475730A000A4D656173757265A3
:1023B0006420706F696E74733A0A005A206F666603
:1023C0007365743A20004E756D20582C593A2033AD
:1023D0002C330A00FFFDFCFAF8F6F4F2F0EEECEA1A
:1023E000E9E7E5E3E1E0DEDCDAD9D7D5D4D2D0CF36
:1023F000CDCBCAC8C7C5C3C2C0BFBDBCBAB9B7B6CA
:10240000B4B3B2B0AFADACAAA9A8A6A5A4A2A1A02E
:102410009E9D9C9A99989795949392908F8E8D8B70
:102420008A8988878684838281807F7E7D7B7A7992
:102430007877767574737271706F6E6D6C6B6A6994
:102440006867666564636261605F5E5D5C5B5A5984
:1024500058585756555453525150504F4E4D4C4B5F
:102460004A4A4948474646454443424241403F3E26
:102470003E3D3C3B3B3A39383837363535343332DC
:10248000323130302F2E2E2D2C2B2B2A2929282784
:102490002726252524232322212120201F1E1E1D1F
:1024A0001C1C1B1B1A1919181817161615151413AE
:1024B0001312121111100F0F0E0E0D0D0C0C0B0A32
:1024C0000A090908080707060605050404030302AC
:1024D0000201000000000001000000010000800077
:1024E000555555000000400033333300AAAA2A0096
:1024F0004992240000002000C7711C00999919001E
:10250000D1451700555515003BB113002449120061
:1025100011111100000010000F0F0F00E3380E0022
:1025200043790D00CCCC0C00C3300C00E8A20B00AA
:1025300064210B00AAAA0A00703D0A009DD8090078
:10254000427B090092240900DCD308008888080037
:102550001042080000000800F0C10700878707004C
:1025600075500700711C07003EEB0600A1BC060079
:102570006990060066660600703E06006118060057
:1025800017F4050074D105005BB00500B29005009A
:10259000627205005555050078390500B81E050022
:1025A000050505004EEC040087D40400A1BD04001D
:1025B00090A7040049920400C17D0400EE69040064
:1025C000C7560400444404005C320400082104009F
:1025D00041100400000004003FF00300F8E0030095
:1025E00026D20300C3C30300CCB503003AA80300FE
:1025F0000A9B0300388E0300C08103009F7503000F
:10260000D0690300505E03001D53030034480300EB
:10261000913D03003333030016290300381F0300E4
:1026200097150300300C0300030303000BFA0200AC
:1026300049F10200BAE802005CE002002DD8020075
:102640002DD0020059C80200B0C0020031B902000A
:10265000DAB10200AAAA0200A0A30200BC9C0200F8
:10266000FA9502005C8F0200DF880200828202007D
:10267000457C02002776020027700200436A0200B0
:102680007C640200D05E02003F590200C853020081
:10269000436F6F6C646F776E0044697361626C6541
:1026A000207374657070657273004D383400426534
:1026B00064204C6576656C696E6700486F6D6520B7
:1026C0005A00473238205A00486F6D65205900473C
:1026D0003238205900486F6D652058004732382045
:1026E00058004175746F20686F6D6500473238007F
:1026F0004D6F76652061786973004D61696E004D9C
:102700006F76652058004D6F76652059004D6F76C5
:1027100065205A004578747275646572004D6F7655
:102720006520302E316D6D004D6F766520316D6DF9
:10273000004D6F76652031306D6D004D6F766520F0
:1027400061786973004578747275646572004D6FC5
:102750007665205A004D6F76652059004D6F76657D
:10276000205800526573656E643A200022D5F1D47A
:1027700011241FBECFEFD1E2DEBFCDBF00E00CBF02
:1027800012E0A0E0B2E0E4E3F7EC01E00BBF02C02E
:1027900007900D92AC3BB107D9F723E1ACEBB2E067
:1027A00001C01D92AE3AB207E1F713E1C7EBD3E1E6
:1027B00000E006C021970109802FFE010E94F2E28D
:1027C000C63BD10780E00807A9F70E9468CE0C94A9
:1027D00089E30C9400002F923F924F925F926F9288
:1027E0007F928F929F92AF92BF92CF92DF92EF92A1
:1027F000FF920F931F93CF93DF93CDB7DEB7C859E6
:10280000D1090FB6F894DEBF0FBECDBF809125135E
:102810008D3411F40C94011D843511F40C94C12EE7
:10282000873411F00C940D2F809123139091241371
:102830008C31910509F447C67CF4843091053CF451
:102840008230910574F597FF25C00C94FD1C049708
:1028500009F4FBC50C94FD1C8A35910511F40C9408
:10286000F41C54F48D31910509F432C68A9711F4A1
:102870000C94651C0C94FD1C8B35910511F40C9483
:10288000F81C8C35910511F00C94FD1C0E9405ACD0
:102890000C940F2F8091020281110C94122F0C9432
:1028A0000F2F20910202222311F40C940F2F11E01C
:1028B000029709F010E00E9416A682E50E94743883
:1028C000882309F44AC10E94FA376B017C014090C9
:1028D000E3065090E4066090E5067090E6062091CD
:1028E000E7063091E8064091E9065091EA0628AFE4
:1028F00039AF4AAF5BAF40911D0950911E096091FD
:102900001F097091200924964CAF5DAF6EAF7FAF69
:102910002497609121097091220980912309909157
:1029200024096CAF7DAF8EAF9FAF20E030E0A901EE
:10293000C701B6010E9492DB882309F46CC5A3018C
:10294000920124966CAD7DAD8EAD9FAD24970E9413
:1029500092DB81110DC028AD39AD4AAD5BAD6CADD8
:102960007DAD8EAD9FAD0E9492DB882309F453C5E7
:1029700020E030E0A901C701B6010E9492DB881F68
:102980008827881F18130BC080E090E0A0E8BFE301
:1029900064968CAF9DAFAEAFBFAF64970AC020E026
:1029A00030E040E85FEB64962CAF3DAF4EAF5FAFD9
:1029B0006497A301920124966CAD7DAD8EAD9FAD61
:1029C00024970E94D9DF2C966CAF7DAF8EAF9FAF5E
:1029D0002C9728AD39AD4AAD5BAD6CAD7DAD8EADFC
:1029E0009FAD0E94D9DF60966CAF7DAF8EAF9FAF79
:1029F00060972C962CAD3DAD4EAD5FAD2C97CA01C6
:102A0000B9010E94F7DB4B015C0160962CAD3DAD36
:102A10004EAD5FAD6097CA01B9010E94F7DB9B0123
:102A2000AC01C501B4010E94DADF0E9445E228969C
:102A30006CAF7DAF8EAF9FAF289720E030E040E0D5
:102A40005FE30E94F7DB4B015C01A7019601C70120
:102A5000B6010E94F7DB6B017C01A5019401C50161
:102A6000B4010E94F7DB9B01AC01C701B6010E94D3
:102A7000D9DF0E9445E29B01AC0164966CAD7DAD4F
:102A80008EAD9FAD64970E94F7DB4B015C012496ED
:102A90002CAD3DAD4EAD5FAD2497C301B2010E9498
:102AA000DADF20E030E040E05FE30E94F7DB6B011B
:102AB0007C0160966CAD7DAD8EAD9FAD60979058FA
:102AC00028962CAD3DAD4EAD5FAD28970E94B6E087
:102AD0009B01AC01C501B4010E94F7DB9B01AC0175
:102AE000C701B6010E94DADFA30192010E94D9DF7B
:102AF0006B017C012CAD3DAD4EAD5FAD68AD79ADE8
:102B00008AAD9BAD0E94DADF20E030E040E05FE379
:102B10000E94F7DB2B013C0128962CAD3DAD4EAD5C
:102B20005FAD28972C966CAD7DAD8EAD9FAD2C978B
:102B30000E94B6E09B01AC01C501B4010E94F7DB25
:102B40009B01AC01C301B2010E94DADF28AD39ADAF
:102B50004AAD5BAD0E94D9DF14C089E40E9474388D
:102B6000882329F00E94FA376B017C0103C0C12C35
:102B7000D12C76018AE40E9474388823D9F00E940F
:102B8000FA376CAF7DAF8EAF9FAF20E030E0A90188
:102B9000C701B6010E9492DB81111AC020E030E02B
:102BA000A9016CAD7DAD8EAD9FAD0E9492DB811110
:102BB0000FC031C420E030E0A901C701B6010E9476
:102BC00092DB882309F427C41CAE1DAE1EAE1FAED7
:102BD000B701A601705848AF59AF6AAF7BAF6CAD73
:102BE0007DAD8EAD9FAD905824966CAF7DAF8EAF0E
:102BF0009FAF249728AD39AD4AAD5BADCA01B9018D
:102C00000E94F7DB4B015C0124962CAD3DAD4EAD2F
:102C10005FAD2497CA01B9010E94F7DB9B01AC01AB
:102C2000C501B4010E94DADF0E9445E2A0966CAFB4
:102C30007DAF8EAF9FAFA0978091E3069091E406A1
:102C4000A091E506B091E60628968CAF9DAFAEAF99
:102C5000BFAF2897A7019601BC01CD010E94DADF22
:102C600064966CAF7DAF8EAF9FAF64972091E706FF
:102C70003091E8064091E9065091EA062C962CAF77
:102C80003DAF4EAF5FAF2C972CAD3DAD4EAD5FADC0
:102C90002C966CAD7DAD8EAD9FAD2C970E94DADF8A
:102CA000A4966CAF7DAF8EAF9FAFA49740911D09E6
:102CB00050911E0960911F097091200960964CAFD8
:102CC0005DAF6EAF7FAF609764962CAD3DAD4EADFE
:102CD0005FAD649760966CAD7DAD8EAD9FAD609736
:102CE0000E94D9DF6B017C0160912109709122095A
:102CF000809123099091240968966CAF7DAF8EAFC7
:102D00009FAF6897A4962CAD3DAD4EAD5FADA49737
:102D10000E94D9DF4B015C018091EB069091EC069B
:102D2000A091ED06B091EE066C968CAF9DAFAEAF64
:102D3000BFAF6C979C01AD01609125097091260988
:102D400080912709909128090E94D9DF2B013C012D
:102D50002091290930912A0940912B0950912C0981
:102D6000AC962CAF3DAF4EAF5FAFAC974091EF0646
:102D70005091F0066091F1067091F206A8964CAF62
:102D80005DAF6EAF7FAFA897A701960168AD79AD33
:102D90008AAD9BAD0E94F7DBE0966CAF7DAF8EAF46
:102DA0009FAFE097A501940124966CAD7DAD8EADEB
:102DB0009FAD24970E94F7DB9B01AC01E0966CADC0
:102DC0007DAD8EAD9FADE0970E94DADFE0966CAFEF
:102DD0007DAF8EAF9FAFE097A501940168AD79AD4F
:102DE0008AAD9BAD0E94F7DB4B015C01A701960108
:102DF00024966CAD7DAD8EAD9FAD24970E94F7DB20
:102E00009B01AC01C501B4010E94D9DFE0962CAD55
:102E10003DAD4EAD5FADE0970E944DE06B017C0192
:102E200020E030E0A9010E9492DB87FF0AC02BED71
:102E30003FE049EC50E4C701B6010E94DADF6B01C4
:102E40007C01112351F02BED3FE049EC50E4C70128
:102E5000B6010E94D9DF6B017C0120E030E0A901BE
:102E6000C701B6010E9492DB811128C060962CAD8B
:102E70003DAD4EAD5FAD609728966CAD7DAD8EAD2E
:102E80009FAD28970E9492DB811118C068962CADE7
:102E90003DAD4EAD5FAD68972C966CAD7DAD8EAD02
:102EA0009FAD2C970E9492DB811108C00BEDC02EC4
:102EB0000FE0D02E09ECE02E00E4F02EA7019601E1
:102EC000A0966CAD7DAD8EAD9FADA0970E94F7DB57
:102ED0004B015C0120E030E0A901C301B2010E9476
:102EE00092DB8823C9F0A5019401C501B4010E94B9
:102EF000F7DB4B015C01A3019201C301B2010E9407
:102F0000F7DB9B01AC01C501B4010E94DADF0E942E
:102F100045E24B015C010DC020E030E0A901C50194
:102F2000B4010E9400E287FF04C0B7FAB094B7F87A
:102F3000B0942FE632E143E85AE3C501B4010E94A0
:102F400092DB87FF02C00C940F2FC501B4010E94D1
:102F50004FE10E9423E11B01672B19F422242394E3
:102F6000312CB10180E090E00E9496DB4B015C01C6
:102F70009B01AC01C701B6010E94B6E028966CAF78
:102F80007DAF8EAF9FAF2897A5019401C301B20119
:102F90000E94B6E0A0966CAF7DAF8EAF9FAFA097BA
:102FA000A8962CAD3DAD4EAD5FADA897AC966CAD7F
:102FB0007DAD8EAD9FADAC970E94D9DFA501940188
:102FC0000E94B6E0AC966CAF7DAF8EAF9FAFAC9772
:102FD00028962CAD3DAD4EAD5FAD2897CA01B90125
:102FE0000E94F7DB20E030E040E05FE30E94F7DB87
:102FF0009B01AC0160E070E080E89FE30E94D9DFB4
:1030000068966CAF7DAF8EAF9FAF68976C966CADD6
:103010007DAD8EAD9FAD6C9769877A878B879C87D6
:10302000A8968CAD9DADAEADBFADA8978D879E87A0
:10303000AF87B88B60911D0270911E02072E000CA5
:10304000880B990B0E9498DB209122023091230279
:1030500040912402509125020E94F7DB2AE037EDCF
:1030600043E25CE30E94F7DB6CAB7DAB8EAB9FABC6
:103070000E946FAF9B01AC0128533F4F4F4F5F4FF2
:103080006C962CAF3DAF4EAF5FAF6C9748AC59AC70
:103090006AAC7BAC41E050E02E965FAF4EAF2E970E
:1030A00059E129965FAF29972E96EEADFFAD2E9789
:1030B000E215F30509F455C10E94DB460E946FAF8B
:1030C000DC01CB016C962CAD3DAD4EAD5FAD6C9788
:1030D000821B930BA40BB50BB7FD10C00E946FAF02
:1030E0009B01AC0128533F4F4F4F5F4F6C962CAF65
:1030F0003DAF4EAF5FAF6C970E94E49529963FAD10
:103100002997315029963FAF2997332309F44BC0B3
:1031100068962CAD3DAD4EAD5FAD689724966CAD15
:103120007DAD8EAD9FAD24970E94F7DB6B017C01D6
:1031300028962CAD3DAD4EAD5FAD2897B201C301D1
:103140000E94F7DBA70196010E94DADF7B018C0168
:1031500068962CAD3DAD4EAD5FAD6897B201C30131
:103160000E94F7DB4B015C0128962CAD3DAD4EADC6
:103170005FAD289724966CAD7DAD8EAD9FAD249745
:103180000E94F7DB9B01AC01C501B4010E94D9DFAD
:103190002B013C01C701D80124968CAF9DAFAEAF87
:1031A000BFAF249759C02E964EAD5FAD2E97BA0192
:1031B00080E090E00E9496DB28962CAD3DAD4EADB0
:1031C0005FAD28970E94F7DB4B015C010E94B3E0E2
:1031D0006B017C01C501B4010E943BE24B015C0123
:1031E000A701960168AD79AD8AAD9BAD0E94F7DB72
:1031F0002B013C01A50194016CAD7DAD8EAD9FAD61
:103200000E94F7DB9B01AC01C301B2010E94DADF2F
:103210002B013C01A501940168AD79AD8AAD9BAD50
:103220000E94F7DB4B015C01A70196016CAD7DADFF
:103230008EAD9FAD0E94F7DB9B01AC01C501B401CF
:103240000E94D9DF24966CAF7DAF8EAF9FAF2497DD
:1032500059E129965FAF29979201A30164966CAD5D
:103260007DAD8EAD9FAD64970E94DADF69837A836E
:103270008B839C8324962CAD3DAD4EAD5FAD2497E2
:10328000A4966CAD7DAD8EAD9FADA4970E94DADFA4
:103290006D837E838F839887A0962CAD3DAD4EAD18
:1032A0005FADA09769857A858B859C850E94DADF62
:1032B00069877A878B879C87AC962CAD3DAD4EADE8
:1032C0005FADAC976D857E858F8598890E94DADF2A
:1032D0006D877E878F87988B80913A02882321F0B3
:1032E000CE0101960E94DF93E09019061CA61DA650
:1032F0001EA61FA689819A81AB81BC8188A399A350
:10330000AAA3BBA38D819E81AF81B8858CA39DA309
:10331000AEA3BFA389859A85AB85BC8588A799A7ED
:10332000AAA7BBA7AE01485D5F4FBE016C5D7F4F92
:10333000CE0180960E943C77BE01645D7F4F6B0199
:103340008E010C5C1F4F9E01235F3F4FAE01485D15
:103350005F4F68507109CE0180960E943F698111CC
:1033600050C0E090190618AA19AA1AAA1BAA80919F
:103370001D0990911E09A0911F09B091200988A3F1
:1033800099A3AAA3BBA38091210990912209A0919E
:103390002309B09124098CA39DA3AEA3BFA3809160
:1033A000250990912609A0912709B091280988A79D
:1033B00099A7AAA7BBA7AE01485D5F4FBE016C5D90
:1033C0007F4FCE0180960E943C77CE01C0966C0163
:1033D0008E010C5C1F4F29E239E0AE01485D5F4F62
:1033E000BE016C5D7F4F40970E943F6980E1EDE137
:1033F000F9E0A3EEB6E001900D928A95E1F70C9406
:103400000F2F2E96AEADBFAD2E9711962E96BFAF55
:10341000AEAF2E9749CEE9E2FFE184918F010F5FB5
:103420001F4F882321F00E945039F801F6CFE3EBBB
:10343000F1E084918F010F5F1F4F882311F40C94EA
:103440000F2F0E945039F801F4CF80E50E947438A4
:10345000882329F00E94BA376B017C0103C0C12C7C
:10346000D12C760183E50E947438882361F00E9494
:10347000FA3720E030E04AE754E40E94F7DB0E948C
:1034800023E16B017C010E94EE768091A9098111F4
:1034900005C060E089EC91E00E9451B40E946FAFDA
:1034A000C60ED71EE81EF91E0E946FAFDC01CB01CD
:1034B0008C199D09AE09BF09B7FD02C00C940F2FEE
:1034C0000E94E495F1CF80E00E94D5A90C940F2FC3
:1034D00083E50E947438882311F10E94DA37863020
:1034E00070F0E4E8F2E084918F010F5F1F4F8823B2
:1034F00011F40C940F2F0E945039F801F4CF83304F
:1035000009F458C134F4813071F1823009F43FC0BC
:1035100006C0843009F4B0C1853009F4BDC10E94F1
:103520008DA7882399F080919306811103C069E8E3
:1035300072E002C065E872E08CE592E00E9499C9F1
:103540008AE00E9450390E943BD6BBC1E4E6F2E01B
:1035500084918F010F5F1F4F882309F4B2C10E942D
:103560005039F801F5CF0E94BFC1109201021092AC
:1035700000028091890681110AC081E592E0909352
:10358000DE068093DD060E9414370C940F2F809185
:1035900000029091010297FF0EC0E8E2F2E08491F0
:1035A0008F010F5F1F4F882311F40C940F2F0E947F
:1035B0005039F801F4CF0097A1F480913A0280933A
:1035C000C10219821A821B821C8218A219A21AA295
:1035D0001BA2BE016F5F7F4FCE0180960E94B69105
:1035E0002BC0815063E00E94A2E280FF03C022E072
:1035F000291B922F292F990F330BF901EE0FFF1F73
:10360000E20FF31FE80FF11D87FDFA95EE0FFF1F84
:10361000EE0FFF1FEF53F34F8091EB069091EC06F6
:10362000A091ED06B091EE0680839183A283B383CF
:103630008091C10280933A02809100029091010230
:10364000893091050CF067C010923A029C012F5FFF
:103650003F4F309301022093000263E00E94A2E2F8
:1036600080FF03C022E0291B922F4091EB0650916E
:10367000EC066091ED067091EE0648A359A36AA38B
:103680007BA319821A821B821C82F4E08F029001B4
:103690001124A9014150564F4A01DA012D913D9163
:1036A0004D915C91B4E09B02C0011124FC01E55FE7
:1036B000F54F5F016081718182819381DE011196F6
:1036C0006D01E12CF12C00EA10E40E94F9A81982A6
:1036D0001A821B821C82B601CE0180960E94B6918E
:1036E000F50180819181A281B3818093E30690935B
:1036F000E406A093E506B093E606F401808191818B
:10370000A281B3818093E7069093E806A093E9062F
:10371000B093EA0644C080E090E0A0EAB0E4809371
:10372000EB069093EC06A093ED06B093EE060E9494
:10373000A2A80E94EE768FEF9FEF909301028093F4
:103740000002E4E1F2E084918F010F5F1F4F8823B4
:1037500021F00E945039F801F6CF83E992E09A8374
:10376000898304E610E019A308A3BE016F5F7F4FB1
:10377000CE0180960E9482918AEB92E09A8389839F
:1037800019A308A3BE016F5F7F4FCE0180960E94F0
:10379000829181E00E94D5A981E00E94BDA710928C
:1037A00089066091000270910102693071050CF484
:1037B0007BC078C088E50E9474388823A1F00E94FD
:1037C000CA371FEF160F1330A8F0EDEFF1E0849128
:1037D0008F010F5F1F4F882311F40C940F2F0E944D
:1037E0005039F801F4CF88E50E9450390E9412D573
:1037F0000C940F2F89E50E9474388823A1F00E9451
:10380000CA370FEF060F0330A8F0E6EEF1E084911F
:103810008F010F5F1F4F882311F40C940F2F0E940C
:103820005039F801F4CF89E50E9450390E9412D531
:103830000C940F2F8AE50E9474388823B1F00E94FF
:10384000FA37212F30E0F901EE0FFF1FE20FF31FCF
:10385000E00FF11DEE0FFF1FEE0FFF1FEF53F34FB1
:1038600060837183828393832CC08AE50E945039E0
:103870000E9412D50C940F2F8AE50E947438882379
:10388000A1F30E94FA3760938B0670938C068093A5
:103890008D0690938E0615C080E00E94BDA70E9401
:1038A000BFC10FC069E070E087ED91E00E9480C960
:1038B00069E070E082ED91E00E9480C98AE00E9498
:1038C00050390E94A5780C940F2F80910202882312
:1038D00011F40C940F2F89E40E947438F82E882379
:1038E00021F00E94CA37062F01C000E08AE40E943E
:1038F0007438E82E882331F00E94CA37162FF11051
:1039000004C00AC010E0FF20B1F0033010F40C94A2
:103910000E33EBE9F2E003C01330D8F70CC084910A
:103920008F010F5F1F4F882311F40C940F2F0E94FB
:103930005039F801F4CF0E944639FF2091F024E07D
:103940000202F0011124E55FF54F80819181A2818F
:10395000B38180931D0990931E09A0931F09B09312
:103960002009EE2091F034E01302F0011124E1501F
:10397000F64F80819181A281B38180932109909338
:103980002209A0932309B093240980E50E9474388A
:10399000882319F00E94EB3703C080E50E942D3880
:1039A00086E40E9474388823D9F00E94FA376B01AC
:1039B0007C0120E030E0A9010E9400E2181684F4A6
:1039C00020E030E040E752E4C701B6010E94B6E0D3
:1039D0006093220270932302809324029093250225
:1039E0000E9409990C940F2F1092C0020C940F2F73
:1039F00081E08093C0020C940F2F0E94F9910C94E7
:103A00000F2F80912313909124138237910509F48D
:103A1000B3C30CF0C6C08B34910509F4A7C20CF0F7
:103A200067C08831910509F465C2C4F582319105FA
:103A300009F49AC3DCF497FF02C00C94BE2E8230C6
:103A400091050CF497C1419711F00C94BE2E60E0E3
:103A50008DEC92E00E9451B45F988A9880910801A1
:103A600081708093060112980C940F2F8531910577
:103A700009F436C23CF4449711F00C94BE2EE5EEE6
:103A8000F2E0EDC18631910509F42EC2479711F09D
:103A90000C94BE2E0E9402A60C940F2F8D3191051E
:103AA00011F40C940F2F94F48A31910509F433C268
:103AB0000CF42BC28B31910509F43BC24C9711F0E9
:103AC0000C94BE2E0E9473A50C940F2F8F3191057C
:103AD00009F448C20CF431C28032910509F431C2B4
:103AE0008A9711F00C94BE2E0E94BF7E0C940F2F6B
:103AF0008C35910509F43CC33CF58135910509F4F9
:103B000026C37CF48D34910509F438C20CF432C21A
:103B10008E34910511F00C94BE2E0E948B7D0C9476
:103B20000F2F8335910509F41AC30CF414C384359F
:103B3000910509F419C38535910511F00C94BE2E39
:103B40000E94307A0C940F2F8C36910509F451C2E3
:103B5000ACF48936910509F450C234F488369105E5
:103B600009F410C20C94BE2E8A36910509F4BFC226
:103B70008B36910509F4D9C20C94BE2E8E36910570
:103B800009F42FC20CF47AC28F36910509F42DC2C4
:103B90008037910511F00C94BE2E86EF92E00E94C2
:103BA00095958D3D910509F4B9C70CF05EC08B3930
:103BB000910509F43CC234F58737910509F49FC398
:103BC00074F48537910509F439C30CF048C3833781
:103BD000910511F00C94BE2EE3E0F4E0D3C28937D6
:103BE000910509F497C30CF48EC38C38910509F440
:103BF00049C28139910511F00C94BE2E0E94B67A0B
:103C00000C940F2F8C3C910509F40CC4F4F4883CFF
:103C1000910509F485C334F48E3B910509F450C233
:103C20000C94BE2E893C910509F4C2C38B3C9105CE
:103C300011F00C94BE2E96E5E92E96E0F92E07E4DD
:103C400012E024E0D22ED00EDDC38E3C910509F4A3
:103C5000E2C40CF45FC4833D910509F46FC68C3D4A
:103C6000910509F44CC70C94BE2E843A41E09407A8
:103C700011F40C94462C0CF03DC08F3261E0960795
:103C800011F40C944E27CCF48C32A1E09A0709F47D
:103C9000E4C734F4823E910509F4B0C70C94BE2EFB
:103CA0008D32E1E09E0711F40C9457268E3291403C
:103CB00011F40C94FA260C94BE2E833621E0920760
:103CC00011F40C942A2C3CF48033914011F40C94A0
:103CD000AD2B0C94BE2E803951E0950711F40C9455
:103CE000432C8A39914011F00C94BE2E0E94DD774E
:103CF0000C940F2F863F71E0970711F40C949A2EC5
:103D0000FCF48C3AB1E09B0709F4A7C43CF4853A73
:103D1000914011F40C949F2D0C94BE2E843F21E011
:103D2000920711F40C94812E853F914011F00C9470
:103D3000BE2E0E94E96080E00E94535C0C940F2F1D
:103D40008B3843E0940711F40C940F2F3CF4873F19
:103D5000914011F40C949D2E0C94BE2E803A73E089
:103D6000970709F4F2C0873E934011F40C94A92EF2
:103D70000C94BE2EA0902113B090221380E50E94D7
:103D80007438882359F00E94BA376B017C0111E026
:103D9000672B682B692B31F410E004C010E0C12CB4
:103DA000D12C760183E50E947438882311F40C9499
:103DB000172F0E94FA3720E030E04AE754E40E94CF
:103DC000F7DB0E9423E16B017C0111110BC0672B13
:103DD000682B692B39F4A114B10421F0F50180811D
:103DE000811102C010E001C011E00E94EE761123A3
:103DF00029F061E0C5010E94F75805C060E08AEB38
:103E000092E00E9451B481E080932406C114D10451
:103E1000E104F104E9F00E946FAFC60ED71EE81E60
:103E2000F91E0E946FAFDC01CB018C199D09AE0910
:103E3000BF09B7FD06C00E9482B8109224060C94F8
:103E40000F2F809124068823B1F30E94E495E9CFD7
:103E500080912406882379F30E94E495F9CF849118
:103E60008F010F5F1F4F882321F00E945039F80106
:103E7000F6CF1092B40C40E050E0BA0187E69AE029
:103E80000E94459D8BE1E7E6FAE0DE011596019080
:103E90000D928A95E1F78091650A9091660A9C835C
:103EA0008B8381E792E09A83898340E050E0BE01F2
:103EB0006F5F7F4F80E090E00E94ABBCCE01019627
:103EC0000E947495E6EDF2E084918F010F5F1F4F21
:103ED000882311F40C940F2F0E945039F801F4CF6D
:103EE0000E944B900C940F2F1092370A1092380AB0
:103EF0000C940F2F8091380A882319F081E0809369
:103F0000370A0E94C1C90C940F2F1092370A0E94E1
:103F100055480C940F2F8091380A882311F40C9483
:103F20000F2F83E50E94743881110C941C2F0C9480
:103F30000F2F0E947BA50C940F2F0E94C6A40C94F7
:103F40000F2F0E940C7F0C940F2F809121139091C2
:103F5000221321E02093360A40E060E00E945C8E4C
:103F60000C940F2F0E9487A40C940F2F0E94C1C99C
:103F70000C940F2F0E9455480C940F2F0E941FCABB
:103F80000C940F2F88E690E00E94E2AC81110C9413
:103F90000F2F8091730683FF02C00C940F2F83E5CF
:103FA0000E9474388823C9F00E94FA370E941EE1EB
:103FB000709399066093980680E00E94A8420E9440
:103FC000FA3720E030E046E952E40E9492DB18160E
:103FD00024F00E941FCA0E9482B80E94CFCA0C948B
:103FE0000F2F0E94A47B0C940F2F0E942D7B0C940A
:103FF0000F2F10920D020C940F2F89E690E00E9473
:10400000E2AC81110C941433EFEFF2E084918F0154
:104010000F5F1F4F882321F00E945039F801F6CF1F
:104020000E94A5418AE00E9450390C94143383E524
:104030000E947438882311F40C940F2F0E94DA37F1
:10404000182F8D3308F01CE3109310090E946FAFF6
:104050006B017C01212F30E0A8EEB3E00E94CADFA3
:10406000C60ED71EE81EF91EC0920C09D0920D098B
:10407000E0920E09F0920F090C940F2F0E94B47B6E
:104080000C940F2F8091730683FF02C00C940F2FA6
:1040900083E50E947438882311F40C940F2F0E943A
:1040A000FA370E941EE16738710514F067E870E086
:1040B00070939706609396060E945D420C940F2FB2
:1040C0008091730683FF02C00C940F2F83E50E943A
:1040D000743861968FAF619781110C942D2F82E512
:1040E0000E94743881110C942D2F0C940F2F80E5B1
:1040F0000E947438811106C083E50E9474388823B9
:1041000061F006C00E94DA3781110C940F2FF4CFB2
:104110000E94CA376F3F710510F06FEF70E0709327
:10412000C7056093C6050C940F2F80E50E94743874
:10413000811106C01092C7051092C6050C940F2F6E
:104140000E94CA37672B11F00C940F2FF3CF0E94F7
:10415000A47A0C940F2F1092BF020C940F2F81E0C1
:104160008093BF020C940F2F0E94487A0C940F2F5B
:104170000E9492790C940F2F0E94EE760E94A578EF
:104180000C940F2F84918F010F5F1F4F882321F014
:104190000E945039F801F6CF60E083EF93E00E946F
:1041A000617860E08CEE93E00E94617861E081EEDE
:1041B00093E00E94617861E081ED93E00E94617874
:1041C00060E088EC93E00E94617861E08EEB93E020
:1041D0000E94617860E084EB93E00E94617860E087
:1041E0008CEA93E00E94617861E08EE993E00E949E
:1041F000617860E080E993E00E94617860E081E8A6
:1042000093E00E94617860E083E793E00E94617828
:1042100060E08DE593E00E94617860E08CE493E0DB
:104220000E94617860E087E393E00E94617861E03A
:1042300084E293E00E9461780C940F2F8091211307
:1042400090912213DC012C91211104C00E9482B8AC
:104250000C940F2F60E00E94F7580C940F2F0091E0
:1042600021131091221383E0D12C40E08150E1F022
:10427000F8019081292F2B7F2134C1F7218121332F
:10428000A9F7913421F0953421F441E002C0DD24F6
:10429000D39498012E5F3F4F89012F5F3F4FD80184
:1042A0009C919032C9F3E2CF442369F0E4E4F3E255
:1042B00084917F01BFEFEB1AFB0A882321F00E9453
:1042C0005039F701F5CFDD2069F0E6ECF4E0849198
:1042D0007F012FEFE21AF20A882321F00E94503961
:1042E000F701F5CFD8018D918D01882319F00E9437
:1042F0005039F8CF8AE00E9450390C940F2F0E9459
:1043000076C20C940F2F81E08093300480932F04A9
:104310000C940F2F1092300410922F040C940F2F36
:1043200088EC90E00E94E2AC81110C940F2F84E4A1
:104330000E942D388823C1F10E94FA3711E020E055
:1043400030E0A9010E9492DB811101C010E01093BE
:104350004106112349F10E94FA37E0919A03B4E033
:10436000EB9FF0011124EE5BF94F60837183828330
:10437000938320E030E0A9016091420670914306EA
:1043800080914406909145060E9492DB81110CC0F9
:1043900080E090E0A0EEBFE3809342069093430656
:1043A000A0934406B09345060E9478770C940F2F93
:1043B0003AE9E32E36E0F32E07E412E044E0D42E8F
:1043C000D00EF80181918F010E942D38882351F081
:1043D0000E94FA370E9423E1D7016D937D938D935C
:1043E0009C931397B4E0EB0EF11CD012EACF0E941D
:1043F000FFCA0C940F2FB4E0EB0EF11CD01611F491
:104400000C940F2FF80181918F010E942D38882381
:1044100091F30E94FA37D7016D937D938D939C930E
:104420001397E9CF83E50E9474388823A1F00E9496
:10443000FA376093B2067093B3068093B4069093F4
:10444000B5066093AA067093AB068093AC06909372
:10445000AD0610E001C011E080E50E9474388823A9
:1044600059F00E94FA376093B2067093B3068093B6
:10447000B4069093B50610E082E50E947438882354
:1044800059F00E94FA376093AE067093AF0680939E
:10449000B0069093B10610E084E50E94743888233A
:1044A00061F00E94FA376093AA067093AB0680937E
:1044B000AC069093AD060C940F2F112311F40C94BD
:1044C0000F2F4091B2065091B3066091B4067091DF
:1044D000B50680ED94E00E9463C94091AE0650910C
:1044E000AF066091B0067091B1068DEC94E00E9429
:1044F00063C94091AA065091AB066091AC067091D9
:10450000AD068AEC94E00E9463C98AE00E945039AB
:104510000C940F2F82E40E942D38882351F00E94C2
:10452000BA37609366067093670680936806909327
:10453000690683E50E942D38882351F00E94FA37DE
:1045400060936E0670936F06809370069093710669
:1045500084E50E942D38882351F00E94FA37609339
:104560006A0670936B0680936C0690936D0688E5DF
:104570000E942D38882351F00E94FA376093460636
:1045800070934706809348069093490689E50E94F8
:104590002D38882351F00E94FA3760934A067093B1
:1045A0004B0680934C0690934D068AE50E942D3869
:1045B0008823F1F00E94FA3760934E0670934F06FD
:1045C00080935006909351062DEC3CEC4CEC5DE34F
:1045D0000E9492DB181664F0E0EEF4E084918F0103
:1045E0000F5F1F4F882321F00E945039F801F6CF4A
:1045F00085E40E942D38882311F40C940F2F0E941B
:10460000FA37609352067093530680935406909342
:1046100055060C940F2F07E4C02E02E0D02E82E343
:10462000E82E84E0F82E10E0F60181916F010E94DF
:104630002D38882359F00E94FA37D7016D937D9366
:104640008D939C931397812F0E94C5AB1F5FB4E09D
:10465000EB0EF11C133041F734C980918A06082F04
:10466000017011E0012781FBFF24F0F8F12682FBA5
:10467000882780F91827011102C0FF2019F0E4E40F
:10468000F3E216C01111FBCF12E2812E10E2912E3F
:10469000A3EEB6E0B9AFA8AFFE0131965F010BE71C
:1046A00010E21F01F3E0F00F2196FFAF21977CC0CD
:1046B00084916F012FEFC21AD20A882321F00E9441
:1046C0005039F601F5CFE2E3F5E084916F013FEF59
:1046D000C31AD30A882321F00E945039F601F5CF7E
:1046E000002369F0E0E3F5E084916F014FEFC41A15
:1046F000D40A882321F00E945039F601F5CFFF201B
:1047000069F0EEE2F5E084916F015FEFC51AD50A1A
:10471000882321F00E945039F601F5CF111103C012
:10472000E4E2F5E00DC0ECE2F5E084916F016FEF9B
:10473000C61AD60A8823A1F30E945039F601F5CF94
:1047400084916F017FEFC71AD70A882321F00E9456
:104750005039F601F5CF111103C048E852E002C00C
:104760004DE852E0F11003C028E832E002C02FE823
:1047700032E0011103C088E892E002C081E992E0D2
:104780005F934F933F932F939F938F9382E195E095
:104790009F938F931F920E94D5910FB6F894DEBF1E
:1047A0000FBECDBF0C940F2FF401659175918591CB
:1047B0009491A8ADB9ADCD90DD90ED90FD90B9AFDD
:1047C000A8AFA70196010E94D9DF2B013C0120E090
:1047D00030E040EA51EC0E9400E287FD10C020E08A
:1047E00030E040EA51E4C301B2010E9492DB1816A6
:1047F00034F0F10140825182628273820DC0F8016F
:1048000084911816B4F7F7FAF094F7F8F094F101E0
:10481000C082D182E282F382D101CD90DD90ED9011
:10482000FD901D0120E030E040EA51ECC701B601E7
:104830000E9400E287FF03C0E9E2FFE10BC020E035
:1048400030E040EA51E4C701B6010E9492DB18163D
:104850007CF5F2CF84918F010F5F1F4F882321F0E9
:104860000E945039F801F6CFE6E5F5E084918F011A
:104870000F5F1F4F882321F00E945039F801F6CFB7
:1048800061E088E495E00E9451B40E94C2B888E2D9
:1048900090E099A388A388EC90E09DA78CA7BE0127
:1048A000605E7F4FCE018C960E9482910C940F2FF8
:1048B000B4E08B0E911C0F5F1F4F2196EFAD219737
:1048C000E01372CFB2E3EB2EB4E0FB2E10E0F50163
:1048D00081919191A191B1915F01F70181939193A0
:1048E000A193B1937F01812F0E94C5AB1F5F13304D
:1048F00071F70E94A57860E088E395E00E9451B4CA
:1049000083E992E09DA78CA704E610E019A308A311
:10491000BE01645D7F4FCE0180960E9482918AEB3A
:1049200092E09DA78CA719A308A3BE01645D7F4FE9
:10493000CE0180960E9482910C940F2FE4E4F3E262
:1049400084918F010F5F1F4F882321F00E945039FF
:10495000F801F6CF83E50E942D38882321F00E94CC
:10496000EB3780933A02ECE9F5E084918F010F5F19
:104970001F4F882321F00E945039F801F6CF809113
:104980003A02811103C0E8E9F5E002C0E4E9F5E08C
:1049900084918F010F5F1F4F882321F00E945039AF
:1049A000F801F6CFECE8F5E084918F010F5F1F4F1F
:1049B000882321F00E945039F801F6CF2091E90CAC
:1049C0003091EA0C4091EB0C5091EC0C6091F50C9D
:1049D0007091F60C8091F70C9091F80C0E94DADF40
:1049E000AB01BC018AE895E00E9463C92091ED0CFF
:1049F0003091EE0C4091EF0C5091F00C6091F90C5D
:104A00007091FA0C8091FB0C9091FC0C0E94DADF03
:104A1000AB01BC0187E895E00E9463C92091F10CCD
:104A20003091F20C4091F30C5091F40C6091FD0C1C
:104A30007091FE0C8091FF0C9091000D0E94DADFC6
:104A4000AB01BC0184E895E00E9463C9ECE7F5E0A6
:104A500084918F010F5F1F4F882321F00E945039EE
:104A6000F801F6CF2091E90C3091EA0C4091EB0C63
:104A70005091EC0C60912E0270912F0280913002C7
:104A8000909131020E94DADFAB01BC018AE795E028
:104A90000E9463C92091ED0C3091EE0C4091EF0C17
:104AA0005091F00C60913202709133028091340287
:104AB000909135020E94DADFAB01BC0187E795E0F7
:104AC0000E9463C92091F10C3091F20C4091F30CDB
:104AD0005091F40C60913602709137028091380247
:104AE000909139020E94DADFAB01BC0184E795E0C6
:104AF0000E9463C98AE00E9450390C940F2F83E50D
:104B00000E947438882311F40C940F2F0E94CA3726
:104B100070931E0260931D020C940F2F8DED90E098
:104B20000E94E2AC81110C940F2F83E50E9474382F
:104B30008823D9F100919A0310E00E94CA37000F30
:104B4000111FF801E55EFD4F7183608380919A0328
:104B500090E07C01EE0CFF1CEE0CFF1C8701095E4F
:104B60001D4F880F991FFC01E55EFD4F608171812B
:104B7000072E000C880B990B0E9498DB2AE037ED7A
:104B800043E25CE30E94F7DBF701EB57F94F20812A
:104B90003181428153810E94F7DBD8016D937D936F
:104BA0008D939C9313970C940F2FE4E4F3E284917C
:104BB0008F010F5F1F4F882321F00E945039F801A9
:104BC000F6CF85E40E94503980919A03805D0E945F
:104BD0005039E0919A03F0E0EE0FFF1FE55EFD4FC4
:104BE000608171818CEA95E00E9480C985E20E9413
:104BF00050398AE00E9450390C940F2F80E50E94B2
:104C00002D38882311F40C940F2F0E94CA376B01A2
:104C10007C0183E50E947438882321F00E94CA3702
:104C20008B0102C00FEF1FEFC8010196039710F030
:104C30000C940F2FD7FE02C00C940F2F9C2DE4EB89
:104C4000F5E08DE28E0F2491921711F40C94E3306D
:104C500031968E13F8CF0C94E63083E50E947438B9
:104C6000882319F00E94CA3702C064E071E079A37A
:104C700068A380E50E947438882339F00E94CA37FF
:104C80006938B3E17B0730F402C068EE73E07A83E1
:104C9000698304C088E893E19A838983BE01605EDA
:104CA0007F4FCE0101960E9482910C940F2F85E4D4
:104CB0000E947438811110C080E50E942D3888232D
:104CC00091F00E94FA3760937C0370937D03809388
:104CD0007E0390937F0307C00E94DA37882361F335
:104CE000E9E2FFE16FC089E40E942D38882381F05A
:104CF0000E94FA372CEA35EC47E25EE30E94F7DBCC
:104D0000609378037093790380937A0390937B0385
:104D100084E40E942D38882381F00E94FA372CEA1F
:104D200035EC47E25EE30E94B6E060938003709347
:104D300081038093820390938303E4E4F3E28491FC
:104D40008F010F5F1F4F882321F00E945039F80117
:104D5000F6CF40917C0350917D0360917E0370916A
:104D60007F0389EE95E00E9463C92CEA35EC47E2A7
:104D70005EE3609178037091790380917A0390915A
:104D80007B030E94B6E0AB01BC0185EE95E00E947A
:104D900063C92CEA35EC47E25EE3609180037091D1
:104DA000810380918203909183030E94F7DBAB0122
:104DB000BC0181EE95E00E9463C98AE00E945039EF
:104DC0000C940F2F84918F010F5F1F4F882321F0C8
:104DD0000E945039F801F6CFEDEEF5E084918F0195
:104DE0000F5F1F4F882311F40C940F2F0E9450392E
:104DF000F801F4CF83E50E942D38182F882371F035
:104E00000E94FA370E941EE1709316026093150209
:104E100021E0672B09F020E02093720680E50E94D4
:104E20002D38882359F02091150230911602232B3A
:104E300011F00E94EB3780937206F1C71111EFC792
:104E4000E4E4F3E284918F010F5F1F4F882321F088
:104E50000E945039F801F6CF80917206811103C08B
:104E600063E972E002C06EEA72E084E196E00E94BB
:104E700099C9609115027091160283E096E00E9434
:104E800080C9EFEFF5E084918F010F5F1F4F8823FA
:104E900009F4C5C70E945039F801F5CF85E40E9496
:104EA0007438882321F00E94CA377B0102C0E12CAC
:104EB000F12C83E40E947438882331F00E94CA37B1
:104EC000E7966FAFE79704C045E0E7964FAFE797E7
:104ED00085E50E947438882319F00E94EB3703C0DF
:104EE00085E50E942D38CE57DF4F8883C258D040C9
:104EF000F7FC07C0812C912C66E1A62E63E4B62E48
:104F000006C0812C912C5CE8A52E52E4B52E83E5D9
:104F10000E947438882321F00E94FA374B015C010B
:104F2000E114F10411F410929A03E8AE0E946FAFFD
:104F30002B013C0158AD57FD03C004E110E002C055
:104F40000CE310E0D301C2018C53964FAF4FBF4F1B
:104F50008093900390939103A0939203B093930353
:104F600061E06E0D623068F0E0ECF7E084918F0153
:104F70000F5F1F4F882309F452C70E945039F80170
:104F8000F5CFEAEEF7E084917F016FEFE61AF60ABB
:104F9000882321F00E945039F701F5CF0E94F34297
:104FA00078AD77FF04C08FE78093990308C088AD80
:104FB000E82F880FFF0BE856FC4F8FE78083C50171
:104FC000B4010E941EE1072E000C880B990B0E9471
:104FD00098DB25966FAF259729967FAF29972D9659
:104FE0008FAF2D9761969FAF61979801A8EEB3E0C0
:104FF0000E94CADFCD57DF4F688379838A839B8302
:10500000C358D040640D751D861D971DC157DF4FD5
:10501000688379838A839B83CF58D04081E08093D3
:105020000D02EE964CAE5DAE6EAE7FAEEE97C957FA
:10503000DF4F488259826A827B82C758D040EA9605
:105040001FAEEA97C557DF4F188219821A821B825A
:10505000CB58D040A5961FAEA59790E46D969FAF14
:105060006D97ACE1A996AFAFA997B6E4AD96BFAF87
:10507000AD97E1961FAEE197E2961FAEE297E396F9
:105080001FAEE397E4961FAEE4976C961CAE1DAE80
:105090001EAE1FAE6C9768961CAE1DAE1EAE1FAE48
:1050A00068971CAE1DAE1EAE1FAE2FE730E040E08D
:1050B00050E024962CAF3DAF4EAF5FAF24973FE753
:1050C000C32ED12CE12CF12CC258DF4F188219824B
:1050D0001A821B82CE57D04031E0E9963FAFE99764
:1050E000A2961FAE1EAEA29710E0212C312C00E03C
:1050F00048AD842F440F990BBC0168567C4FCD56A8
:10510000DF4F79836883C359D040880F991F880F78
:10511000991FDC01A658B64FE696BFAFAEAFE69733
:10512000E796EFADE7970E2E000CFF0BE896FFAF6A
:10513000EEAFE89780910D02882309F44DC10E94DB
:105140006FAF4B015C0180919503882309F420C166
:105150000E94B343F8ADF7FF09C010917609209083
:10516000770930907809009179090DC0E696AEADC7
:10517000BFADE6971C9111962C90119712963C901A
:10518000129713960C91212F322D432D502FE1961B
:105190006FADE197E2967FADE297E3968FADE3972F
:1051A000E4969FADE4970E9492DB87FF0CC0E196E6
:1051B0001FAFE197E2962FAEE297E3963FAEE397FB
:1051C000E4960FAFE497212F322D432D502FA59653
:1051D0006FADA5976D967FAD6D97A9968FADA99789
:1051E000AD969FADAD970E9400E2181664F4A596A7
:1051F0001FAFA5976D962FAE6D97A9963FAEA99755
:10520000AD960FAFAD978091900390919103A091CF
:105210009203B0919303A5019401281B390B4A0B0B
:105220005B0B57FD10C00E947046D501C4018C5322
:10523000964FAF4FBF4F8093900390939103A093ED
:105240009203B0939303E9963FADE99725962FAD6E
:105250002597332309F477C029963FAD29972D96DA
:105260004FAD2D9761965FAD6197612F722D832DA4
:10527000902F0E9400E218160CF08AC0B501A4011C
:105280004419550966097709CB56DF4F488359837E
:105290006A837B83C559D040DB01CA01885893419A
:1052A000A109B109B7FD74C0D701C60124962CAD80
:1052B0003DAD4EAD5FAD2497821B930BA40BB50B98
:1052C00038ADB595A7959795879537FF03C080931F
:1052D000990307C0CD56DF4FE881F981C359D0400B
:1052E0008083CB56DF4F288139814A815B81C55944
:1052F000D040C258DF4F288339834A835B83CE571F
:10530000D04025963FAD2597E1963FAFE19729968E
:105310004FAD2997E2964FAFE2972D965FAD2D974F
:10532000E3965FAFE39761966FAD6197E4966FAFD9
:10533000E497EE968CAE9DAEAEAEBFAEEE97E9961C
:105340001FAEE99725C029963FAD29972D964FAD01
:105350002D9761965FAD6197612F722D832D902FF0
:105360000E9492DB87FF14C0D501C401EE962CADDC
:105370003DAD4EAD5FADEE97821B930BA40BB50B0D
:10538000AC01BD01485853416109710977FF46C717
:1053900020E030E040EA51E425966FAD259729964C
:1053A0007FAD29972D968FAD2D9761969FAD619713
:1053B0000E94DADF9B01AC01612F722D832D902FAB
:1053C0000E9400E218167CF4ECE4F7E084918F016F
:1053D0000F5F1F4F811103C00E94F34220C50E943E
:1053E0005039F801F3CFD501C401C957DF4F2881E7
:1053F00039814A815B81C758D040821B930BA40B33
:10540000B50BB7FDB8C00E94A5418AE00E94503993
:10541000B501A4014053584F6F4F7F4FC957DF4F1D
:10542000488359836A837B83C758D040EA965FAD2F
:10543000EA97511177C0C557DF4F288139814A81DA
:105440005B81CB58D040612F722D832D902F0E940D
:1054500000E218160CF04BC020E030E040E050E4D1
:10546000612F722D832D902F0E94DADFC557DF4FF9
:10547000688379838A839B83CB58D040CD57DF4F95
:10548000688179818A819B81C358D040680D791DDC
:105490008A1D9B1DC157DF4F688379838A839B8355
:1054A000CF58D04020E030E040EC50E425966FAD7E
:1054B000259729967FAD29972D968FAD2D976196CB
:1054C0009FAD61970E94D9DF9B01AC0171E0EA9624
:1054D0007FAFEA97612F722D832D902F0E9400E2FB
:1054E00018160CF448C0EA961FAEEA9744C0D501DE
:1054F000C401C157DF4F288139814A815B81CF5870
:10550000D040821B930BA40BB50BB7FD34C038AD54
:105510003F3F19F048E157E002C04AE257E06DE32F
:1055200077E026C020E030E040EA51E425966FADF8
:10553000259729967FAD29972D968FAD2D9761964A
:105540009FAD61970E94D9DF9B01AC01612F722D45
:10555000832D902F0E9492DB87FF0DC048AD4F3FF7
:1055600019F041EE56E002C044EF56E068E077E003
:1055700088AD0E94D243D501C401880F991FAA1F8C
:10558000BB1FEE962CAD3DAD4EAD5FADEE97821BD1
:10559000930BA40BB50B84199509A609B70981389B
:1055A0009F44A241B10568F0E3ECF6E084918F01DD
:1055B0000F5F1F4F882309F40FCF0E945039F80165
:1055C000F5CFA2964EAD5FADA297E8966EAD7FADDA
:1055D000E897641775070CF0BDC0E6E6F6E0849125
:1055E0008F010F5F1F4F882321F00E945039F8016F
:1055F000F6CF78AD77FD03C008E812E002C007E9F6
:1056000012E0B80185E596E00E9499C94CAD5DAD08
:105610006EAD7FAD81E596E00E9463C98AE00E948D
:105620005039B80180E496E00E9499C968964CAD63
:105630005DAD6EAD7FAD68978CE396E00E9463C967
:105640008AE00E945039B8018BE296E00E9499C925
:105650006C964CAD5DAD6EAD7FAD6C9787E296E01C
:105660000E9463C98AE00E945039CE57DF4F88817B
:10567000C258D040882309F4D2C398AD97FF35C0F3
:105680002CAD3DAD4EAD5FAD20938C0330938D03BB
:1056900040938E0350938F032CEA35EC47E25EE390
:1056A00068966CAD7DAD8EAD9FAD68970E94F7DBBF
:1056B000609388037093890380938A0390938B038C
:1056C0002CEA35EC47E25EE36C966CAD7DAD8EADB9
:1056D0009FAD6C970E94B6E060938403709385033E
:1056E00080938603909387039AC34CAD5DAD6EADF6
:1056F0007FAD40937C0350937D0360937E03709352
:105700007F032CEA35EC47E25EE368966CAD7DAD35
:105710008EAD9FAD68970E94F7DB6093780370931E
:10572000790380937A0390937B032CEA35EC47E26C
:105730005EE36C966CAD7DAD8EAD9FAD6C970E94B7
:10574000B6E060938003709381038093820390930B
:10575000830365C30E941E59EDCC80E50E942D385D
:10576000882351F00E94FA3760938C0370938D0365
:1057700080938E0390938F0389E40E942D388823B1
:1057800081F00E94FA372CEA35EC47E25EE30E9492
:10579000F7DB609388037093890380938A03909367
:1057A0008B0384E40E942D38882381F00E94FA370D
:1057B0002CEA35EC47E25EE30E94B6E06093840396
:1057C000709385038093860390938703E4E4F3E268
:1057D00084918F010F5F1F4F882321F00E94503961
:1057E000F801F6CF40918C0350918D0360918E03A8
:1057F00070918F0386E098E00E9463C92CEA35EC33
:1058000047E25EE3609188037091890380918A0387
:1058100090918B030E94B6E0AB01BC0182E098E05E
:105820000E9463C92CEA35EC47E25EE36091840391
:105830007091850380918603909187030E94F7DB26
:10584000AB01BC018EEF97E00E9463C98AE00E9421
:105850005039E5C2E9E2FFE184918F010F5F1F4FEC
:10586000882321F00E945039F801F6CFEAE0F8E0F1
:1058700084918F010F5F1F4F882309F4D0C20E94CB
:105880005039F801F5CF0E94EE76C9C283E50E9437
:105890002D38882349F00E94EB37082F811106C06C
:1058A00080E00E94BDA702C0009193068091E306AC
:1058B0009091E406A091E506B091E60689839A836B
:1058C000AB83BC838091E7069091E806A091E9063E
:1058D000B091EA068D839E83AF83B8878091EB06F3
:1058E0009091EC06A091ED06B091EE0689879A871B
:1058F000AB87BC870E948DA7882309F474C083E41A
:105900000E942D3881112DC66EC0F70158ADE50FEC
:10591000F11DEE0FFF1FEE0FFF1FEF53F34F9080AF
:10592000A180B280C380292D3A2D4B2D5C2D682D8E
:105930007D2D25968FAD259729969FAD29970E949D
:1059400000E2181644F4892CDA2C2596BFAE259770
:105950002996CFAE2997292D3A2D4B2D5C2DB301D9
:1059600021968FAD21979CAD0E9492DB87FF06C0E8
:10597000692C7A2C2196BFAE2197CCAE68AD6150D0
:1059800068AF6F3F11F6111102C6930121964FAD1A
:1059900021975CAD682D7D2D25968FAD2597299695
:1059A0009FAD29970E94DADF20E030E040E05FE31E
:1059B0000E94F7DBA20191010E94DADF4B015C013A
:1059C0002DEB37E346E855EB0E9400E287FDEAC580
:1059D0002DEB37E346E855E3C501B4010E9492DBA5
:1059E00018160CF4DFC586E50E942D38882399F03F
:1059F0000E948DA7882379F0E8E5F8E084917F0183
:105A00002FEFE21AF20A882321F00E945039F701A1
:105A1000F5CF0E943BD68AE50E942D38882329F0D5
:105A20000E94FA3740E00E94DDA7802F0E94BDA7A8
:105A3000011103C0E4E4F3E21CC0809193068111DC
:105A4000F9CFE9E2FFE184918F010F5F1F4F8823B7
:105A500021F00E945039F801F6CFE9E3F8E0849193
:105A60008F010F5F1F4F882329F30E945039F801DF
:105A7000F6CF84918F010F5F1F4F882321F00E9482
:105A80005039F801F6CF80919306811103C069E87F
:105A900072E002C065E872E08BE298E00E9499C96A
:105AA0008AE00E945039E4E4F3E284918F010F5FB1
:105AB0001F4F882321F00E945039F801F6CFEEE104
:105AC000F8E084918F010F5F1F4F882321F00E941F
:105AD0005039F801F6CFC0909B03D0909C03E09022
